{
  "_format": "hh-sol-artifact-1",
  "contractName": "PumperFactory",
  "sourceName": "contracts/PumperFactory.sol",
  "abi": [
    {
      "anonymous": false,
      "inputs": [
        {
          "indexed": true,
          "internalType": "address",
          "name": "token",
          "type": "address"
        },
        {
          "indexed": true,
          "internalType": "address",
          "name": "buyer",
          "type": "address"
        },
        {
          "indexed": false,
          "internalType": "uint256",
          "name": "amount",
          "type": "uint256"
        },
        {
          "indexed": false,
          "internalType": "uint256",
          "name": "price",
          "type": "uint256"
        }
      ],
      "name": "Buy",
      "type": "event"
    },
    {
      "anonymous": false,
      "inputs": [
        {
          "indexed": true,
          "internalType": "address",
          "name": "token",
          "type": "address"
        },
        {
          "indexed": true,
          "internalType": "address",
          "name": "pool",
          "type": "address"
        },
        {
          "indexed": false,
          "internalType": "uint256",
          "name": "x",
          "type": "uint256"
        },
        {
          "indexed": false,
          "internalType": "uint256",
          "name": "y",
          "type": "uint256"
        }
      ],
      "name": "LiquidtyDeployed",
      "type": "event"
    },
    {
      "anonymous": false,
      "inputs": [
        {
          "indexed": true,
          "internalType": "address",
          "name": "creator",
          "type": "address"
        },
        {
          "indexed": true,
          "internalType": "address",
          "name": "token",
          "type": "address"
        }
      ],
      "name": "NewPumpToken",
      "type": "event"
    },
    {
      "anonymous": false,
      "inputs": [
        {
          "indexed": true,
          "internalType": "address",
          "name": "token",
          "type": "address"
        },
        {
          "indexed": true,
          "internalType": "address",
          "name": "seller",
          "type": "address"
        },
        {
          "indexed": false,
          "internalType": "uint256",
          "name": "amount",
          "type": "uint256"
        },
        {
          "indexed": false,
          "internalType": "uint256",
          "name": "price",
          "type": "uint256"
        }
      ],
      "name": "Sell",
      "type": "event"
    },
    {
      "inputs": [
        {
          "internalType": "string",
          "name": "name",
          "type": "string"
        },
        {
          "internalType": "string",
          "name": "symbol",
          "type": "string"
        }
      ],
      "name": "createPumpToken",
      "outputs": [
        {
          "internalType": "address",
          "name": "",
          "type": "address"
        }
      ],
      "stateMutability": "nonpayable",
      "type": "function"
    },
    {
      "inputs": [
        {
          "internalType": "address",
          "name": "",
          "type": "address"
        },
        {
          "internalType": "uint256",
          "name": "",
          "type": "uint256"
        }
      ],
      "name": "deployedPumpTokens",
      "outputs": [
        {
          "internalType": "address",
          "name": "",
          "type": "address"
        }
      ],
      "stateMutability": "view",
      "type": "function"
    },
    {
      "inputs": [
        {
          "internalType": "address",
          "name": "buyer",
          "type": "address"
        },
        {
          "internalType": "uint256",
          "name": "amount",
          "type": "uint256"
        },
        {
          "internalType": "uint256",
          "name": "price",
          "type": "uint256"
        }
      ],
      "name": "emitBuy",
      "outputs": [],
      "stateMutability": "nonpayable",
      "type": "function"
    },
    {
      "inputs": [
        {
          "internalType": "address",
          "name": "pool",
          "type": "address"
        },
        {
          "internalType": "uint256",
          "name": "x",
          "type": "uint256"
        },
        {
          "internalType": "uint256",
          "name": "y",
          "type": "uint256"
        }
      ],
      "name": "emitLiquidtyDeployed",
      "outputs": [],
      "stateMutability": "nonpayable",
      "type": "function"
    },
    {
      "inputs": [
        {
          "internalType": "address",
          "name": "seller",
          "type": "address"
        },
        {
          "internalType": "uint256",
          "name": "amount",
          "type": "uint256"
        },
        {
          "internalType": "uint256",
          "name": "price",
          "type": "uint256"
        }
      ],
      "name": "emitSell",
      "outputs": [],
      "stateMutability": "nonpayable",
      "type": "function"
    },
    {
      "inputs": [
        {
          "internalType": "bytes",
          "name": "_bytecode",
          "type": "bytes"
        },
        {
          "internalType": "uint256",
          "name": "_salt",
          "type": "uint256"
        }
      ],
      "name": "getAddressBeforeDeployment",
      "outputs": [
        {
          "internalType": "address",
          "name": "",
          "type": "address"
        }
      ],
      "stateMutability": "view",
      "type": "function"
    },
    {
      "inputs": [
        {
          "internalType": "string",
          "name": "name",
          "type": "string"
        },
        {
          "internalType": "string",
          "name": "symbol",
          "type": "string"
        }
      ],
      "name": "getBytecode",
      "outputs": [
        {
          "internalType": "bytes",
          "name": "",
          "type": "bytes"
        }
      ],
      "stateMutability": "view",
      "type": "function"
    },
    {
      "inputs": [
        {
          "internalType": "address",
          "name": "_creator",
          "type": "address"
        }
      ],
      "name": "getDeployedPumpTokens",
      "outputs": [
        {
          "internalType": "address[]",
          "name": "",
          "type": "address[]"
        }
      ],
      "stateMutability": "view",
      "type": "function"
    },
    {
      "inputs": [
        {
          "internalType": "address",
          "name": "_creator",
          "type": "address"
        }
      ],
      "name": "getDeployedPumpTokensLen",
      "outputs": [
        {
          "internalType": "uint256",
          "name": "",
          "type": "uint256"
        }
      ],
      "stateMutability": "view",
      "type": "function"
    }
  ],
  "bytecode": "0x608060405234801561001057600080fd5b50614124806100206000396000f3fe60806040523480156200001157600080fd5b5060043610620000a05760003560e01c80636ffc7436116200006f5780636ffc743614620001515780637814e750146200018757806388ae3c6b14620001bd578063a286cb1e14620001dd578063d0d579ab146200021357620000a0565b80631b00769914620000a557806337a9894614620000db5780634a7c974b14620001115780634e3f0a011462000131575b600080fd5b620000c36004803603810190620000bd9190620009aa565b62000249565b604051620000d2919062000a02565b60405180910390f35b620000f96004803603810190620000f3919062000a1f565b62000298565b60405162000108919062000b1f565b60405180910390f35b6200012f600480360381019062000129919062000b43565b62000366565b005b6200014f600480360381019062000149919062000b43565b6200045b565b005b6200016f600480360381019062000169919062000d01565b62000550565b6040516200017e919062000a02565b60405180910390f35b620001a560048036038101906200019f919062000a1f565b6200059c565b604051620001b4919062000d78565b60405180910390f35b620001db6004803603810190620001d5919062000b43565b620005e7565b005b620001fb6004803603810190620001f5919062000e49565b620006dc565b6040516200020a919062000a02565b60405180910390f35b6200023160048036038101906200022b919062000e49565b6200086a565b60405162000240919062000f57565b60405180910390f35b600060205281600052604060002081815481106200026657600080fd5b906000526020600020016000915091509054906101000a900473ffffffffffffffffffffffffffffffffffffffff1681565b60606000808373ffffffffffffffffffffffffffffffffffffffff1673ffffffffffffffffffffffffffffffffffffffff1681526020019081526020016000208054806020026020016040519081016040528092919081815260200182805480156200035a57602002820191906000526020600020905b8160009054906101000a900473ffffffffffffffffffffffffffffffffffffffff1673ffffffffffffffffffffffffffffffffffffffff16815260200190600101908083116200030f575b50505050509050919050565b60008060003373ffffffffffffffffffffffffffffffffffffffff1673ffffffffffffffffffffffffffffffffffffffff1681526020019081526020016000208054905011620003ed576040517f08c379a0000000000000000000000000000000000000000000000000000000008152600401620003e49062001002565b60405180910390fd5b8273ffffffffffffffffffffffffffffffffffffffff163073ffffffffffffffffffffffffffffffffffffffff167f9b80ee867189f7055a5862aa9548beeb8878c56c834514fb3165ef48446eb98884846040516200044e92919062001024565b60405180910390a3505050565b60008060003373ffffffffffffffffffffffffffffffffffffffff1673ffffffffffffffffffffffffffffffffffffffff1681526020019081526020016000208054905011620004e2576040517f08c379a0000000000000000000000000000000000000000000000000000000008152600401620004d99062001002565b60405180910390fd5b8273ffffffffffffffffffffffffffffffffffffffff163073ffffffffffffffffffffffffffffffffffffffff167f89f5adc174562e07c9c9b1cae7109bbecb21cf9d1b2847e550042b8653c54a0e84846040516200054392919062001024565b60405180910390a3505050565b60008060ff60f81b3084868051906020012060405160200162000577949392919062001146565b6040516020818303038152906040528051906020012090508060001c91505092915050565b60008060008373ffffffffffffffffffffffffffffffffffffffff1673ffffffffffffffffffffffffffffffffffffffff168152602001908152602001600020805490509050919050565b60008060003373ffffffffffffffffffffffffffffffffffffffff1673ffffffffffffffffffffffffffffffffffffffff16815260200190815260200160002080549050116200066e576040517f08c379a0000000000000000000000000000000000000000000000000000000008152600401620006659062001002565b60405180910390fd5b8273ffffffffffffffffffffffffffffffffffffffff163073ffffffffffffffffffffffffffffffffffffffff167fa082022e93cfcd9f1da5f9236718053910f7e840da080c789c7845698dc032ff8484604051620006cf92919062001024565b60405180910390a3505050565b6000806000803373ffffffffffffffffffffffffffffffffffffffff1673ffffffffffffffffffffffffffffffffffffffff1681526020019081526020016000208054905060001b8484306040516200073590620008e8565b6200074393929190620011e8565b8190604051809103906000f590508015801562000764573d6000803e3d6000fd5b5090506000803373ffffffffffffffffffffffffffffffffffffffff1673ffffffffffffffffffffffffffffffffffffffff168152602001908152602001600020819080600181540180825580915050600190039060005260206000200160009091909190916101000a81548173ffffffffffffffffffffffffffffffffffffffff021916908373ffffffffffffffffffffffffffffffffffffffff1602179055508073ffffffffffffffffffffffffffffffffffffffff163373ffffffffffffffffffffffffffffffffffffffff167fc24da6acf73e7364c8cfd875ecc71c2e3f2e5727ee65767d0605e14a1de7494960405160405180910390a38091505092915050565b60606000604051806020016200088090620008e8565b6020820181038252601f19601f82011660405250905080848430604051602001620008ae93929190620011e8565b604051602081830303815290604052604051602001620008d092919062001275565b60405160208183030381529060405291505092915050565b612e51806200129e83390190565b6000604051905090565b600080fd5b600080fd5b600073ffffffffffffffffffffffffffffffffffffffff82169050919050565b600062000937826200090a565b9050919050565b62000949816200092a565b81146200095557600080fd5b50565b60008135905062000969816200093e565b92915050565b6000819050919050565b62000984816200096f565b81146200099057600080fd5b50565b600081359050620009a48162000979565b92915050565b60008060408385031215620009c457620009c362000900565b5b6000620009d48582860162000958565b9250506020620009e78582860162000993565b9150509250929050565b620009fc816200092a565b82525050565b600060208201905062000a196000830184620009f1565b92915050565b60006020828403121562000a385762000a3762000900565b5b600062000a488482850162000958565b91505092915050565b600081519050919050565b600082825260208201905092915050565b6000819050602082019050919050565b62000a88816200092a565b82525050565b600062000a9c838362000a7d565b60208301905092915050565b6000602082019050919050565b600062000ac28262000a51565b62000ace818562000a5c565b935062000adb8362000a6d565b8060005b8381101562000b1257815162000af6888262000a8e565b975062000b038362000aa8565b92505060018101905062000adf565b5085935050505092915050565b6000602082019050818103600083015262000b3b818462000ab5565b905092915050565b60008060006060848603121562000b5f5762000b5e62000900565b5b600062000b6f8682870162000958565b935050602062000b828682870162000993565b925050604062000b958682870162000993565b9150509250925092565b600080fd5b600080fd5b6000601f19601f8301169050919050565b7f4e487b7100000000000000000000000000000000000000000000000000000000600052604160045260246000fd5b62000bf48262000ba9565b810181811067ffffffffffffffff8211171562000c165762000c1562000bba565b5b80604052505050565b600062000c2b620008f6565b905062000c39828262000be9565b919050565b600067ffffffffffffffff82111562000c5c5762000c5b62000bba565b5b62000c678262000ba9565b9050602081019050919050565b82818337600083830152505050565b600062000c9a62000c948462000c3e565b62000c1f565b90508281526020810184848401111562000cb95762000cb862000ba4565b5b62000cc684828562000c74565b509392505050565b600082601f83011262000ce65762000ce562000b9f565b5b813562000cf884826020860162000c83565b91505092915050565b6000806040838503121562000d1b5762000d1a62000900565b5b600083013567ffffffffffffffff81111562000d3c5762000d3b62000905565b5b62000d4a8582860162000cce565b925050602062000d5d8582860162000993565b9150509250929050565b62000d72816200096f565b82525050565b600060208201905062000d8f600083018462000d67565b92915050565b600067ffffffffffffffff82111562000db35762000db262000bba565b5b62000dbe8262000ba9565b9050602081019050919050565b600062000de262000ddc8462000d95565b62000c1f565b90508281526020810184848401111562000e015762000e0062000ba4565b5b62000e0e84828562000c74565b509392505050565b600082601f83011262000e2e5762000e2d62000b9f565b5b813562000e4084826020860162000dcb565b91505092915050565b6000806040838503121562000e635762000e6262000900565b5b600083013567ffffffffffffffff81111562000e845762000e8362000905565b5b62000e928582860162000e16565b925050602083013567ffffffffffffffff81111562000eb65762000eb562000905565b5b62000ec48582860162000e16565b9150509250929050565b600081519050919050565b600082825260208201905092915050565b60005b8381101562000f0a57808201518184015260208101905062000eed565b60008484015250505050565b600062000f238262000ece565b62000f2f818562000ed9565b935062000f4181856020860162000eea565b62000f4c8162000ba9565b840191505092915050565b6000602082019050818103600083015262000f73818462000f16565b905092915050565b600082825260208201905092915050565b7f4f6e6c792050756d706572546f6b656e2063616e2063616c6c2074686973206660008201527f756e6374696f6e00000000000000000000000000000000000000000000000000602082015250565b600062000fea60278362000f7b565b915062000ff78262000f8c565b604082019050919050565b600060208201905081810360008301526200101d8162000fdb565b9050919050565b60006040820190506200103b600083018562000d67565b6200104a602083018462000d67565b9392505050565b60007fff0000000000000000000000000000000000000000000000000000000000000082169050919050565b6000819050919050565b6200109c620010968262001051565b6200107d565b82525050565b60008160601b9050919050565b6000620010bc82620010a2565b9050919050565b6000620010d082620010af565b9050919050565b620010ec620010e6826200092a565b620010c3565b82525050565b6000819050919050565b620011116200110b826200096f565b620010f2565b82525050565b6000819050919050565b6000819050919050565b620011406200113a8262001117565b62001121565b82525050565b600062001154828762001087565b600182019150620011668286620010d7565b601482019150620011788285620010fc565b6020820191506200118a82846200112b565b60208201915081905095945050505050565b600081519050919050565b6000620011b4826200119c565b620011c0818562000f7b565b9350620011d281856020860162000eea565b620011dd8162000ba9565b840191505092915050565b60006060820190508181036000830152620012048186620011a7565b905081810360208301526200121a8185620011a7565b90506200122b6040830184620009f1565b949350505050565b600081905092915050565b60006200124b8262000ece565b62001257818562001233565b93506200126981856020860162000eea565b80840191505092915050565b60006200128382856200123e565b91506200129182846200123e565b9150819050939250505056fe6080604052678b78c5c0b8ad0000600755678ac7230489e80000600955731ccc7382d46313c24e1d13510b1c9445a792f4d4600d60006101000a81548173ffffffffffffffffffffffffffffffffffffffff021916908373ffffffffffffffffffffffffffffffffffffffff16021790555073b97582dcb6f2866098ca210095a04df3e11b76a6600e60006101000a81548173ffffffffffffffffffffffffffffffffffffffff021916908373ffffffffffffffffffffffffffffffffffffffff1602179055506000600e60146101000a81548160ff0219169083151502179055506000600f55348015620000f357600080fd5b5060405162002e5138038062002e518339818101604052810190620001199190620007c2565b33838381600390816200012d919062000aa7565b5080600490816200013f919062000aa7565b505050600073ffffffffffffffffffffffffffffffffffffffff168173ffffffffffffffffffffffffffffffffffffffff1603620001b75760006040517f1e4fbdf7000000000000000000000000000000000000000000000000000000008152600401620001ae919062000b9f565b60405180910390fd5b620001c8816200024760201b60201c565b506b033b2e3c9fd0803ce8000000600881905550620001f0306008546200030d60201b60201c565b60095460085402600a8190555080600c60006101000a81548173ffffffffffffffffffffffffffffffffffffffff021916908373ffffffffffffffffffffffffffffffffffffffff16021790555050505062000c91565b6000600560009054906101000a900473ffffffffffffffffffffffffffffffffffffffff16905081600560006101000a81548173ffffffffffffffffffffffffffffffffffffffff021916908373ffffffffffffffffffffffffffffffffffffffff1602179055508173ffffffffffffffffffffffffffffffffffffffff168173ffffffffffffffffffffffffffffffffffffffff167f8be0079c531659141344cd1fd0a4f28419497f9722a3daafe3b4186f6b6457e060405160405180910390a35050565b600073ffffffffffffffffffffffffffffffffffffffff168273ffffffffffffffffffffffffffffffffffffffff1603620003825760006040517fec442f0500000000000000000000000000000000000000000000000000000000815260040162000379919062000b9f565b60405180910390fd5b62000396600083836200039a60201b60201c565b5050565b600073ffffffffffffffffffffffffffffffffffffffff168373ffffffffffffffffffffffffffffffffffffffff1603620003f0578060026000828254620003e3919062000beb565b92505081905550620004c6565b60008060008573ffffffffffffffffffffffffffffffffffffffff1673ffffffffffffffffffffffffffffffffffffffff168152602001908152602001600020549050818110156200047f578381836040517fe450d38c000000000000000000000000000000000000000000000000000000008152600401620004769392919062000c37565b60405180910390fd5b8181036000808673ffffffffffffffffffffffffffffffffffffffff1673ffffffffffffffffffffffffffffffffffffffff16815260200190815260200160002081905550505b600073ffffffffffffffffffffffffffffffffffffffff168273ffffffffffffffffffffffffffffffffffffffff16036200051157806002600082825403925050819055506200055e565b806000808473ffffffffffffffffffffffffffffffffffffffff1673ffffffffffffffffffffffffffffffffffffffff168152602001908152602001600020600082825401925050819055505b8173ffffffffffffffffffffffffffffffffffffffff168373ffffffffffffffffffffffffffffffffffffffff167fddf252ad1be2c89b69c2b068fc378daa952ba7f163c4a11628f55a4df523b3ef83604051620005bd919062000c74565b60405180910390a3505050565b6000604051905090565b600080fd5b600080fd5b600080fd5b600080fd5b6000601f19601f8301169050919050565b7f4e487b7100000000000000000000000000000000000000000000000000000000600052604160045260246000fd5b6200063382620005e8565b810181811067ffffffffffffffff82111715620006555762000654620005f9565b5b80604052505050565b60006200066a620005ca565b905062000678828262000628565b919050565b600067ffffffffffffffff8211156200069b576200069a620005f9565b5b620006a682620005e8565b9050602081019050919050565b60005b83811015620006d3578082015181840152602081019050620006b6565b60008484015250505050565b6000620006f6620006f0846200067d565b6200065e565b905082815260208101848484011115620007155762000714620005e3565b5b62000722848285620006b3565b509392505050565b600082601f830112620007425762000741620005de565b5b815162000754848260208601620006df565b91505092915050565b600073ffffffffffffffffffffffffffffffffffffffff82169050919050565b60006200078a826200075d565b9050919050565b6200079c816200077d565b8114620007a857600080fd5b50565b600081519050620007bc8162000791565b92915050565b600080600060608486031215620007de57620007dd620005d4565b5b600084015167ffffffffffffffff811115620007ff57620007fe620005d9565b5b6200080d868287016200072a565b935050602084015167ffffffffffffffff811115620008315762000830620005d9565b5b6200083f868287016200072a565b92505060406200085286828701620007ab565b9150509250925092565b600081519050919050565b7f4e487b7100000000000000000000000000000000000000000000000000000000600052602260045260246000fd5b60006002820490506001821680620008af57607f821691505b602082108103620008c557620008c462000867565b5b50919050565b60008190508160005260206000209050919050565b60006020601f8301049050919050565b600082821b905092915050565b6000600883026200092f7fffffffffffffffffffffffffffffffffffffffffffffffffffffffffffffffff82620008f0565b6200093b8683620008f0565b95508019841693508086168417925050509392505050565b6000819050919050565b6000819050919050565b600062000988620009826200097c8462000953565b6200095d565b62000953565b9050919050565b6000819050919050565b620009a48362000967565b620009bc620009b3826200098f565b848454620008fd565b825550505050565b600090565b620009d3620009c4565b620009e081848462000999565b505050565b5b8181101562000a0857620009fc600082620009c9565b600181019050620009e6565b5050565b601f82111562000a575762000a2181620008cb565b62000a2c84620008e0565b8101602085101562000a3c578190505b62000a5462000a4b85620008e0565b830182620009e5565b50505b505050565b600082821c905092915050565b600062000a7c6000198460080262000a5c565b1980831691505092915050565b600062000a97838362000a69565b9150826002028217905092915050565b62000ab2826200085c565b67ffffffffffffffff81111562000ace5762000acd620005f9565b5b62000ada825462000896565b62000ae782828562000a0c565b600060209050601f83116001811462000b1f576000841562000b0a578287015190505b62000b16858262000a89565b86555062000b86565b601f19841662000b2f86620008cb565b60005b8281101562000b595784890151825560018201915060208501945060208101905062000b32565b8683101562000b79578489015162000b75601f89168262000a69565b8355505b6001600288020188555050505b505050505050565b62000b99816200077d565b82525050565b600060208201905062000bb6600083018462000b8e565b92915050565b7f4e487b7100000000000000000000000000000000000000000000000000000000600052601160045260246000fd5b600062000bf88262000953565b915062000c058362000953565b925082820190508082111562000c205762000c1f62000bbc565b5b92915050565b62000c318162000953565b82525050565b600060608201905062000c4e600083018662000b8e565b62000c5d602083018562000c26565b62000c6c604083018462000c26565b949350505050565b600060208201905062000c8b600083018462000c26565b92915050565b6121b08062000ca16000396000f3fe6080604052600436106101815760003560e01c80638da5cb5b116100d1578063b0db0e411161008a578063d3751e0311610064578063d3751e0314610569578063dd62ed3e146105a6578063f2fde38b146105e3578063f905c15a1461060c57610181565b8063b0db0e4114610509578063b4f40c6114610513578063bb24fe8a1461053e57610181565b80638da5cb5b146103e357806392a88fa21461040e5780639358928b1461044b57806395d89b4114610476578063a56dfe4a146104a1578063a9059cbb146104cc57610181565b806323b872dd1161013e57806343601eda1161011857806343601eda1461033d57806370a0823114610366578063715018a6146103a357806379cc6790146103ba57610181565b806323b872dd146102ac578063313ce567146102e957806342966c681461031457610181565b806306fdde0314610186578063095ea7b3146101b15780630c55699c146101ee57806312d697b61461021957806318160ddd1461024457806322d4a5b71461026f575b600080fd5b34801561019257600080fd5b5061019b610637565b6040516101a89190611a6e565b60405180910390f35b3480156101bd57600080fd5b506101d860048036038101906101d39190611b29565b6106c9565b6040516101e59190611b84565b60405180910390f35b3480156101fa57600080fd5b506102036106ec565b6040516102109190611bae565b60405180910390f35b34801561022557600080fd5b5061022e6106f2565b60405161023b9190611bae565b60405180910390f35b34801561025057600080fd5b506102596106f8565b6040516102669190611bae565b60405180910390f35b34801561027b57600080fd5b5061029660048036038101906102919190611bc9565b610702565b6040516102a39190611bae565b60405180910390f35b3480156102b857600080fd5b506102d360048036038101906102ce9190611bf6565b61072b565b6040516102e09190611b84565b60405180910390f35b3480156102f557600080fd5b506102fe61075a565b60405161030b9190611c65565b60405180910390f35b34801561032057600080fd5b5061033b60048036038101906103369190611bc9565b610763565b005b34801561034957600080fd5b50610364600480360381019061035f9190611bc9565b610777565b005b34801561037257600080fd5b5061038d60048036038101906103889190611c80565b6109be565b60405161039a9190611bae565b60405180910390f35b3480156103af57600080fd5b506103b8610a06565b005b3480156103c657600080fd5b506103e160048036038101906103dc9190611b29565b610a1a565b005b3480156103ef57600080fd5b506103f8610a3a565b6040516104059190611cbc565b60405180910390f35b34801561041a57600080fd5b5061043560048036038101906104309190611c80565b610a64565b6040516104429190611b84565b60405180910390f35b34801561045757600080fd5b50610460610a84565b60405161046d9190611bae565b60405180910390f35b34801561048257600080fd5b5061048b610a8a565b6040516104989190611a6e565b60405180910390f35b3480156104ad57600080fd5b506104b6610b1c565b6040516104c39190611bae565b60405180910390f35b3480156104d857600080fd5b506104f360048036038101906104ee9190611b29565b610b22565b6040516105009190611b84565b60405180910390f35b610511610b45565b005b34801561051f57600080fd5b50610528610d63565b6040516105359190611bae565b60405180910390f35b34801561054a57600080fd5b50610553610d69565b6040516105609190611a6e565b60405180910390f35b34801561057557600080fd5b50610590600480360381019061058b9190611bc9565b610da2565b60405161059d9190611bae565b60405180910390f35b3480156105b257600080fd5b506105cd60048036038101906105c89190611cd7565b610dcb565b6040516105da9190611bae565b60405180910390f35b3480156105ef57600080fd5b5061060a60048036038101906106059190611c80565b610e52565b005b34801561061857600080fd5b50610621610ed8565b60405161062e9190611b84565b60405180910390f35b60606003805461064690611d46565b80601f016020809104026020016040519081016040528092919081815260200182805461067290611d46565b80156106bf5780601f10610694576101008083540402835291602001916106bf565b820191906000526020600020905b8154815290600101906020018083116106a257829003601f168201915b5050505050905090565b6000806106d4610eeb565b90506106e1818585610ef3565b600191505092915050565b60085481565b60075481565b6000600254905090565b6000808260095401600a548161071b5761071a611d77565b5b0490508060085403915050919050565b600080610736610eeb565b9050610743858285610f05565b61074e858585610f99565b60019150509392505050565b60006012905090565b61077461076e610eeb565b8261108d565b50565b600081116107ba576040517f08c379a00000000000000000000000000000000000000000000000000000000081526004016107b190611df2565b60405180910390fd5b60001515600e60149054906101000a900460ff16151514610810576040517f08c379a000000000000000000000000000000000000000000000000000000000815260040161080790611e5e565b60405180910390fd5b600061081b82610da2565b90508160086000828254019250508190555080600960008282540392505081905550600c60009054906101000a900473ffffffffffffffffffffffffffffffffffffffff1673ffffffffffffffffffffffffffffffffffffffff1633838360405160240161088b93929190611e7e565b6040516020818303038152906040527f88ae3c6b000000000000000000000000000000000000000000000000000000007bffffffffffffffffffffffffffffffffffffffffffffffffffffffff19166020820180517bffffffffffffffffffffffffffffffffffffffffffffffffffffffff83818316178352505050506040516109159190611efc565b6000604051808303816000865af19150503d8060008114610952576040519150601f19603f3d011682016040523d82523d6000602084013e610957565b606091505b5050503373ffffffffffffffffffffffffffffffffffffffff166108fc829081150290604051600060405180830381858888f193505050501580156109a0573d6000803e3d6000fd5b5081600f60008282546109b39190611f42565b925050819055505050565b60008060008373ffffffffffffffffffffffffffffffffffffffff1673ffffffffffffffffffffffffffffffffffffffff168152602001908152602001600020549050919050565b610a0e61110f565b610a186000611196565b565b610a2c82610a26610eeb565b83610f05565b610a36828261108d565b5050565b6000600560009054906101000a900473ffffffffffffffffffffffffffffffffffffffff16905090565b60066020528060005260406000206000915054906101000a900460ff1681565b600f5481565b606060048054610a9990611d46565b80601f0160208091040260200160405190810160405280929190818152602001828054610ac590611d46565b8015610b125780601f10610ae757610100808354040283529160200191610b12565b820191906000526020600020905b815481529060010190602001808311610af557829003601f168201915b5050505050905090565b60095481565b600080610b2d610eeb565b9050610b3a818585610f99565b600191505092915050565b60003411610b88576040517f08c379a0000000000000000000000000000000000000000000000000000000008152600401610b7f90611df2565b60405180910390fd5b60001515600e60149054906101000a900460ff16151514610bde576040517f08c379a0000000000000000000000000000000000000000000000000000000008152600401610bd590611e5e565b60405180910390fd5b6000610be934610702565b9050346009600082825401925050819055508060086000828254039250508190555060075460095410610c1f57610c1e61125c565b5b600c60009054906101000a900473ffffffffffffffffffffffffffffffffffffffff1673ffffffffffffffffffffffffffffffffffffffff16338234604051602401610c6d93929190611e7e565b6040516020818303038152906040527f4e3f0a01000000000000000000000000000000000000000000000000000000007bffffffffffffffffffffffffffffffffffffffffffffffffffffffff19166020820180517bffffffffffffffffffffffffffffffffffffffffffffffffffffffff8381831617835250505050604051610cf79190611efc565b6000604051808303816000865af19150503d8060008114610d34576040519150601f19603f3d011682016040523d82523d6000602084013e610d39565b606091505b505050610d47303383610f99565b80600f6000828254610d599190611f76565b9250508190555050565b600a5481565b6040518060400160405280600b81526020017f50756d706572546f6b656e00000000000000000000000000000000000000000081525081565b6000808260085401600a5481610dbb57610dba611d77565b5b0490508060095403915050919050565b6000600160008473ffffffffffffffffffffffffffffffffffffffff1673ffffffffffffffffffffffffffffffffffffffff16815260200190815260200160002060008373ffffffffffffffffffffffffffffffffffffffff1673ffffffffffffffffffffffffffffffffffffffff16815260200190815260200160002054905092915050565b610e5a61110f565b600073ffffffffffffffffffffffffffffffffffffffff168173ffffffffffffffffffffffffffffffffffffffff1603610ecc5760006040517f1e4fbdf7000000000000000000000000000000000000000000000000000000008152600401610ec39190611cbc565b60405180910390fd5b610ed581611196565b50565b600e60149054906101000a900460ff1681565b600033905090565b610f0083838360016115bf565b505050565b6000610f118484610dcb565b90507fffffffffffffffffffffffffffffffffffffffffffffffffffffffffffffffff8114610f935781811015610f83578281836040517ffb8f41b2000000000000000000000000000000000000000000000000000000008152600401610f7a93929190611e7e565b60405180910390fd5b610f92848484840360006115bf565b5b50505050565b600073ffffffffffffffffffffffffffffffffffffffff168373ffffffffffffffffffffffffffffffffffffffff160361100b5760006040517f96c6fd1e0000000000000000000000000000000000000000000000000000000081526004016110029190611cbc565b60405180910390fd5b600073ffffffffffffffffffffffffffffffffffffffff168273ffffffffffffffffffffffffffffffffffffffff160361107d5760006040517fec442f050000000000000000000000000000000000000000000000000000000081526004016110749190611cbc565b60405180910390fd5b611088838383611796565b505050565b600073ffffffffffffffffffffffffffffffffffffffff168273ffffffffffffffffffffffffffffffffffffffff16036110ff5760006040517f96c6fd1e0000000000000000000000000000000000000000000000000000000081526004016110f69190611cbc565b60405180910390fd5b61110b82600083611796565b5050565b611117610eeb565b73ffffffffffffffffffffffffffffffffffffffff16611135610a3a565b73ffffffffffffffffffffffffffffffffffffffff161461119457611158610eeb565b6040517f118cdaa700000000000000000000000000000000000000000000000000000000815260040161118b9190611cbc565b60405180910390fd5b565b6000600560009054906101000a900473ffffffffffffffffffffffffffffffffffffffff16905081600560006101000a81548173ffffffffffffffffffffffffffffffffffffffff021916908373ffffffffffffffffffffffffffffffffffffffff1602179055508173ffffffffffffffffffffffffffffffffffffffff168173ffffffffffffffffffffffffffffffffffffffff167f8be0079c531659141344cd1fd0a4f28419497f9722a3daafe3b4186f6b6457e060405160405180910390a35050565b6000600d60009054906101000a900473ffffffffffffffffffffffffffffffffffffffff1673ffffffffffffffffffffffffffffffffffffffff1663171223dd73ffffffffffffffffffffffffffffffffffffffff60001b7feeeeeeeeeeeeeeeeeeeeeeeeeeeeeeeeeeeeeeeeeeeeeeeeeeeeeeeeeeeeeeee60001b166112e2306119bb565b6040518363ffffffff1660e01b81526004016112ff929190611fd5565b6020604051808303816000875af115801561131e573d6000803e3d6000fd5b505050506040513d601f19601f820116820180604052508101906113429190612013565b905061139130600e60009054906101000a900473ffffffffffffffffffffffffffffffffffffffff167fffffffffffffffffffffffffffffffffffffffffffffffffffffffffffffffff610ef3565b6000678ac7230489e800006009546113a99190611f42565b9050600e60009054906101000a900473ffffffffffffffffffffffffffffffffffffffff1673ffffffffffffffffffffffffffffffffffffffff16635a47ddc382306000804787600080307fffffffffffffffffffffffffffffffffffffffffffffffffffffffffffffffff6040518b63ffffffff1660e01b815260040161143999989796959493929190612085565b60606040518083038185885af1158015611457573d6000803e3d6000fd5b50505050506040513d601f19601f8201168201806040525081019061147c9190612127565b505050600c60009054906101000a900473ffffffffffffffffffffffffffffffffffffffff1673ffffffffffffffffffffffffffffffffffffffff16826008546009546040516024016114d193929190611e7e565b6040516020818303038152906040527f4a7c974b000000000000000000000000000000000000000000000000000000007bffffffffffffffffffffffffffffffffffffffffffffffffffffffff19166020820180517bffffffffffffffffffffffffffffffffffffffffffffffffffffffff838183161783525050505060405161155b9190611efc565b6000604051808303816000865af19150503d8060008114611598576040519150601f19603f3d011682016040523d82523d6000602084013e61159d565b606091505b5050506001600e60146101000a81548160ff0219169083151502179055505050565b600073ffffffffffffffffffffffffffffffffffffffff168473ffffffffffffffffffffffffffffffffffffffff16036116315760006040517fe602df050000000000000000000000000000000000000000000000000000000081526004016116289190611cbc565b60405180910390fd5b600073ffffffffffffffffffffffffffffffffffffffff168373ffffffffffffffffffffffffffffffffffffffff16036116a35760006040517f94280d6200000000000000000000000000000000000000000000000000000000815260040161169a9190611cbc565b60405180910390fd5b81600160008673ffffffffffffffffffffffffffffffffffffffff1673ffffffffffffffffffffffffffffffffffffffff16815260200190815260200160002060008573ffffffffffffffffffffffffffffffffffffffff1673ffffffffffffffffffffffffffffffffffffffff168152602001908152602001600020819055508015611790578273ffffffffffffffffffffffffffffffffffffffff168473ffffffffffffffffffffffffffffffffffffffff167f8c5be1e5ebec7d5bd14f71427d1e84f3dd0314c0f7b2291e5b200ac8c7c3b925846040516117879190611bae565b60405180910390a35b50505050565b600073ffffffffffffffffffffffffffffffffffffffff168373ffffffffffffffffffffffffffffffffffffffff16036117e85780600260008282546117dc9190611f76565b925050819055506118bb565b60008060008573ffffffffffffffffffffffffffffffffffffffff1673ffffffffffffffffffffffffffffffffffffffff16815260200190815260200160002054905081811015611874578381836040517fe450d38c00000000000000000000000000000000000000000000000000000000815260040161186b93929190611e7e565b60405180910390fd5b8181036000808673ffffffffffffffffffffffffffffffffffffffff1673ffffffffffffffffffffffffffffffffffffffff16815260200190815260200160002081905550505b600073ffffffffffffffffffffffffffffffffffffffff168273ffffffffffffffffffffffffffffffffffffffff16036119045780600260008282540392505081905550611951565b806000808473ffffffffffffffffffffffffffffffffffffffff1673ffffffffffffffffffffffffffffffffffffffff168152602001908152602001600020600082825401925050819055505b8173ffffffffffffffffffffffffffffffffffffffff168373ffffffffffffffffffffffffffffffffffffffff167fddf252ad1be2c89b69c2b068fc378daa952ba7f163c4a11628f55a4df523b3ef836040516119ae9190611bae565b60405180910390a3505050565b60008173ffffffffffffffffffffffffffffffffffffffff1660001b9050919050565b600081519050919050565b600082825260208201905092915050565b60005b83811015611a185780820151818401526020810190506119fd565b60008484015250505050565b6000601f19601f8301169050919050565b6000611a40826119de565b611a4a81856119e9565b9350611a5a8185602086016119fa565b611a6381611a24565b840191505092915050565b60006020820190508181036000830152611a888184611a35565b905092915050565b600080fd5b600073ffffffffffffffffffffffffffffffffffffffff82169050919050565b6000611ac082611a95565b9050919050565b611ad081611ab5565b8114611adb57600080fd5b50565b600081359050611aed81611ac7565b92915050565b6000819050919050565b611b0681611af3565b8114611b1157600080fd5b50565b600081359050611b2381611afd565b92915050565b60008060408385031215611b4057611b3f611a90565b5b6000611b4e85828601611ade565b9250506020611b5f85828601611b14565b9150509250929050565b60008115159050919050565b611b7e81611b69565b82525050565b6000602082019050611b996000830184611b75565b92915050565b611ba881611af3565b82525050565b6000602082019050611bc36000830184611b9f565b92915050565b600060208284031215611bdf57611bde611a90565b5b6000611bed84828501611b14565b91505092915050565b600080600060608486031215611c0f57611c0e611a90565b5b6000611c1d86828701611ade565b9350506020611c2e86828701611ade565b9250506040611c3f86828701611b14565b9150509250925092565b600060ff82169050919050565b611c5f81611c49565b82525050565b6000602082019050611c7a6000830184611c56565b92915050565b600060208284031215611c9657611c95611a90565b5b6000611ca484828501611ade565b91505092915050565b611cb681611ab5565b82525050565b6000602082019050611cd16000830184611cad565b92915050565b60008060408385031215611cee57611ced611a90565b5b6000611cfc85828601611ade565b9250506020611d0d85828601611ade565b9150509250929050565b7f4e487b7100000000000000000000000000000000000000000000000000000000600052602260045260246000fd5b60006002820490506001821680611d5e57607f821691505b602082108103611d7157611d70611d17565b5b50919050565b7f4e487b7100000000000000000000000000000000000000000000000000000000600052601260045260246000fd5b7f496e76616c696420616d6f756e74000000000000000000000000000000000000600082015250565b6000611ddc600e836119e9565b9150611de782611da6565b602082019050919050565b60006020820190508181036000830152611e0b81611dcf565b9050919050565b7f4c697175696469747920616c7265616479206465706c6f796564000000000000600082015250565b6000611e48601a836119e9565b9150611e5382611e12565b602082019050919050565b60006020820190508181036000830152611e7781611e3b565b9050919050565b6000606082019050611e936000830186611cad565b611ea06020830185611b9f565b611ead6040830184611b9f565b949350505050565b600081519050919050565b600081905092915050565b6000611ed682611eb5565b611ee08185611ec0565b9350611ef08185602086016119fa565b80840191505092915050565b6000611f088284611ecb565b915081905092915050565b7f4e487b7100000000000000000000000000000000000000000000000000000000600052601160045260246000fd5b6000611f4d82611af3565b9150611f5883611af3565b9250828203905081811115611f7057611f6f611f13565b5b92915050565b6000611f8182611af3565b9150611f8c83611af3565b9250828201905080821115611fa457611fa3611f13565b5b92915050565b6000819050919050565b6000611fbf82611faa565b9050919050565b611fcf81611fb4565b82525050565b6000604082019050611fea6000830185611fc6565b611ff76020830184611fc6565b9392505050565b60008151905061200d81611ac7565b92915050565b60006020828403121561202957612028611a90565b5b600061203784828501611ffe565b91505092915050565b6000819050919050565b6000819050919050565b600061206f61206a61206584612040565b61204a565b611af3565b9050919050565b61207f81612054565b82525050565b60006101208201905061209b600083018c611cad565b6120a8602083018b611cad565b6120b5604083018a611b75565b6120c26060830189611b9f565b6120cf6080830188611b9f565b6120dc60a0830187612076565b6120e960c0830186612076565b6120f660e0830185611cad565b612104610100830184611b9f565b9a9950505050505050505050565b60008151905061212181611afd565b92915050565b6000806000606084860312156121405761213f611a90565b5b600061214e86828701612112565b935050602061215f86828701612112565b925050604061217086828701612112565b915050925092509256fea2646970667358221220b1f4432f451f298735657ca061ac3e37554c744ddd3597cc0fd09f37b08199b864736f6c63430008180033a2646970667358221220056430e2037c1ab4cac1485b74626e55b35e3fd2b6ec71ebca1e9588244056b664736f6c63430008180033",
  "linkReferences": {},
  "deployedLinkReferences": {}
}