{
  "_format": "hh-sol-artifact-1",
  "contractName": "PumperFactory",
  "sourceName": "contracts/PumperFactory.sol",
  "abi": [
    {
      "anonymous": false,
      "inputs": [
        {
          "indexed": true,
          "internalType": "address",
          "name": "buyer",
          "type": "address"
        },
        {
          "indexed": false,
          "internalType": "uint256",
          "name": "amount",
          "type": "uint256"
        },
        {
          "indexed": false,
          "internalType": "uint256",
          "name": "price",
          "type": "uint256"
        }
      ],
      "name": "Buy",
      "type": "event"
    },
    {
      "anonymous": false,
      "inputs": [
        {
          "indexed": true,
          "internalType": "address",
          "name": "pool",
          "type": "address"
        },
        {
          "indexed": false,
          "internalType": "uint256",
          "name": "x",
          "type": "uint256"
        },
        {
          "indexed": false,
          "internalType": "uint256",
          "name": "y",
          "type": "uint256"
        }
      ],
      "name": "LiquidtyDeployed",
      "type": "event"
    },
    {
      "anonymous": false,
      "inputs": [
        {
          "indexed": true,
          "internalType": "address",
          "name": "seller",
          "type": "address"
        },
        {
          "indexed": false,
          "internalType": "uint256",
          "name": "amount",
          "type": "uint256"
        },
        {
          "indexed": false,
          "internalType": "uint256",
          "name": "price",
          "type": "uint256"
        }
      ],
      "name": "Sell",
      "type": "event"
    },
    {
      "inputs": [
        {
          "internalType": "string",
          "name": "name",
          "type": "string"
        },
        {
          "internalType": "string",
          "name": "symbol",
          "type": "string"
        }
      ],
      "name": "createPumpToken",
      "outputs": [],
      "stateMutability": "nonpayable",
      "type": "function"
    },
    {
      "inputs": [
        {
          "internalType": "address",
          "name": "",
          "type": "address"
        },
        {
          "internalType": "uint256",
          "name": "",
          "type": "uint256"
        }
      ],
      "name": "deployedPumpTokens",
      "outputs": [
        {
          "internalType": "address",
          "name": "",
          "type": "address"
        }
      ],
      "stateMutability": "view",
      "type": "function"
    },
    {
      "inputs": [
        {
          "internalType": "address",
          "name": "buyer",
          "type": "address"
        },
        {
          "internalType": "uint256",
          "name": "amount",
          "type": "uint256"
        },
        {
          "internalType": "uint256",
          "name": "price",
          "type": "uint256"
        }
      ],
      "name": "emitBuy",
      "outputs": [],
      "stateMutability": "nonpayable",
      "type": "function"
    },
    {
      "inputs": [
        {
          "internalType": "address",
          "name": "pool",
          "type": "address"
        },
        {
          "internalType": "uint256",
          "name": "x",
          "type": "uint256"
        },
        {
          "internalType": "uint256",
          "name": "y",
          "type": "uint256"
        }
      ],
      "name": "emitLiquidtyDeployed",
      "outputs": [],
      "stateMutability": "nonpayable",
      "type": "function"
    },
    {
      "inputs": [
        {
          "internalType": "address",
          "name": "seller",
          "type": "address"
        },
        {
          "internalType": "uint256",
          "name": "amount",
          "type": "uint256"
        },
        {
          "internalType": "uint256",
          "name": "price",
          "type": "uint256"
        }
      ],
      "name": "emitSell",
      "outputs": [],
      "stateMutability": "nonpayable",
      "type": "function"
    },
    {
      "inputs": [],
      "name": "getDeployedPumpTokens",
      "outputs": [
        {
          "internalType": "address[]",
          "name": "",
          "type": "address[]"
        }
      ],
      "stateMutability": "view",
      "type": "function"
    }
  ],
  "bytecode": "0x608060405234801561001057600080fd5b506134d3806100206000396000f3fe60806040523480156200001157600080fd5b50600436106200006a5760003560e01c80630bb88981146200006f5780631b00769914620000915780634a7c974b14620000c75780634e3f0a0114620000e757806388ae3c6b1462000107578063a286cb1e1462000127575b600080fd5b6200007962000147565b6040516200008891906200055c565b60405180910390f35b620000af6004803603810190620000a9919062000600565b62000213565b604051620000be919062000658565b60405180910390f35b620000e56004803603810190620000df919062000675565b62000262565b005b620001056004803603810190620000ff919062000675565b620002b9565b005b6200012560048036038101906200011f919062000675565b62000310565b005b6200014560048036038101906200013f919062000833565b62000367565b005b60606000803373ffffffffffffffffffffffffffffffffffffffff1673ffffffffffffffffffffffffffffffffffffffff1681526020019081526020016000208054806020026020016040519081016040528092919081815260200182805480156200020957602002820191906000526020600020905b8160009054906101000a900473ffffffffffffffffffffffffffffffffffffffff1673ffffffffffffffffffffffffffffffffffffffff1681526020019060010190808311620001be575b5050505050905090565b600060205281600052604060002081815481106200023057600080fd5b906000526020600020016000915091509054906101000a900473ffffffffffffffffffffffffffffffffffffffff1681565b8273ffffffffffffffffffffffffffffffffffffffff167f27b0834474dc0d53a72607948a7009a1c42dd5af9ff46bbe01284e407e3750ee8383604051620002ac929190620008c9565b60405180910390a2505050565b8273ffffffffffffffffffffffffffffffffffffffff167f1cbc5ab135991bd2b6a4b034a04aa2aa086dac1371cb9b16b8b5e2ed6b036bed838360405162000303929190620008c9565b60405180910390a2505050565b8273ffffffffffffffffffffffffffffffffffffffff167fed7a144fad14804d5c249145e3e0e2b63a9eb455b76aee5bc92d711e9bba3e4a83836040516200035a929190620008c9565b60405180910390a2505050565b60008282306040516200037a906200044c565b62000388939291906200097f565b604051809103906000f080158015620003a5573d6000803e3d6000fd5b5090506000803373ffffffffffffffffffffffffffffffffffffffff1673ffffffffffffffffffffffffffffffffffffffff168152602001908152602001600020819080600181540180825580915050600190039060005260206000200160009091909190916101000a81548173ffffffffffffffffffffffffffffffffffffffff021916908373ffffffffffffffffffffffffffffffffffffffff160217905550505050565b612ad380620009cb83390190565b600081519050919050565b600082825260208201905092915050565b6000819050602082019050919050565b600073ffffffffffffffffffffffffffffffffffffffff82169050919050565b6000620004b38262000486565b9050919050565b620004c581620004a6565b82525050565b6000620004d98383620004ba565b60208301905092915050565b6000602082019050919050565b6000620004ff826200045a565b6200050b818562000465565b9350620005188362000476565b8060005b838110156200054f578151620005338882620004cb565b97506200054083620004e5565b9250506001810190506200051c565b5085935050505092915050565b60006020820190508181036000830152620005788184620004f2565b905092915050565b6000604051905090565b600080fd5b600080fd5b6200059f81620004a6565b8114620005ab57600080fd5b50565b600081359050620005bf8162000594565b92915050565b6000819050919050565b620005da81620005c5565b8114620005e657600080fd5b50565b600081359050620005fa81620005cf565b92915050565b600080604083850312156200061a57620006196200058a565b5b60006200062a85828601620005ae565b92505060206200063d85828601620005e9565b9150509250929050565b6200065281620004a6565b82525050565b60006020820190506200066f600083018462000647565b92915050565b6000806000606084860312156200069157620006906200058a565b5b6000620006a186828701620005ae565b9350506020620006b486828701620005e9565b9250506040620006c786828701620005e9565b9150509250925092565b600080fd5b600080fd5b6000601f19601f8301169050919050565b7f4e487b7100000000000000000000000000000000000000000000000000000000600052604160045260246000fd5b6200072682620006db565b810181811067ffffffffffffffff82111715620007485762000747620006ec565b5b80604052505050565b60006200075d62000580565b90506200076b82826200071b565b919050565b600067ffffffffffffffff8211156200078e576200078d620006ec565b5b6200079982620006db565b9050602081019050919050565b82818337600083830152505050565b6000620007cc620007c68462000770565b62000751565b905082815260208101848484011115620007eb57620007ea620006d6565b5b620007f8848285620007a6565b509392505050565b600082601f830112620008185762000817620006d1565b5b81356200082a848260208601620007b5565b91505092915050565b600080604083850312156200084d576200084c6200058a565b5b600083013567ffffffffffffffff8111156200086e576200086d6200058f565b5b6200087c8582860162000800565b925050602083013567ffffffffffffffff811115620008a0576200089f6200058f565b5b620008ae8582860162000800565b9150509250929050565b620008c381620005c5565b82525050565b6000604082019050620008e06000830185620008b8565b620008ef6020830184620008b8565b9392505050565b600081519050919050565b600082825260208201905092915050565b60005b838110156200093257808201518184015260208101905062000915565b60008484015250505050565b60006200094b82620008f6565b62000957818562000901565b93506200096981856020860162000912565b6200097481620006db565b840191505092915050565b600060608201905081810360008301526200099b81866200093e565b90508181036020830152620009b181856200093e565b9050620009c2604083018462000647565b94935050505056fe608060405267016345785d8a0000600755633b9aca00600955731c9f7def9b509d0d64a2adce6f73f235147ab7f1600d60006101000a81548173ffffffffffffffffffffffffffffffffffffffff021916908373ffffffffffffffffffffffffffffffffffffffff16021790555073b97582dcb6f2866098ca210095a04df3e11b76a6600e60006101000a81548173ffffffffffffffffffffffffffffffffffffffff021916908373ffffffffffffffffffffffffffffffffffffffff160217905550348015620000cf57600080fd5b5060405162002ad338038062002ad38339818101604052810190620000f59190620007a9565b338383816003908162000109919062000a8e565b5080600490816200011b919062000a8e565b505050600073ffffffffffffffffffffffffffffffffffffffff168173ffffffffffffffffffffffffffffffffffffffff1603620001935760006040517f1e4fbdf70000000000000000000000000000000000000000000000000000000081526004016200018a919062000b86565b60405180910390fd5b620001a4816200022e60201b60201c565b506b033b2e3c9fd0803ce8000000600881905550620001cc30600854620002f460201b60201c565b600954600854620001de919062000bd2565b600a8190555080600c60006101000a81548173ffffffffffffffffffffffffffffffffffffffff021916908373ffffffffffffffffffffffffffffffffffffffff16021790555050505062000cc3565b6000600560009054906101000a900473ffffffffffffffffffffffffffffffffffffffff16905081600560006101000a81548173ffffffffffffffffffffffffffffffffffffffff021916908373ffffffffffffffffffffffffffffffffffffffff1602179055508173ffffffffffffffffffffffffffffffffffffffff168173ffffffffffffffffffffffffffffffffffffffff167f8be0079c531659141344cd1fd0a4f28419497f9722a3daafe3b4186f6b6457e060405160405180910390a35050565b600073ffffffffffffffffffffffffffffffffffffffff168273ffffffffffffffffffffffffffffffffffffffff1603620003695760006040517fec442f0500000000000000000000000000000000000000000000000000000000815260040162000360919062000b86565b60405180910390fd5b6200037d600083836200038160201b60201c565b5050565b600073ffffffffffffffffffffffffffffffffffffffff168373ffffffffffffffffffffffffffffffffffffffff1603620003d7578060026000828254620003ca919062000c1d565b92505081905550620004ad565b60008060008573ffffffffffffffffffffffffffffffffffffffff1673ffffffffffffffffffffffffffffffffffffffff1681526020019081526020016000205490508181101562000466578381836040517fe450d38c0000000000000000000000000000000000000000000000000000000081526004016200045d9392919062000c69565b60405180910390fd5b8181036000808673ffffffffffffffffffffffffffffffffffffffff1673ffffffffffffffffffffffffffffffffffffffff16815260200190815260200160002081905550505b600073ffffffffffffffffffffffffffffffffffffffff168273ffffffffffffffffffffffffffffffffffffffff1603620004f8578060026000828254039250508190555062000545565b806000808473ffffffffffffffffffffffffffffffffffffffff1673ffffffffffffffffffffffffffffffffffffffff168152602001908152602001600020600082825401925050819055505b8173ffffffffffffffffffffffffffffffffffffffff168373ffffffffffffffffffffffffffffffffffffffff167fddf252ad1be2c89b69c2b068fc378daa952ba7f163c4a11628f55a4df523b3ef83604051620005a4919062000ca6565b60405180910390a3505050565b6000604051905090565b600080fd5b600080fd5b600080fd5b600080fd5b6000601f19601f8301169050919050565b7f4e487b7100000000000000000000000000000000000000000000000000000000600052604160045260246000fd5b6200061a82620005cf565b810181811067ffffffffffffffff821117156200063c576200063b620005e0565b5b80604052505050565b600062000651620005b1565b90506200065f82826200060f565b919050565b600067ffffffffffffffff821115620006825762000681620005e0565b5b6200068d82620005cf565b9050602081019050919050565b60005b83811015620006ba5780820151818401526020810190506200069d565b60008484015250505050565b6000620006dd620006d78462000664565b62000645565b905082815260208101848484011115620006fc57620006fb620005ca565b5b620007098482856200069a565b509392505050565b600082601f830112620007295762000728620005c5565b5b81516200073b848260208601620006c6565b91505092915050565b600073ffffffffffffffffffffffffffffffffffffffff82169050919050565b6000620007718262000744565b9050919050565b620007838162000764565b81146200078f57600080fd5b50565b600081519050620007a38162000778565b92915050565b600080600060608486031215620007c557620007c4620005bb565b5b600084015167ffffffffffffffff811115620007e657620007e5620005c0565b5b620007f48682870162000711565b935050602084015167ffffffffffffffff811115620008185762000817620005c0565b5b620008268682870162000711565b9250506040620008398682870162000792565b9150509250925092565b600081519050919050565b7f4e487b7100000000000000000000000000000000000000000000000000000000600052602260045260246000fd5b600060028204905060018216806200089657607f821691505b602082108103620008ac57620008ab6200084e565b5b50919050565b60008190508160005260206000209050919050565b60006020601f8301049050919050565b600082821b905092915050565b600060088302620009167fffffffffffffffffffffffffffffffffffffffffffffffffffffffffffffffff82620008d7565b620009228683620008d7565b95508019841693508086168417925050509392505050565b6000819050919050565b6000819050919050565b60006200096f6200096962000963846200093a565b62000944565b6200093a565b9050919050565b6000819050919050565b6200098b836200094e565b620009a36200099a8262000976565b848454620008e4565b825550505050565b600090565b620009ba620009ab565b620009c781848462000980565b505050565b5b81811015620009ef57620009e3600082620009b0565b600181019050620009cd565b5050565b601f82111562000a3e5762000a0881620008b2565b62000a1384620008c7565b8101602085101562000a23578190505b62000a3b62000a3285620008c7565b830182620009cc565b50505b505050565b600082821c905092915050565b600062000a636000198460080262000a43565b1980831691505092915050565b600062000a7e838362000a50565b9150826002028217905092915050565b62000a998262000843565b67ffffffffffffffff81111562000ab55762000ab4620005e0565b5b62000ac182546200087d565b62000ace828285620009f3565b600060209050601f83116001811462000b06576000841562000af1578287015190505b62000afd858262000a70565b86555062000b6d565b601f19841662000b1686620008b2565b60005b8281101562000b405784890151825560018201915060208501945060208101905062000b19565b8683101562000b60578489015162000b5c601f89168262000a50565b8355505b6001600288020188555050505b505050505050565b62000b808162000764565b82525050565b600060208201905062000b9d600083018462000b75565b92915050565b7f4e487b7100000000000000000000000000000000000000000000000000000000600052601160045260246000fd5b600062000bdf826200093a565b915062000bec836200093a565b925082820262000bfc816200093a565b9150828204841483151762000c165762000c1562000ba3565b5b5092915050565b600062000c2a826200093a565b915062000c37836200093a565b925082820190508082111562000c525762000c5162000ba3565b5b92915050565b62000c63816200093a565b82525050565b600060608201905062000c80600083018662000b75565b62000c8f602083018562000c58565b62000c9e604083018462000c58565b949350505050565b600060208201905062000cbd600083018462000c58565b92915050565b611e008062000cd36000396000f3fe6080604052600436106101405760003560e01c806370a08231116100b6578063a56dfe4a1161006f578063a56dfe4a14610472578063a9059cbb1461049d578063b0db0e41146104da578063b4f40c61146104e4578063dd62ed3e1461050f578063f2fde38b1461054c57610140565b806370a0823114610362578063715018a61461039f57806379cc6790146103b65780638da5cb5b146103df57806392a88fa21461040a57806395d89b411461044757610140565b806318160ddd1161010857806318160ddd1461024057806323b872dd1461026b578063313ce567146102a857806342966c68146102d357806343601eda146102fc57806348768b981461032557610140565b806306fdde0314610145578063095ea7b3146101705780630c55699c146101ad57806312d697b6146101d857806314e5f59214610203575b600080fd5b34801561015157600080fd5b5061015a610575565b604051610167919061171c565b60405180910390f35b34801561017c57600080fd5b50610197600480360381019061019291906117d7565b610607565b6040516101a49190611832565b60405180910390f35b3480156101b957600080fd5b506101c261062a565b6040516101cf919061185c565b60405180910390f35b3480156101e457600080fd5b506101ed610630565b6040516101fa919061185c565b60405180910390f35b34801561020f57600080fd5b5061022a60048036038101906102259190611877565b610636565b604051610237919061185c565b60405180910390f35b34801561024c57600080fd5b50610255610648565b604051610262919061185c565b60405180910390f35b34801561027757600080fd5b50610292600480360381019061028d91906118a4565b610652565b60405161029f9190611832565b60405180910390f35b3480156102b457600080fd5b506102bd610681565b6040516102ca9190611913565b60405180910390f35b3480156102df57600080fd5b506102fa60048036038101906102f59190611877565b61068a565b005b34801561030857600080fd5b50610323600480360381019061031e9190611877565b61069e565b005b34801561033157600080fd5b5061034c60048036038101906103479190611877565b610849565b604051610359919061185c565b60405180910390f35b34801561036e57600080fd5b506103896004803603810190610384919061192e565b61085b565b604051610396919061185c565b60405180910390f35b3480156103ab57600080fd5b506103b46108a3565b005b3480156103c257600080fd5b506103dd60048036038101906103d891906117d7565b6108b7565b005b3480156103eb57600080fd5b506103f46108d7565b604051610401919061196a565b60405180910390f35b34801561041657600080fd5b50610431600480360381019061042c919061192e565b610901565b60405161043e9190611832565b60405180910390f35b34801561045357600080fd5b5061045c610921565b604051610469919061171c565b60405180910390f35b34801561047e57600080fd5b506104876109b3565b604051610494919061185c565b60405180910390f35b3480156104a957600080fd5b506104c460048036038101906104bf91906117d7565b6109b9565b6040516104d19190611832565b60405180910390f35b6104e26109dc565b005b3480156104f057600080fd5b506104f9610b07565b604051610506919061185c565b60405180910390f35b34801561051b57600080fd5b5061053660048036038101906105319190611985565b610b0d565b604051610543919061185c565b60405180910390f35b34801561055857600080fd5b50610573600480360381019061056e919061192e565b610b94565b005b606060038054610584906119f4565b80601f01602080910402602001604051908101604052809291908181526020018280546105b0906119f4565b80156105fd5780601f106105d2576101008083540402835291602001916105fd565b820191906000526020600020905b8154815290600101906020018083116105e057829003601f168201915b5050505050905090565b600080610612610c1a565b905061061f818585610c22565b600191505092915050565b60085481565b60075481565b600061064182610c34565b9050919050565b6000600254905090565b60008061065d610c1a565b905061066a858285610c54565b610675858585610ce8565b60019150509392505050565b60006012905090565b61069b610695610c1a565b82610ddc565b50565b600081116106e1576040517f08c379a00000000000000000000000000000000000000000000000000000000081526004016106d890611a71565b60405180910390fd5b60006106ec82610c34565b9050816106f83361085b565b1015610739576040517f08c379a000000000000000000000000000000000000000000000000000000000815260040161073090611add565b60405180910390fd5b610744333084610652565b50806008546107539190611b2c565b600881905550816009546107679190611b60565b6009819055503373ffffffffffffffffffffffffffffffffffffffff166108fc829081150290604051600060405180830381858888f193505050501580156107b3573d6000803e3d6000fd5b50600c60009054906101000a900473ffffffffffffffffffffffffffffffffffffffff1673ffffffffffffffffffffffffffffffffffffffff166388ae3c6b3384846040518463ffffffff1660e01b815260040161081393929190611b94565b600060405180830381600087803b15801561082d57600080fd5b505af1158015610841573d6000803e3d6000fd5b505050505050565b600061085482610e5e565b9050919050565b60008060008373ffffffffffffffffffffffffffffffffffffffff1673ffffffffffffffffffffffffffffffffffffffff168152602001908152602001600020549050919050565b6108ab610e7e565b6108b56000610f05565b565b6108c9826108c3610c1a565b83610c54565b6108d38282610ddc565b5050565b6000600560009054906101000a900473ffffffffffffffffffffffffffffffffffffffff16905090565b60066020528060005260406000206000915054906101000a900460ff1681565b606060048054610930906119f4565b80601f016020809104026020016040519081016040528092919081815260200182805461095c906119f4565b80156109a95780601f1061097e576101008083540402835291602001916109a9565b820191906000526020600020905b81548152906001019060200180831161098c57829003601f168201915b5050505050905090565b60095481565b6000806109c4610c1a565b90506109d1818585610ce8565b600191505092915050565b60003411610a1f576040517f08c379a0000000000000000000000000000000000000000000000000000000008152600401610a1690611a71565b60405180910390fd5b6000610a2a34610e5e565b9050610a3633826109b9565b5080600854610a459190611b60565b60088190555034600954610a599190611b2c565b60098190555060075460095410610a7357610a72610fcb565b5b600c60009054906101000a900473ffffffffffffffffffffffffffffffffffffffff1673ffffffffffffffffffffffffffffffffffffffff16634e3f0a013383346040518463ffffffff1660e01b8152600401610ad293929190611b94565b600060405180830381600087803b158015610aec57600080fd5b505af1158015610b00573d6000803e3d6000fd5b5050505050565b600a5481565b6000600160008473ffffffffffffffffffffffffffffffffffffffff1673ffffffffffffffffffffffffffffffffffffffff16815260200190815260200160002060008373ffffffffffffffffffffffffffffffffffffffff1673ffffffffffffffffffffffffffffffffffffffff16815260200190815260200160002054905092915050565b610b9c610e7e565b600073ffffffffffffffffffffffffffffffffffffffff168173ffffffffffffffffffffffffffffffffffffffff1603610c0e5760006040517f1e4fbdf7000000000000000000000000000000000000000000000000000000008152600401610c05919061196a565b60405180910390fd5b610c1781610f05565b50565b600033905090565b610c2f838383600161126d565b505050565b600081600854600a5481610c4b57610c4a611bcb565b5b04029050919050565b6000610c608484610b0d565b90507fffffffffffffffffffffffffffffffffffffffffffffffffffffffffffffffff8114610ce25781811015610cd2578281836040517ffb8f41b2000000000000000000000000000000000000000000000000000000008152600401610cc993929190611b94565b60405180910390fd5b610ce18484848403600061126d565b5b50505050565b600073ffffffffffffffffffffffffffffffffffffffff168373ffffffffffffffffffffffffffffffffffffffff1603610d5a5760006040517f96c6fd1e000000000000000000000000000000000000000000000000000000008152600401610d51919061196a565b60405180910390fd5b600073ffffffffffffffffffffffffffffffffffffffff168273ffffffffffffffffffffffffffffffffffffffff1603610dcc5760006040517fec442f05000000000000000000000000000000000000000000000000000000008152600401610dc3919061196a565b60405180910390fd5b610dd7838383611444565b505050565b600073ffffffffffffffffffffffffffffffffffffffff168273ffffffffffffffffffffffffffffffffffffffff1603610e4e5760006040517f96c6fd1e000000000000000000000000000000000000000000000000000000008152600401610e45919061196a565b60405180910390fd5b610e5a82600083611444565b5050565b600081600954600a5481610e7557610e74611bcb565b5b04029050919050565b610e86610c1a565b73ffffffffffffffffffffffffffffffffffffffff16610ea46108d7565b73ffffffffffffffffffffffffffffffffffffffff1614610f0357610ec7610c1a565b6040517f118cdaa7000000000000000000000000000000000000000000000000000000008152600401610efa919061196a565b60405180910390fd5b565b6000600560009054906101000a900473ffffffffffffffffffffffffffffffffffffffff16905081600560006101000a81548173ffffffffffffffffffffffffffffffffffffffff021916908373ffffffffffffffffffffffffffffffffffffffff1602179055508173ffffffffffffffffffffffffffffffffffffffff168173ffffffffffffffffffffffffffffffffffffffff167f8be0079c531659141344cd1fd0a4f28419497f9722a3daafe3b4186f6b6457e060405160405180910390a35050565b600d60009054906101000a900473ffffffffffffffffffffffffffffffffffffffff1673ffffffffffffffffffffffffffffffffffffffff1663171223dd73ffffffffffffffffffffffffffffffffffffffff60001b7feeeeeeeeeeeeeeeeeeeeeeeeeeeeeeeeeeeeeeeeeeeeeeeeeeeeeeeeeeeeeeee60001b1661104f30611669565b6040518363ffffffff1660e01b815260040161106c929190611c25565b6020604051808303816000875af115801561108b573d6000803e3d6000fd5b505050506040513d601f19601f820116820180604052508101906110af9190611c63565b506110fd30600e60009054906101000a900473ffffffffffffffffffffffffffffffffffffffff167fffffffffffffffffffffffffffffffffffffffffffffffffffffffffffffffff610c22565b600e60009054906101000a900473ffffffffffffffffffffffffffffffffffffffff1673ffffffffffffffffffffffffffffffffffffffff16635a47ddc3600954600030600047600854600080307fffffffffffffffffffffffffffffffffffffffffffffffffffffffffffffffff6040518b63ffffffff1660e01b815260040161119099989796959493929190611cd5565b60606040518083038185885af11580156111ae573d6000803e3d6000fd5b50505050506040513d601f19601f820116820180604052508101906111d39190611d77565b505050600c60009054906101000a900473ffffffffffffffffffffffffffffffffffffffff1673ffffffffffffffffffffffffffffffffffffffff16634a7c974b306008546009546040518463ffffffff1660e01b815260040161123993929190611b94565b600060405180830381600087803b15801561125357600080fd5b505af1158015611267573d6000803e3d6000fd5b50505050565b600073ffffffffffffffffffffffffffffffffffffffff168473ffffffffffffffffffffffffffffffffffffffff16036112df5760006040517fe602df050000000000000000000000000000000000000000000000000000000081526004016112d6919061196a565b60405180910390fd5b600073ffffffffffffffffffffffffffffffffffffffff168373ffffffffffffffffffffffffffffffffffffffff16036113515760006040517f94280d62000000000000000000000000000000000000000000000000000000008152600401611348919061196a565b60405180910390fd5b81600160008673ffffffffffffffffffffffffffffffffffffffff1673ffffffffffffffffffffffffffffffffffffffff16815260200190815260200160002060008573ffffffffffffffffffffffffffffffffffffffff1673ffffffffffffffffffffffffffffffffffffffff16815260200190815260200160002081905550801561143e578273ffffffffffffffffffffffffffffffffffffffff168473ffffffffffffffffffffffffffffffffffffffff167f8c5be1e5ebec7d5bd14f71427d1e84f3dd0314c0f7b2291e5b200ac8c7c3b92584604051611435919061185c565b60405180910390a35b50505050565b600073ffffffffffffffffffffffffffffffffffffffff168373ffffffffffffffffffffffffffffffffffffffff160361149657806002600082825461148a9190611b2c565b92505081905550611569565b60008060008573ffffffffffffffffffffffffffffffffffffffff1673ffffffffffffffffffffffffffffffffffffffff16815260200190815260200160002054905081811015611522578381836040517fe450d38c00000000000000000000000000000000000000000000000000000000815260040161151993929190611b94565b60405180910390fd5b8181036000808673ffffffffffffffffffffffffffffffffffffffff1673ffffffffffffffffffffffffffffffffffffffff16815260200190815260200160002081905550505b600073ffffffffffffffffffffffffffffffffffffffff168273ffffffffffffffffffffffffffffffffffffffff16036115b257806002600082825403925050819055506115ff565b806000808473ffffffffffffffffffffffffffffffffffffffff1673ffffffffffffffffffffffffffffffffffffffff168152602001908152602001600020600082825401925050819055505b8173ffffffffffffffffffffffffffffffffffffffff168373ffffffffffffffffffffffffffffffffffffffff167fddf252ad1be2c89b69c2b068fc378daa952ba7f163c4a11628f55a4df523b3ef8360405161165c919061185c565b60405180910390a3505050565b60008173ffffffffffffffffffffffffffffffffffffffff1660001b9050919050565b600081519050919050565b600082825260208201905092915050565b60005b838110156116c65780820151818401526020810190506116ab565b60008484015250505050565b6000601f19601f8301169050919050565b60006116ee8261168c565b6116f88185611697565b93506117088185602086016116a8565b611711816116d2565b840191505092915050565b6000602082019050818103600083015261173681846116e3565b905092915050565b600080fd5b600073ffffffffffffffffffffffffffffffffffffffff82169050919050565b600061176e82611743565b9050919050565b61177e81611763565b811461178957600080fd5b50565b60008135905061179b81611775565b92915050565b6000819050919050565b6117b4816117a1565b81146117bf57600080fd5b50565b6000813590506117d1816117ab565b92915050565b600080604083850312156117ee576117ed61173e565b5b60006117fc8582860161178c565b925050602061180d858286016117c2565b9150509250929050565b60008115159050919050565b61182c81611817565b82525050565b60006020820190506118476000830184611823565b92915050565b611856816117a1565b82525050565b6000602082019050611871600083018461184d565b92915050565b60006020828403121561188d5761188c61173e565b5b600061189b848285016117c2565b91505092915050565b6000806000606084860312156118bd576118bc61173e565b5b60006118cb8682870161178c565b93505060206118dc8682870161178c565b92505060406118ed868287016117c2565b9150509250925092565b600060ff82169050919050565b61190d816118f7565b82525050565b60006020820190506119286000830184611904565b92915050565b6000602082840312156119445761194361173e565b5b60006119528482850161178c565b91505092915050565b61196481611763565b82525050565b600060208201905061197f600083018461195b565b92915050565b6000806040838503121561199c5761199b61173e565b5b60006119aa8582860161178c565b92505060206119bb8582860161178c565b9150509250929050565b7f4e487b7100000000000000000000000000000000000000000000000000000000600052602260045260246000fd5b60006002820490506001821680611a0c57607f821691505b602082108103611a1f57611a1e6119c5565b5b50919050565b7f496e76616c696420616d6f756e74000000000000000000000000000000000000600082015250565b6000611a5b600e83611697565b9150611a6682611a25565b602082019050919050565b60006020820190508181036000830152611a8a81611a4e565b9050919050565b7f496e73756666696369656e742062616c616e6365000000000000000000000000600082015250565b6000611ac7601483611697565b9150611ad282611a91565b602082019050919050565b60006020820190508181036000830152611af681611aba565b9050919050565b7f4e487b7100000000000000000000000000000000000000000000000000000000600052601160045260246000fd5b6000611b37826117a1565b9150611b42836117a1565b9250828201905080821115611b5a57611b59611afd565b5b92915050565b6000611b6b826117a1565b9150611b76836117a1565b9250828203905081811115611b8e57611b8d611afd565b5b92915050565b6000606082019050611ba9600083018661195b565b611bb6602083018561184d565b611bc3604083018461184d565b949350505050565b7f4e487b7100000000000000000000000000000000000000000000000000000000600052601260045260246000fd5b6000819050919050565b6000611c0f82611bfa565b9050919050565b611c1f81611c04565b82525050565b6000604082019050611c3a6000830185611c16565b611c476020830184611c16565b9392505050565b600081519050611c5d81611775565b92915050565b600060208284031215611c7957611c7861173e565b5b6000611c8784828501611c4e565b91505092915050565b6000819050919050565b6000819050919050565b6000611cbf611cba611cb584611c90565b611c9a565b6117a1565b9050919050565b611ccf81611ca4565b82525050565b600061012082019050611ceb600083018c61195b565b611cf8602083018b61195b565b611d05604083018a611823565b611d12606083018961184d565b611d1f608083018861184d565b611d2c60a0830187611cc6565b611d3960c0830186611cc6565b611d4660e083018561195b565b611d5461010083018461184d565b9a9950505050505050505050565b600081519050611d71816117ab565b92915050565b600080600060608486031215611d9057611d8f61173e565b5b6000611d9e86828701611d62565b9350506020611daf86828701611d62565b9250506040611dc086828701611d62565b915050925092509256fea26469706673582212208b4db25931f819ffa5e95134702772400c5327d8515416cf9abde459260be43264736f6c63430008180033a2646970667358221220aaae496ecd09b2273d56bb3033f894ba054815158e7a5836e1256fb91fe152b064736f6c63430008180033",
  "linkReferences": {},
  "deployedLinkReferences": {}
}