{"contracts/PumperFactory.sol":{"PumperFactory":{"abi":[{"anonymous":false,"inputs":[{"indexed":true,"internalType":"address","name":"buyer","type":"address"},{"indexed":false,"internalType":"uint256","name":"amount","type":"uint256"},{"indexed":false,"internalType":"uint256","name":"price","type":"uint256"}],"name":"Buy","type":"event"},{"anonymous":false,"inputs":[{"indexed":true,"internalType":"address","name":"pool","type":"address"},{"indexed":false,"internalType":"uint256","name":"x","type":"uint256"},{"indexed":false,"internalType":"uint256","name":"y","type":"uint256"}],"name":"LiquidtyDeployed","type":"event"},{"anonymous":false,"inputs":[{"indexed":true,"internalType":"address","name":"seller","type":"address"},{"indexed":false,"internalType":"uint256","name":"amount","type":"uint256"},{"indexed":false,"internalType":"uint256","name":"price","type":"uint256"}],"name":"Sell","type":"event"},{"inputs":[{"internalType":"string","name":"name","type":"string"},{"internalType":"string","name":"symbol","type":"string"}],"name":"createPumpToken","outputs":[{"internalType":"address","name":"","type":"address"}],"stateMutability":"nonpayable","type":"function"},{"inputs":[{"internalType":"address","name":"","type":"address"},{"internalType":"uint256","name":"","type":"uint256"}],"name":"deployedPumpTokens","outputs":[{"internalType":"address","name":"","type":"address"}],"stateMutability":"view","type":"function"},{"inputs":[{"internalType":"address","name":"buyer","type":"address"},{"internalType":"uint256","name":"amount","type":"uint256"},{"internalType":"uint256","name":"price","type":"uint256"}],"name":"emitBuy","outputs":[],"stateMutability":"nonpayable","type":"function"},{"inputs":[{"internalType":"address","name":"pool","type":"address"},{"internalType":"uint256","name":"x","type":"uint256"},{"internalType":"uint256","name":"y","type":"uint256"}],"name":"emitLiquidtyDeployed","outputs":[],"stateMutability":"nonpayable","type":"function"},{"inputs":[{"internalType":"address","name":"seller","type":"address"},{"internalType":"uint256","name":"amount","type":"uint256"},{"internalType":"uint256","name":"price","type":"uint256"}],"name":"emitSell","outputs":[],"stateMutability":"nonpayable","type":"function"},{"inputs":[{"internalType":"bytes","name":"_bytecode","type":"bytes"},{"internalType":"uint256","name":"_salt","type":"uint256"}],"name":"getAddressBeforeDeployment","outputs":[{"internalType":"address","name":"","type":"address"}],"stateMutability":"view","type":"function"},{"inputs":[{"internalType":"string","name":"name","type":"string"},{"internalType":"string","name":"symbol","type":"string"}],"name":"getBytecode","outputs":[{"internalType":"bytes","name":"","type":"bytes"}],"stateMutability":"view","type":"function"},{"inputs":[{"internalType":"address","name":"_creator","type":"address"}],"name":"getDeployedPumpTokens","outputs":[{"internalType":"address[]","name":"","type":"address[]"}],"stateMutability":"view","type":"function"},{"inputs":[{"internalType":"address","name":"_creator","type":"address"}],"name":"getDeployedPumpTokensLen","outputs":[{"internalType":"uint256","name":"","type":"uint256"}],"stateMutability":"view","type":"function"}],"evm":{"bytecode":{"linkReferences":{},"object":"608060405234801561001057600080fd5b50613d76806100206000396000f3fe60806040523480156200001157600080fd5b5060043610620000a05760003560e01c80636ffc7436116200006f5780636ffc743614620001515780637814e750146200018757806388ae3c6b14620001bd578063a286cb1e14620001dd578063d0d579ab146200021357620000a0565b80631b00769914620000a557806337a9894614620000db5780634a7c974b14620001115780634e3f0a011462000131575b600080fd5b620000c36004803603810190620000bd91906200090b565b62000249565b604051620000d2919062000963565b60405180910390f35b620000f96004803603810190620000f3919062000980565b62000298565b60405162000108919062000a80565b60405180910390f35b6200012f600480360381019062000129919062000aa4565b62000366565b005b6200014f600480360381019062000149919062000aa4565b62000444565b005b6200016f600480360381019062000169919062000c62565b62000522565b6040516200017e919062000963565b60405180910390f35b620001a560048036038101906200019f919062000980565b6200056e565b604051620001b4919062000cd9565b60405180910390f35b620001db6004803603810190620001d5919062000aa4565b620005b9565b005b620001fb6004803603810190620001f5919062000daa565b62000697565b6040516200020a919062000963565b60405180910390f35b6200023160048036038101906200022b919062000daa565b620007cb565b60405162000240919062000eb8565b60405180910390f35b600060205281600052604060002081815481106200026657600080fd5b906000526020600020016000915091509054906101000a900473ffffffffffffffffffffffffffffffffffffffff1681565b60606000808373ffffffffffffffffffffffffffffffffffffffff1673ffffffffffffffffffffffffffffffffffffffff1681526020019081526020016000208054806020026020016040519081016040528092919081815260200182805480156200035a57602002820191906000526020600020905b8160009054906101000a900473ffffffffffffffffffffffffffffffffffffffff1673ffffffffffffffffffffffffffffffffffffffff16815260200190600101908083116200030f575b50505050509050919050565b60008060003373ffffffffffffffffffffffffffffffffffffffff1673ffffffffffffffffffffffffffffffffffffffff1681526020019081526020016000208054905011620003ed576040517f08c379a0000000000000000000000000000000000000000000000000000000008152600401620003e49062000f63565b60405180910390fd5b8273ffffffffffffffffffffffffffffffffffffffff167f27b0834474dc0d53a72607948a7009a1c42dd5af9ff46bbe01284e407e3750ee83836040516200043792919062000f85565b60405180910390a2505050565b60008060003373ffffffffffffffffffffffffffffffffffffffff1673ffffffffffffffffffffffffffffffffffffffff1681526020019081526020016000208054905011620004cb576040517f08c379a0000000000000000000000000000000000000000000000000000000008152600401620004c29062000f63565b60405180910390fd5b8273ffffffffffffffffffffffffffffffffffffffff167f1cbc5ab135991bd2b6a4b034a04aa2aa086dac1371cb9b16b8b5e2ed6b036bed83836040516200051592919062000f85565b60405180910390a2505050565b60008060ff60f81b30848680519060200120604051602001620005499493929190620010a7565b6040516020818303038152906040528051906020012090508060001c91505092915050565b60008060008373ffffffffffffffffffffffffffffffffffffffff1673ffffffffffffffffffffffffffffffffffffffff168152602001908152602001600020805490509050919050565b60008060003373ffffffffffffffffffffffffffffffffffffffff1673ffffffffffffffffffffffffffffffffffffffff168152602001908152602001600020805490501162000640576040517f08c379a0000000000000000000000000000000000000000000000000000000008152600401620006379062000f63565b60405180910390fd5b8273ffffffffffffffffffffffffffffffffffffffff167fed7a144fad14804d5c249145e3e0e2b63a9eb455b76aee5bc92d711e9bba3e4a83836040516200068a92919062000f85565b60405180910390a2505050565b6000806000803373ffffffffffffffffffffffffffffffffffffffff1673ffffffffffffffffffffffffffffffffffffffff1681526020019081526020016000208054905060001b848430604051620006f09062000849565b620006fe9392919062001149565b8190604051809103906000f59050801580156200071f573d6000803e3d6000fd5b5090506000803373ffffffffffffffffffffffffffffffffffffffff1673ffffffffffffffffffffffffffffffffffffffff168152602001908152602001600020819080600181540180825580915050600190039060005260206000200160009091909190916101000a81548173ffffffffffffffffffffffffffffffffffffffff021916908373ffffffffffffffffffffffffffffffffffffffff1602179055508091505092915050565b6060600060405180602001620007e19062000849565b6020820181038252601f19601f820116604052509050808484306040516020016200080f9392919062001149565b60405160208183030381529060405260405160200162000831929190620011d6565b60405160208183030381529060405291505092915050565b612b4280620011ff83390190565b6000604051905090565b600080fd5b600080fd5b600073ffffffffffffffffffffffffffffffffffffffff82169050919050565b600062000898826200086b565b9050919050565b620008aa816200088b565b8114620008b657600080fd5b50565b600081359050620008ca816200089f565b92915050565b6000819050919050565b620008e581620008d0565b8114620008f157600080fd5b50565b6000813590506200090581620008da565b92915050565b6000806040838503121562000925576200092462000861565b5b60006200093585828601620008b9565b92505060206200094885828601620008f4565b9150509250929050565b6200095d816200088b565b82525050565b60006020820190506200097a600083018462000952565b92915050565b60006020828403121562000999576200099862000861565b5b6000620009a984828501620008b9565b91505092915050565b600081519050919050565b600082825260208201905092915050565b6000819050602082019050919050565b620009e9816200088b565b82525050565b6000620009fd8383620009de565b60208301905092915050565b6000602082019050919050565b600062000a2382620009b2565b62000a2f8185620009bd565b935062000a3c83620009ce565b8060005b8381101562000a7357815162000a578882620009ef565b975062000a648362000a09565b92505060018101905062000a40565b5085935050505092915050565b6000602082019050818103600083015262000a9c818462000a16565b905092915050565b60008060006060848603121562000ac05762000abf62000861565b5b600062000ad086828701620008b9565b935050602062000ae386828701620008f4565b925050604062000af686828701620008f4565b9150509250925092565b600080fd5b600080fd5b6000601f19601f8301169050919050565b7f4e487b7100000000000000000000000000000000000000000000000000000000600052604160045260246000fd5b62000b558262000b0a565b810181811067ffffffffffffffff8211171562000b775762000b7662000b1b565b5b80604052505050565b600062000b8c62000857565b905062000b9a828262000b4a565b919050565b600067ffffffffffffffff82111562000bbd5762000bbc62000b1b565b5b62000bc88262000b0a565b9050602081019050919050565b82818337600083830152505050565b600062000bfb62000bf58462000b9f565b62000b80565b90508281526020810184848401111562000c1a5762000c1962000b05565b5b62000c2784828562000bd5565b509392505050565b600082601f83011262000c475762000c4662000b00565b5b813562000c5984826020860162000be4565b91505092915050565b6000806040838503121562000c7c5762000c7b62000861565b5b600083013567ffffffffffffffff81111562000c9d5762000c9c62000866565b5b62000cab8582860162000c2f565b925050602062000cbe85828601620008f4565b9150509250929050565b62000cd381620008d0565b82525050565b600060208201905062000cf0600083018462000cc8565b92915050565b600067ffffffffffffffff82111562000d145762000d1362000b1b565b5b62000d1f8262000b0a565b9050602081019050919050565b600062000d4362000d3d8462000cf6565b62000b80565b90508281526020810184848401111562000d625762000d6162000b05565b5b62000d6f84828562000bd5565b509392505050565b600082601f83011262000d8f5762000d8e62000b00565b5b813562000da184826020860162000d2c565b91505092915050565b6000806040838503121562000dc45762000dc362000861565b5b600083013567ffffffffffffffff81111562000de55762000de462000866565b5b62000df38582860162000d77565b925050602083013567ffffffffffffffff81111562000e175762000e1662000866565b5b62000e258582860162000d77565b9150509250929050565b600081519050919050565b600082825260208201905092915050565b60005b8381101562000e6b57808201518184015260208101905062000e4e565b60008484015250505050565b600062000e848262000e2f565b62000e90818562000e3a565b935062000ea281856020860162000e4b565b62000ead8162000b0a565b840191505092915050565b6000602082019050818103600083015262000ed4818462000e77565b905092915050565b600082825260208201905092915050565b7f4f6e6c792050756d706572546f6b656e2063616e2063616c6c2074686973206660008201527f756e6374696f6e00000000000000000000000000000000000000000000000000602082015250565b600062000f4b60278362000edc565b915062000f588262000eed565b604082019050919050565b6000602082019050818103600083015262000f7e8162000f3c565b9050919050565b600060408201905062000f9c600083018562000cc8565b62000fab602083018462000cc8565b9392505050565b60007fff0000000000000000000000000000000000000000000000000000000000000082169050919050565b6000819050919050565b62000ffd62000ff78262000fb2565b62000fde565b82525050565b60008160601b9050919050565b60006200101d8262001003565b9050919050565b6000620010318262001010565b9050919050565b6200104d62001047826200088b565b62001024565b82525050565b6000819050919050565b620010726200106c82620008d0565b62001053565b82525050565b6000819050919050565b6000819050919050565b620010a16200109b8262001078565b62001082565b82525050565b6000620010b5828762000fe8565b600182019150620010c7828662001038565b601482019150620010d982856200105d565b602082019150620010eb82846200108c565b60208201915081905095945050505050565b600081519050919050565b60006200111582620010fd565b62001121818562000edc565b93506200113381856020860162000e4b565b6200113e8162000b0a565b840191505092915050565b6000606082019050818103600083015262001165818662001108565b905081810360208301526200117b818562001108565b90506200118c604083018462000952565b949350505050565b600081905092915050565b6000620011ac8262000e2f565b620011b8818562001194565b9350620011ca81856020860162000e4b565b80840191505092915050565b6000620011e482856200119f565b9150620011f282846200119f565b9150819050939250505056fe608060405267016345785d8a0000600755633b9aca00600955731c9f7def9b509d0d64a2adce6f73f235147ab7f1600d60006101000a81548173ffffffffffffffffffffffffffffffffffffffff021916908373ffffffffffffffffffffffffffffffffffffffff16021790555073b97582dcb6f2866098ca210095a04df3e11b76a6600e60006101000a81548173ffffffffffffffffffffffffffffffffffffffff021916908373ffffffffffffffffffffffffffffffffffffffff160217905550348015620000cf57600080fd5b5060405162002b4238038062002b428339818101604052810190620000f59190620007a9565b338383816003908162000109919062000a8e565b5080600490816200011b919062000a8e565b505050600073ffffffffffffffffffffffffffffffffffffffff168173ffffffffffffffffffffffffffffffffffffffff1603620001935760006040517f1e4fbdf70000000000000000000000000000000000000000000000000000000081526004016200018a919062000b86565b60405180910390fd5b620001a4816200022e60201b60201c565b506b033b2e3c9fd0803ce8000000600881905550620001cc30600854620002f460201b60201c565b600954600854620001de919062000bd2565b600a8190555080600c60006101000a81548173ffffffffffffffffffffffffffffffffffffffff021916908373ffffffffffffffffffffffffffffffffffffffff16021790555050505062000cc3565b6000600560009054906101000a900473ffffffffffffffffffffffffffffffffffffffff16905081600560006101000a81548173ffffffffffffffffffffffffffffffffffffffff021916908373ffffffffffffffffffffffffffffffffffffffff1602179055508173ffffffffffffffffffffffffffffffffffffffff168173ffffffffffffffffffffffffffffffffffffffff167f8be0079c531659141344cd1fd0a4f28419497f9722a3daafe3b4186f6b6457e060405160405180910390a35050565b600073ffffffffffffffffffffffffffffffffffffffff168273ffffffffffffffffffffffffffffffffffffffff1603620003695760006040517fec442f0500000000000000000000000000000000000000000000000000000000815260040162000360919062000b86565b60405180910390fd5b6200037d600083836200038160201b60201c565b5050565b600073ffffffffffffffffffffffffffffffffffffffff168373ffffffffffffffffffffffffffffffffffffffff1603620003d7578060026000828254620003ca919062000c1d565b92505081905550620004ad565b60008060008573ffffffffffffffffffffffffffffffffffffffff1673ffffffffffffffffffffffffffffffffffffffff1681526020019081526020016000205490508181101562000466578381836040517fe450d38c0000000000000000000000000000000000000000000000000000000081526004016200045d9392919062000c69565b60405180910390fd5b8181036000808673ffffffffffffffffffffffffffffffffffffffff1673ffffffffffffffffffffffffffffffffffffffff16815260200190815260200160002081905550505b600073ffffffffffffffffffffffffffffffffffffffff168273ffffffffffffffffffffffffffffffffffffffff1603620004f8578060026000828254039250508190555062000545565b806000808473ffffffffffffffffffffffffffffffffffffffff1673ffffffffffffffffffffffffffffffffffffffff168152602001908152602001600020600082825401925050819055505b8173ffffffffffffffffffffffffffffffffffffffff168373ffffffffffffffffffffffffffffffffffffffff167fddf252ad1be2c89b69c2b068fc378daa952ba7f163c4a11628f55a4df523b3ef83604051620005a4919062000ca6565b60405180910390a3505050565b6000604051905090565b600080fd5b600080fd5b600080fd5b600080fd5b6000601f19601f8301169050919050565b7f4e487b7100000000000000000000000000000000000000000000000000000000600052604160045260246000fd5b6200061a82620005cf565b810181811067ffffffffffffffff821117156200063c576200063b620005e0565b5b80604052505050565b600062000651620005b1565b90506200065f82826200060f565b919050565b600067ffffffffffffffff821115620006825762000681620005e0565b5b6200068d82620005cf565b9050602081019050919050565b60005b83811015620006ba5780820151818401526020810190506200069d565b60008484015250505050565b6000620006dd620006d78462000664565b62000645565b905082815260208101848484011115620006fc57620006fb620005ca565b5b620007098482856200069a565b509392505050565b600082601f830112620007295762000728620005c5565b5b81516200073b848260208601620006c6565b91505092915050565b600073ffffffffffffffffffffffffffffffffffffffff82169050919050565b6000620007718262000744565b9050919050565b620007838162000764565b81146200078f57600080fd5b50565b600081519050620007a38162000778565b92915050565b600080600060608486031215620007c557620007c4620005bb565b5b600084015167ffffffffffffffff811115620007e657620007e5620005c0565b5b620007f48682870162000711565b935050602084015167ffffffffffffffff811115620008185762000817620005c0565b5b620008268682870162000711565b9250506040620008398682870162000792565b9150509250925092565b600081519050919050565b7f4e487b7100000000000000000000000000000000000000000000000000000000600052602260045260246000fd5b600060028204905060018216806200089657607f821691505b602082108103620008ac57620008ab6200084e565b5b50919050565b60008190508160005260206000209050919050565b60006020601f8301049050919050565b600082821b905092915050565b600060088302620009167fffffffffffffffffffffffffffffffffffffffffffffffffffffffffffffffff82620008d7565b620009228683620008d7565b95508019841693508086168417925050509392505050565b6000819050919050565b6000819050919050565b60006200096f6200096962000963846200093a565b62000944565b6200093a565b9050919050565b6000819050919050565b6200098b836200094e565b620009a36200099a8262000976565b848454620008e4565b825550505050565b600090565b620009ba620009ab565b620009c781848462000980565b505050565b5b81811015620009ef57620009e3600082620009b0565b600181019050620009cd565b5050565b601f82111562000a3e5762000a0881620008b2565b62000a1384620008c7565b8101602085101562000a23578190505b62000a3b62000a3285620008c7565b830182620009cc565b50505b505050565b600082821c905092915050565b600062000a636000198460080262000a43565b1980831691505092915050565b600062000a7e838362000a50565b9150826002028217905092915050565b62000a998262000843565b67ffffffffffffffff81111562000ab55762000ab4620005e0565b5b62000ac182546200087d565b62000ace828285620009f3565b600060209050601f83116001811462000b06576000841562000af1578287015190505b62000afd858262000a70565b86555062000b6d565b601f19841662000b1686620008b2565b60005b8281101562000b405784890151825560018201915060208501945060208101905062000b19565b8683101562000b60578489015162000b5c601f89168262000a50565b8355505b6001600288020188555050505b505050505050565b62000b808162000764565b82525050565b600060208201905062000b9d600083018462000b75565b92915050565b7f4e487b7100000000000000000000000000000000000000000000000000000000600052601160045260246000fd5b600062000bdf826200093a565b915062000bec836200093a565b925082820262000bfc816200093a565b9150828204841483151762000c165762000c1562000ba3565b5b5092915050565b600062000c2a826200093a565b915062000c37836200093a565b925082820190508082111562000c525762000c5162000ba3565b5b92915050565b62000c63816200093a565b82525050565b600060608201905062000c80600083018662000b75565b62000c8f602083018562000c58565b62000c9e604083018462000c58565b949350505050565b600060208201905062000cbd600083018462000c58565b92915050565b611e6f8062000cd36000396000f3fe60806040526004361061014b5760003560e01c8063715018a6116100b6578063a9059cbb1161006f578063a9059cbb146104a8578063b0db0e41146104e5578063b4f40c61146104ef578063bb24fe8a1461051a578063dd62ed3e14610545578063f2fde38b146105825761014b565b8063715018a6146103aa57806379cc6790146103c15780638da5cb5b146103ea57806392a88fa21461041557806395d89b4114610452578063a56dfe4a1461047d5761014b565b806323b872dd1161010857806323b872dd14610276578063313ce567146102b357806342966c68146102de57806343601eda1461030757806348768b981461033057806370a082311461036d5761014b565b806306fdde0314610150578063095ea7b31461017b5780630c55699c146101b857806312d697b6146101e357806314e5f5921461020e57806318160ddd1461024b575b600080fd5b34801561015c57600080fd5b506101656105ab565b604051610172919061178b565b60405180910390f35b34801561018757600080fd5b506101a2600480360381019061019d9190611846565b61063d565b6040516101af91906118a1565b60405180910390f35b3480156101c457600080fd5b506101cd610660565b6040516101da91906118cb565b60405180910390f35b3480156101ef57600080fd5b506101f8610666565b60405161020591906118cb565b60405180910390f35b34801561021a57600080fd5b50610235600480360381019061023091906118e6565b61066c565b60405161024291906118cb565b60405180910390f35b34801561025757600080fd5b5061026061067e565b60405161026d91906118cb565b60405180910390f35b34801561028257600080fd5b5061029d60048036038101906102989190611913565b610688565b6040516102aa91906118a1565b60405180910390f35b3480156102bf57600080fd5b506102c86106b7565b6040516102d59190611982565b60405180910390f35b3480156102ea57600080fd5b50610305600480360381019061030091906118e6565b6106c0565b005b34801561031357600080fd5b5061032e600480360381019061032991906118e6565b6106d4565b005b34801561033c57600080fd5b50610357600480360381019061035291906118e6565b61087f565b60405161036491906118cb565b60405180910390f35b34801561037957600080fd5b50610394600480360381019061038f919061199d565b610891565b6040516103a191906118cb565b60405180910390f35b3480156103b657600080fd5b506103bf6108d9565b005b3480156103cd57600080fd5b506103e860048036038101906103e39190611846565b6108ed565b005b3480156103f657600080fd5b506103ff61090d565b60405161040c91906119d9565b60405180910390f35b34801561042157600080fd5b5061043c6004803603810190610437919061199d565b610937565b60405161044991906118a1565b60405180910390f35b34801561045e57600080fd5b50610467610957565b604051610474919061178b565b60405180910390f35b34801561048957600080fd5b506104926109e9565b60405161049f91906118cb565b60405180910390f35b3480156104b457600080fd5b506104cf60048036038101906104ca9190611846565b6109ef565b6040516104dc91906118a1565b60405180910390f35b6104ed610a12565b005b3480156104fb57600080fd5b50610504610b3d565b60405161051191906118cb565b60405180910390f35b34801561052657600080fd5b5061052f610b43565b60405161053c919061178b565b60405180910390f35b34801561055157600080fd5b5061056c600480360381019061056791906119f4565b610b7c565b60405161057991906118cb565b60405180910390f35b34801561058e57600080fd5b506105a960048036038101906105a4919061199d565b610c03565b005b6060600380546105ba90611a63565b80601f01602080910402602001604051908101604052809291908181526020018280546105e690611a63565b80156106335780601f1061060857610100808354040283529160200191610633565b820191906000526020600020905b81548152906001019060200180831161061657829003601f168201915b5050505050905090565b600080610648610c89565b9050610655818585610c91565b600191505092915050565b60085481565b60075481565b600061067782610ca3565b9050919050565b6000600254905090565b600080610693610c89565b90506106a0858285610cc3565b6106ab858585610d57565b60019150509392505050565b60006012905090565b6106d16106cb610c89565b82610e4b565b50565b60008111610717576040517f08c379a000000000000000000000000000000000000000000000000000000000815260040161070e90611ae0565b60405180910390fd5b600061072282610ca3565b90508161072e33610891565b101561076f576040517f08c379a000000000000000000000000000000000000000000000000000000000815260040161076690611b4c565b60405180910390fd5b61077a333084610688565b50806008546107899190611b9b565b6008819055508160095461079d9190611bcf565b6009819055503373ffffffffffffffffffffffffffffffffffffffff166108fc829081150290604051600060405180830381858888f193505050501580156107e9573d6000803e3d6000fd5b50600c60009054906101000a900473ffffffffffffffffffffffffffffffffffffffff1673ffffffffffffffffffffffffffffffffffffffff166388ae3c6b3384846040518463ffffffff1660e01b815260040161084993929190611c03565b600060405180830381600087803b15801561086357600080fd5b505af1158015610877573d6000803e3d6000fd5b505050505050565b600061088a82610ecd565b9050919050565b60008060008373ffffffffffffffffffffffffffffffffffffffff1673ffffffffffffffffffffffffffffffffffffffff168152602001908152602001600020549050919050565b6108e1610eed565b6108eb6000610f74565b565b6108ff826108f9610c89565b83610cc3565b6109098282610e4b565b5050565b6000600560009054906101000a900473ffffffffffffffffffffffffffffffffffffffff16905090565b60066020528060005260406000206000915054906101000a900460ff1681565b60606004805461096690611a63565b80601f016020809104026020016040519081016040528092919081815260200182805461099290611a63565b80156109df5780601f106109b4576101008083540402835291602001916109df565b820191906000526020600020905b8154815290600101906020018083116109c257829003601f168201915b5050505050905090565b60095481565b6000806109fa610c89565b9050610a07818585610d57565b600191505092915050565b60003411610a55576040517f08c379a0000000000000000000000000000000000000000000000000000000008152600401610a4c90611ae0565b60405180910390fd5b6000610a6034610ecd565b9050610a6c33826109ef565b5080600854610a7b9190611bcf565b60088190555034600954610a8f9190611b9b565b60098190555060075460095410610aa957610aa861103a565b5b600c60009054906101000a900473ffffffffffffffffffffffffffffffffffffffff1673ffffffffffffffffffffffffffffffffffffffff16634e3f0a013383346040518463ffffffff1660e01b8152600401610b0893929190611c03565b600060405180830381600087803b158015610b2257600080fd5b505af1158015610b36573d6000803e3d6000fd5b5050505050565b600a5481565b6040518060400160405280600b81526020017f50756d706572546f6b656e00000000000000000000000000000000000000000081525081565b6000600160008473ffffffffffffffffffffffffffffffffffffffff1673ffffffffffffffffffffffffffffffffffffffff16815260200190815260200160002060008373ffffffffffffffffffffffffffffffffffffffff1673ffffffffffffffffffffffffffffffffffffffff16815260200190815260200160002054905092915050565b610c0b610eed565b600073ffffffffffffffffffffffffffffffffffffffff168173ffffffffffffffffffffffffffffffffffffffff1603610c7d5760006040517f1e4fbdf7000000000000000000000000000000000000000000000000000000008152600401610c7491906119d9565b60405180910390fd5b610c8681610f74565b50565b600033905090565b610c9e83838360016112dc565b505050565b600081600854600a5481610cba57610cb9611c3a565b5b04029050919050565b6000610ccf8484610b7c565b90507fffffffffffffffffffffffffffffffffffffffffffffffffffffffffffffffff8114610d515781811015610d41578281836040517ffb8f41b2000000000000000000000000000000000000000000000000000000008152600401610d3893929190611c03565b60405180910390fd5b610d50848484840360006112dc565b5b50505050565b600073ffffffffffffffffffffffffffffffffffffffff168373ffffffffffffffffffffffffffffffffffffffff1603610dc95760006040517f96c6fd1e000000000000000000000000000000000000000000000000000000008152600401610dc091906119d9565b60405180910390fd5b600073ffffffffffffffffffffffffffffffffffffffff168273ffffffffffffffffffffffffffffffffffffffff1603610e3b5760006040517fec442f05000000000000000000000000000000000000000000000000000000008152600401610e3291906119d9565b60405180910390fd5b610e468383836114b3565b505050565b600073ffffffffffffffffffffffffffffffffffffffff168273ffffffffffffffffffffffffffffffffffffffff1603610ebd5760006040517f96c6fd1e000000000000000000000000000000000000000000000000000000008152600401610eb491906119d9565b60405180910390fd5b610ec9826000836114b3565b5050565b600081600954600a5481610ee457610ee3611c3a565b5b04029050919050565b610ef5610c89565b73ffffffffffffffffffffffffffffffffffffffff16610f1361090d565b73ffffffffffffffffffffffffffffffffffffffff1614610f7257610f36610c89565b6040517f118cdaa7000000000000000000000000000000000000000000000000000000008152600401610f6991906119d9565b60405180910390fd5b565b6000600560009054906101000a900473ffffffffffffffffffffffffffffffffffffffff16905081600560006101000a81548173ffffffffffffffffffffffffffffffffffffffff021916908373ffffffffffffffffffffffffffffffffffffffff1602179055508173ffffffffffffffffffffffffffffffffffffffff168173ffffffffffffffffffffffffffffffffffffffff167f8be0079c531659141344cd1fd0a4f28419497f9722a3daafe3b4186f6b6457e060405160405180910390a35050565b600d60009054906101000a900473ffffffffffffffffffffffffffffffffffffffff1673ffffffffffffffffffffffffffffffffffffffff1663171223dd73ffffffffffffffffffffffffffffffffffffffff60001b7feeeeeeeeeeeeeeeeeeeeeeeeeeeeeeeeeeeeeeeeeeeeeeeeeeeeeeeeeeeeeeee60001b166110be306116d8565b6040518363ffffffff1660e01b81526004016110db929190611c94565b6020604051808303816000875af11580156110fa573d6000803e3d6000fd5b505050506040513d601f19601f8201168201806040525081019061111e9190611cd2565b5061116c30600e60009054906101000a900473ffffffffffffffffffffffffffffffffffffffff167fffffffffffffffffffffffffffffffffffffffffffffffffffffffffffffffff610c91565b600e60009054906101000a900473ffffffffffffffffffffffffffffffffffffffff1673ffffffffffffffffffffffffffffffffffffffff16635a47ddc3600954600030600047600854600080307fffffffffffffffffffffffffffffffffffffffffffffffffffffffffffffffff6040518b63ffffffff1660e01b81526004016111ff99989796959493929190611d44565b60606040518083038185885af115801561121d573d6000803e3d6000fd5b50505050506040513d601f19601f820116820180604052508101906112429190611de6565b505050600c60009054906101000a900473ffffffffffffffffffffffffffffffffffffffff1673ffffffffffffffffffffffffffffffffffffffff16634a7c974b306008546009546040518463ffffffff1660e01b81526004016112a893929190611c03565b600060405180830381600087803b1580156112c257600080fd5b505af11580156112d6573d6000803e3d6000fd5b50505050565b600073ffffffffffffffffffffffffffffffffffffffff168473ffffffffffffffffffffffffffffffffffffffff160361134e5760006040517fe602df0500000000000000000000000000000000000000000000000000000000815260040161134591906119d9565b60405180910390fd5b600073ffffffffffffffffffffffffffffffffffffffff168373ffffffffffffffffffffffffffffffffffffffff16036113c05760006040517f94280d620000000000000000000000000000000000000000000000000000000081526004016113b791906119d9565b60405180910390fd5b81600160008673ffffffffffffffffffffffffffffffffffffffff1673ffffffffffffffffffffffffffffffffffffffff16815260200190815260200160002060008573ffffffffffffffffffffffffffffffffffffffff1673ffffffffffffffffffffffffffffffffffffffff1681526020019081526020016000208190555080156114ad578273ffffffffffffffffffffffffffffffffffffffff168473ffffffffffffffffffffffffffffffffffffffff167f8c5be1e5ebec7d5bd14f71427d1e84f3dd0314c0f7b2291e5b200ac8c7c3b925846040516114a491906118cb565b60405180910390a35b50505050565b600073ffffffffffffffffffffffffffffffffffffffff168373ffffffffffffffffffffffffffffffffffffffff16036115055780600260008282546114f99190611b9b565b925050819055506115d8565b60008060008573ffffffffffffffffffffffffffffffffffffffff1673ffffffffffffffffffffffffffffffffffffffff16815260200190815260200160002054905081811015611591578381836040517fe450d38c00000000000000000000000000000000000000000000000000000000815260040161158893929190611c03565b60405180910390fd5b8181036000808673ffffffffffffffffffffffffffffffffffffffff1673ffffffffffffffffffffffffffffffffffffffff16815260200190815260200160002081905550505b600073ffffffffffffffffffffffffffffffffffffffff168273ffffffffffffffffffffffffffffffffffffffff1603611621578060026000828254039250508190555061166e565b806000808473ffffffffffffffffffffffffffffffffffffffff1673ffffffffffffffffffffffffffffffffffffffff168152602001908152602001600020600082825401925050819055505b8173ffffffffffffffffffffffffffffffffffffffff168373ffffffffffffffffffffffffffffffffffffffff167fddf252ad1be2c89b69c2b068fc378daa952ba7f163c4a11628f55a4df523b3ef836040516116cb91906118cb565b60405180910390a3505050565b60008173ffffffffffffffffffffffffffffffffffffffff1660001b9050919050565b600081519050919050565b600082825260208201905092915050565b60005b8381101561173557808201518184015260208101905061171a565b60008484015250505050565b6000601f19601f8301169050919050565b600061175d826116fb565b6117678185611706565b9350611777818560208601611717565b61178081611741565b840191505092915050565b600060208201905081810360008301526117a58184611752565b905092915050565b600080fd5b600073ffffffffffffffffffffffffffffffffffffffff82169050919050565b60006117dd826117b2565b9050919050565b6117ed816117d2565b81146117f857600080fd5b50565b60008135905061180a816117e4565b92915050565b6000819050919050565b61182381611810565b811461182e57600080fd5b50565b6000813590506118408161181a565b92915050565b6000806040838503121561185d5761185c6117ad565b5b600061186b858286016117fb565b925050602061187c85828601611831565b9150509250929050565b60008115159050919050565b61189b81611886565b82525050565b60006020820190506118b66000830184611892565b92915050565b6118c581611810565b82525050565b60006020820190506118e060008301846118bc565b92915050565b6000602082840312156118fc576118fb6117ad565b5b600061190a84828501611831565b91505092915050565b60008060006060848603121561192c5761192b6117ad565b5b600061193a868287016117fb565b935050602061194b868287016117fb565b925050604061195c86828701611831565b9150509250925092565b600060ff82169050919050565b61197c81611966565b82525050565b60006020820190506119976000830184611973565b92915050565b6000602082840312156119b3576119b26117ad565b5b60006119c1848285016117fb565b91505092915050565b6119d3816117d2565b82525050565b60006020820190506119ee60008301846119ca565b92915050565b60008060408385031215611a0b57611a0a6117ad565b5b6000611a19858286016117fb565b9250506020611a2a858286016117fb565b9150509250929050565b7f4e487b7100000000000000000000000000000000000000000000000000000000600052602260045260246000fd5b60006002820490506001821680611a7b57607f821691505b602082108103611a8e57611a8d611a34565b5b50919050565b7f496e76616c696420616d6f756e74000000000000000000000000000000000000600082015250565b6000611aca600e83611706565b9150611ad582611a94565b602082019050919050565b60006020820190508181036000830152611af981611abd565b9050919050565b7f496e73756666696369656e742062616c616e6365000000000000000000000000600082015250565b6000611b36601483611706565b9150611b4182611b00565b602082019050919050565b60006020820190508181036000830152611b6581611b29565b9050919050565b7f4e487b7100000000000000000000000000000000000000000000000000000000600052601160045260246000fd5b6000611ba682611810565b9150611bb183611810565b9250828201905080821115611bc957611bc8611b6c565b5b92915050565b6000611bda82611810565b9150611be583611810565b9250828203905081811115611bfd57611bfc611b6c565b5b92915050565b6000606082019050611c1860008301866119ca565b611c2560208301856118bc565b611c3260408301846118bc565b949350505050565b7f4e487b7100000000000000000000000000000000000000000000000000000000600052601260045260246000fd5b6000819050919050565b6000611c7e82611c69565b9050919050565b611c8e81611c73565b82525050565b6000604082019050611ca96000830185611c85565b611cb66020830184611c85565b9392505050565b600081519050611ccc816117e4565b92915050565b600060208284031215611ce857611ce76117ad565b5b6000611cf684828501611cbd565b91505092915050565b6000819050919050565b6000819050919050565b6000611d2e611d29611d2484611cff565b611d09565b611810565b9050919050565b611d3e81611d13565b82525050565b600061012082019050611d5a600083018c6119ca565b611d67602083018b6119ca565b611d74604083018a611892565b611d8160608301896118bc565b611d8e60808301886118bc565b611d9b60a0830187611d35565b611da860c0830186611d35565b611db560e08301856119ca565b611dc36101008301846118bc565b9a9950505050505050505050565b600081519050611de08161181a565b92915050565b600080600060608486031215611dff57611dfe6117ad565b5b6000611e0d86828701611dd1565b9350506020611e1e86828701611dd1565b9250506040611e2f86828701611dd1565b915050925092509256fea26469706673582212205df7dae9dca6836a662635b92df65c45fe187f4a3d9967b1e8d1bc88bf23d0b264736f6c63430008180033a26469706673582212202819a0226f8c168b3a51057f3064855652b1bf2839dcd424a4ea8519785d407464736f6c63430008180033","opcodes":"PUSH1 0x80 PUSH1 0x40 MSTORE CALLVALUE DUP1 ISZERO PUSH2 0x10 JUMPI PUSH1 0x0 DUP1 REVERT JUMPDEST POP PUSH2 0x3D76 DUP1 PUSH2 0x20 PUSH1 0x0 CODECOPY PUSH1 0x0 RETURN INVALID PUSH1 0x80 PUSH1 0x40 MSTORE CALLVALUE DUP1 ISZERO PUSH3 0x11 JUMPI PUSH1 0x0 DUP1 REVERT JUMPDEST POP PUSH1 0x4 CALLDATASIZE LT PUSH3 0xA0 JUMPI PUSH1 0x0 CALLDATALOAD PUSH1 0xE0 SHR DUP1 PUSH4 0x6FFC7436 GT PUSH3 0x6F JUMPI DUP1 PUSH4 0x6FFC7436 EQ PUSH3 0x151 JUMPI DUP1 PUSH4 0x7814E750 EQ PUSH3 0x187 JUMPI DUP1 PUSH4 0x88AE3C6B EQ PUSH3 0x1BD JUMPI DUP1 PUSH4 0xA286CB1E EQ PUSH3 0x1DD JUMPI DUP1 PUSH4 0xD0D579AB EQ PUSH3 0x213 JUMPI PUSH3 0xA0 JUMP JUMPDEST DUP1 PUSH4 0x1B007699 EQ PUSH3 0xA5 JUMPI DUP1 PUSH4 0x37A98946 EQ PUSH3 0xDB JUMPI DUP1 PUSH4 0x4A7C974B EQ PUSH3 0x111 JUMPI DUP1 PUSH4 0x4E3F0A01 EQ PUSH3 0x131 JUMPI JUMPDEST PUSH1 0x0 DUP1 REVERT JUMPDEST PUSH3 0xC3 PUSH1 0x4 DUP1 CALLDATASIZE SUB DUP2 ADD SWAP1 PUSH3 0xBD SWAP2 SWAP1 PUSH3 0x90B JUMP JUMPDEST PUSH3 0x249 JUMP JUMPDEST PUSH1 0x40 MLOAD PUSH3 0xD2 SWAP2 SWAP1 PUSH3 0x963 JUMP JUMPDEST PUSH1 0x40 MLOAD DUP1 SWAP2 SUB SWAP1 RETURN JUMPDEST PUSH3 0xF9 PUSH1 0x4 DUP1 CALLDATASIZE SUB DUP2 ADD SWAP1 PUSH3 0xF3 SWAP2 SWAP1 PUSH3 0x980 JUMP JUMPDEST PUSH3 0x298 JUMP JUMPDEST PUSH1 0x40 MLOAD PUSH3 0x108 SWAP2 SWAP1 PUSH3 0xA80 JUMP JUMPDEST PUSH1 0x40 MLOAD DUP1 SWAP2 SUB SWAP1 RETURN JUMPDEST PUSH3 0x12F PUSH1 0x4 DUP1 CALLDATASIZE SUB DUP2 ADD SWAP1 PUSH3 0x129 SWAP2 SWAP1 PUSH3 0xAA4 JUMP JUMPDEST PUSH3 0x366 JUMP JUMPDEST STOP JUMPDEST PUSH3 0x14F PUSH1 0x4 DUP1 CALLDATASIZE SUB DUP2 ADD SWAP1 PUSH3 0x149 SWAP2 SWAP1 PUSH3 0xAA4 JUMP JUMPDEST PUSH3 0x444 JUMP JUMPDEST STOP JUMPDEST PUSH3 0x16F PUSH1 0x4 DUP1 CALLDATASIZE SUB DUP2 ADD SWAP1 PUSH3 0x169 SWAP2 SWAP1 PUSH3 0xC62 JUMP JUMPDEST PUSH3 0x522 JUMP JUMPDEST PUSH1 0x40 MLOAD PUSH3 0x17E SWAP2 SWAP1 PUSH3 0x963 JUMP JUMPDEST PUSH1 0x40 MLOAD DUP1 SWAP2 SUB SWAP1 RETURN JUMPDEST PUSH3 0x1A5 PUSH1 0x4 DUP1 CALLDATASIZE SUB DUP2 ADD SWAP1 PUSH3 0x19F SWAP2 SWAP1 PUSH3 0x980 JUMP JUMPDEST PUSH3 0x56E JUMP JUMPDEST PUSH1 0x40 MLOAD PUSH3 0x1B4 SWAP2 SWAP1 PUSH3 0xCD9 JUMP JUMPDEST PUSH1 0x40 MLOAD DUP1 SWAP2 SUB SWAP1 RETURN JUMPDEST PUSH3 0x1DB PUSH1 0x4 DUP1 CALLDATASIZE SUB DUP2 ADD SWAP1 PUSH3 0x1D5 SWAP2 SWAP1 PUSH3 0xAA4 JUMP JUMPDEST PUSH3 0x5B9 JUMP JUMPDEST STOP JUMPDEST PUSH3 0x1FB PUSH1 0x4 DUP1 CALLDATASIZE SUB DUP2 ADD SWAP1 PUSH3 0x1F5 SWAP2 SWAP1 PUSH3 0xDAA JUMP JUMPDEST PUSH3 0x697 JUMP JUMPDEST PUSH1 0x40 MLOAD PUSH3 0x20A SWAP2 SWAP1 PUSH3 0x963 JUMP JUMPDEST PUSH1 0x40 MLOAD DUP1 SWAP2 SUB SWAP1 RETURN JUMPDEST PUSH3 0x231 PUSH1 0x4 DUP1 CALLDATASIZE SUB DUP2 ADD SWAP1 PUSH3 0x22B SWAP2 SWAP1 PUSH3 0xDAA JUMP JUMPDEST PUSH3 0x7CB JUMP JUMPDEST PUSH1 0x40 MLOAD PUSH3 0x240 SWAP2 SWAP1 PUSH3 0xEB8 JUMP JUMPDEST PUSH1 0x40 MLOAD DUP1 SWAP2 SUB SWAP1 RETURN JUMPDEST PUSH1 0x0 PUSH1 0x20 MSTORE DUP2 PUSH1 0x0 MSTORE PUSH1 0x40 PUSH1 0x0 KECCAK256 DUP2 DUP2 SLOAD DUP2 LT PUSH3 0x266 JUMPI PUSH1 0x0 DUP1 REVERT JUMPDEST SWAP1 PUSH1 0x0 MSTORE PUSH1 0x20 PUSH1 0x0 KECCAK256 ADD PUSH1 0x0 SWAP2 POP SWAP2 POP SWAP1 SLOAD SWAP1 PUSH2 0x100 EXP SWAP1 DIV PUSH20 0xFFFFFFFFFFFFFFFFFFFFFFFFFFFFFFFFFFFFFFFF AND DUP2 JUMP JUMPDEST PUSH1 0x60 PUSH1 0x0 DUP1 DUP4 PUSH20 0xFFFFFFFFFFFFFFFFFFFFFFFFFFFFFFFFFFFFFFFF AND PUSH20 0xFFFFFFFFFFFFFFFFFFFFFFFFFFFFFFFFFFFFFFFF AND DUP2 MSTORE PUSH1 0x20 ADD SWAP1 DUP2 MSTORE PUSH1 0x20 ADD PUSH1 0x0 KECCAK256 DUP1 SLOAD DUP1 PUSH1 0x20 MUL PUSH1 0x20 ADD PUSH1 0x40 MLOAD SWAP1 DUP2 ADD PUSH1 0x40 MSTORE DUP1 SWAP3 SWAP2 SWAP1 DUP2 DUP2 MSTORE PUSH1 0x20 ADD DUP3 DUP1 SLOAD DUP1 ISZERO PUSH3 0x35A JUMPI PUSH1 0x20 MUL DUP3 ADD SWAP2 SWAP1 PUSH1 0x0 MSTORE PUSH1 0x20 PUSH1 0x0 KECCAK256 SWAP1 JUMPDEST DUP2 PUSH1 0x0 SWAP1 SLOAD SWAP1 PUSH2 0x100 EXP SWAP1 DIV PUSH20 0xFFFFFFFFFFFFFFFFFFFFFFFFFFFFFFFFFFFFFFFF AND PUSH20 0xFFFFFFFFFFFFFFFFFFFFFFFFFFFFFFFFFFFFFFFF AND DUP2 MSTORE PUSH1 0x20 ADD SWAP1 PUSH1 0x1 ADD SWAP1 DUP1 DUP4 GT PUSH3 0x30F JUMPI JUMPDEST POP POP POP POP POP SWAP1 POP SWAP2 SWAP1 POP JUMP JUMPDEST PUSH1 0x0 DUP1 PUSH1 0x0 CALLER PUSH20 0xFFFFFFFFFFFFFFFFFFFFFFFFFFFFFFFFFFFFFFFF AND PUSH20 0xFFFFFFFFFFFFFFFFFFFFFFFFFFFFFFFFFFFFFFFF AND DUP2 MSTORE PUSH1 0x20 ADD SWAP1 DUP2 MSTORE PUSH1 0x20 ADD PUSH1 0x0 KECCAK256 DUP1 SLOAD SWAP1 POP GT PUSH3 0x3ED JUMPI PUSH1 0x40 MLOAD PUSH32 0x8C379A000000000000000000000000000000000000000000000000000000000 DUP2 MSTORE PUSH1 0x4 ADD PUSH3 0x3E4 SWAP1 PUSH3 0xF63 JUMP JUMPDEST PUSH1 0x40 MLOAD DUP1 SWAP2 SUB SWAP1 REVERT JUMPDEST DUP3 PUSH20 0xFFFFFFFFFFFFFFFFFFFFFFFFFFFFFFFFFFFFFFFF AND PUSH32 0x27B0834474DC0D53A72607948A7009A1C42DD5AF9FF46BBE01284E407E3750EE DUP4 DUP4 PUSH1 0x40 MLOAD PUSH3 0x437 SWAP3 SWAP2 SWAP1 PUSH3 0xF85 JUMP JUMPDEST PUSH1 0x40 MLOAD DUP1 SWAP2 SUB SWAP1 LOG2 POP POP POP JUMP JUMPDEST PUSH1 0x0 DUP1 PUSH1 0x0 CALLER PUSH20 0xFFFFFFFFFFFFFFFFFFFFFFFFFFFFFFFFFFFFFFFF AND PUSH20 0xFFFFFFFFFFFFFFFFFFFFFFFFFFFFFFFFFFFFFFFF AND DUP2 MSTORE PUSH1 0x20 ADD SWAP1 DUP2 MSTORE PUSH1 0x20 ADD PUSH1 0x0 KECCAK256 DUP1 SLOAD SWAP1 POP GT PUSH3 0x4CB JUMPI PUSH1 0x40 MLOAD PUSH32 0x8C379A000000000000000000000000000000000000000000000000000000000 DUP2 MSTORE PUSH1 0x4 ADD PUSH3 0x4C2 SWAP1 PUSH3 0xF63 JUMP JUMPDEST PUSH1 0x40 MLOAD DUP1 SWAP2 SUB SWAP1 REVERT JUMPDEST DUP3 PUSH20 0xFFFFFFFFFFFFFFFFFFFFFFFFFFFFFFFFFFFFFFFF AND PUSH32 0x1CBC5AB135991BD2B6A4B034A04AA2AA086DAC1371CB9B16B8B5E2ED6B036BED DUP4 DUP4 PUSH1 0x40 MLOAD PUSH3 0x515 SWAP3 SWAP2 SWAP1 PUSH3 0xF85 JUMP JUMPDEST PUSH1 0x40 MLOAD DUP1 SWAP2 SUB SWAP1 LOG2 POP POP POP JUMP JUMPDEST PUSH1 0x0 DUP1 PUSH1 0xFF PUSH1 0xF8 SHL ADDRESS DUP5 DUP7 DUP1 MLOAD SWAP1 PUSH1 0x20 ADD KECCAK256 PUSH1 0x40 MLOAD PUSH1 0x20 ADD PUSH3 0x549 SWAP5 SWAP4 SWAP3 SWAP2 SWAP1 PUSH3 0x10A7 JUMP JUMPDEST PUSH1 0x40 MLOAD PUSH1 0x20 DUP2 DUP4 SUB SUB DUP2 MSTORE SWAP1 PUSH1 0x40 MSTORE DUP1 MLOAD SWAP1 PUSH1 0x20 ADD KECCAK256 SWAP1 POP DUP1 PUSH1 0x0 SHR SWAP2 POP POP SWAP3 SWAP2 POP POP JUMP JUMPDEST PUSH1 0x0 DUP1 PUSH1 0x0 DUP4 PUSH20 0xFFFFFFFFFFFFFFFFFFFFFFFFFFFFFFFFFFFFFFFF AND PUSH20 0xFFFFFFFFFFFFFFFFFFFFFFFFFFFFFFFFFFFFFFFF AND DUP2 MSTORE PUSH1 0x20 ADD SWAP1 DUP2 MSTORE PUSH1 0x20 ADD PUSH1 0x0 KECCAK256 DUP1 SLOAD SWAP1 POP SWAP1 POP SWAP2 SWAP1 POP JUMP JUMPDEST PUSH1 0x0 DUP1 PUSH1 0x0 CALLER PUSH20 0xFFFFFFFFFFFFFFFFFFFFFFFFFFFFFFFFFFFFFFFF AND PUSH20 0xFFFFFFFFFFFFFFFFFFFFFFFFFFFFFFFFFFFFFFFF AND DUP2 MSTORE PUSH1 0x20 ADD SWAP1 DUP2 MSTORE PUSH1 0x20 ADD PUSH1 0x0 KECCAK256 DUP1 SLOAD SWAP1 POP GT PUSH3 0x640 JUMPI PUSH1 0x40 MLOAD PUSH32 0x8C379A000000000000000000000000000000000000000000000000000000000 DUP2 MSTORE PUSH1 0x4 ADD PUSH3 0x637 SWAP1 PUSH3 0xF63 JUMP JUMPDEST PUSH1 0x40 MLOAD DUP1 SWAP2 SUB SWAP1 REVERT JUMPDEST DUP3 PUSH20 0xFFFFFFFFFFFFFFFFFFFFFFFFFFFFFFFFFFFFFFFF AND PUSH32 0xED7A144FAD14804D5C249145E3E0E2B63A9EB455B76AEE5BC92D711E9BBA3E4A DUP4 DUP4 PUSH1 0x40 MLOAD PUSH3 0x68A SWAP3 SWAP2 SWAP1 PUSH3 0xF85 JUMP JUMPDEST PUSH1 0x40 MLOAD DUP1 SWAP2 SUB SWAP1 LOG2 POP POP POP JUMP JUMPDEST PUSH1 0x0 DUP1 PUSH1 0x0 DUP1 CALLER PUSH20 0xFFFFFFFFFFFFFFFFFFFFFFFFFFFFFFFFFFFFFFFF AND PUSH20 0xFFFFFFFFFFFFFFFFFFFFFFFFFFFFFFFFFFFFFFFF AND DUP2 MSTORE PUSH1 0x20 ADD SWAP1 DUP2 MSTORE PUSH1 0x20 ADD PUSH1 0x0 KECCAK256 DUP1 SLOAD SWAP1 POP PUSH1 0x0 SHL DUP5 DUP5 ADDRESS PUSH1 0x40 MLOAD PUSH3 0x6F0 SWAP1 PUSH3 0x849 JUMP JUMPDEST PUSH3 0x6FE SWAP4 SWAP3 SWAP2 SWAP1 PUSH3 0x1149 JUMP JUMPDEST DUP2 SWAP1 PUSH1 0x40 MLOAD DUP1 SWAP2 SUB SWAP1 PUSH1 0x0 CREATE2 SWAP1 POP DUP1 ISZERO DUP1 ISZERO PUSH3 0x71F JUMPI RETURNDATASIZE PUSH1 0x0 DUP1 RETURNDATACOPY RETURNDATASIZE PUSH1 0x0 REVERT JUMPDEST POP SWAP1 POP PUSH1 0x0 DUP1 CALLER PUSH20 0xFFFFFFFFFFFFFFFFFFFFFFFFFFFFFFFFFFFFFFFF AND PUSH20 0xFFFFFFFFFFFFFFFFFFFFFFFFFFFFFFFFFFFFFFFF AND DUP2 MSTORE PUSH1 0x20 ADD SWAP1 DUP2 MSTORE PUSH1 0x20 ADD PUSH1 0x0 KECCAK256 DUP2 SWAP1 DUP1 PUSH1 0x1 DUP2 SLOAD ADD DUP1 DUP3 SSTORE DUP1 SWAP2 POP POP PUSH1 0x1 SWAP1 SUB SWAP1 PUSH1 0x0 MSTORE PUSH1 0x20 PUSH1 0x0 KECCAK256 ADD PUSH1 0x0 SWAP1 SWAP2 SWAP1 SWAP2 SWAP1 SWAP2 PUSH2 0x100 EXP DUP2 SLOAD DUP2 PUSH20 0xFFFFFFFFFFFFFFFFFFFFFFFFFFFFFFFFFFFFFFFF MUL NOT AND SWAP1 DUP4 PUSH20 0xFFFFFFFFFFFFFFFFFFFFFFFFFFFFFFFFFFFFFFFF AND MUL OR SWAP1 SSTORE POP DUP1 SWAP2 POP POP SWAP3 SWAP2 POP POP JUMP JUMPDEST PUSH1 0x60 PUSH1 0x0 PUSH1 0x40 MLOAD DUP1 PUSH1 0x20 ADD PUSH3 0x7E1 SWAP1 PUSH3 0x849 JUMP JUMPDEST PUSH1 0x20 DUP3 ADD DUP2 SUB DUP3 MSTORE PUSH1 0x1F NOT PUSH1 0x1F DUP3 ADD AND PUSH1 0x40 MSTORE POP SWAP1 POP DUP1 DUP5 DUP5 ADDRESS PUSH1 0x40 MLOAD PUSH1 0x20 ADD PUSH3 0x80F SWAP4 SWAP3 SWAP2 SWAP1 PUSH3 0x1149 JUMP JUMPDEST PUSH1 0x40 MLOAD PUSH1 0x20 DUP2 DUP4 SUB SUB DUP2 MSTORE SWAP1 PUSH1 0x40 MSTORE PUSH1 0x40 MLOAD PUSH1 0x20 ADD PUSH3 0x831 SWAP3 SWAP2 SWAP1 PUSH3 0x11D6 JUMP JUMPDEST PUSH1 0x40 MLOAD PUSH1 0x20 DUP2 DUP4 SUB SUB DUP2 MSTORE SWAP1 PUSH1 0x40 MSTORE SWAP2 POP POP SWAP3 SWAP2 POP POP JUMP JUMPDEST PUSH2 0x2B42 DUP1 PUSH3 0x11FF DUP4 CODECOPY ADD SWAP1 JUMP JUMPDEST PUSH1 0x0 PUSH1 0x40 MLOAD SWAP1 POP SWAP1 JUMP JUMPDEST PUSH1 0x0 DUP1 REVERT JUMPDEST PUSH1 0x0 DUP1 REVERT JUMPDEST PUSH1 0x0 PUSH20 0xFFFFFFFFFFFFFFFFFFFFFFFFFFFFFFFFFFFFFFFF DUP3 AND SWAP1 POP SWAP2 SWAP1 POP JUMP JUMPDEST PUSH1 0x0 PUSH3 0x898 DUP3 PUSH3 0x86B JUMP JUMPDEST SWAP1 POP SWAP2 SWAP1 POP JUMP JUMPDEST PUSH3 0x8AA DUP2 PUSH3 0x88B JUMP JUMPDEST DUP2 EQ PUSH3 0x8B6 JUMPI PUSH1 0x0 DUP1 REVERT JUMPDEST POP JUMP JUMPDEST PUSH1 0x0 DUP2 CALLDATALOAD SWAP1 POP PUSH3 0x8CA DUP2 PUSH3 0x89F JUMP JUMPDEST SWAP3 SWAP2 POP POP JUMP JUMPDEST PUSH1 0x0 DUP2 SWAP1 POP SWAP2 SWAP1 POP JUMP JUMPDEST PUSH3 0x8E5 DUP2 PUSH3 0x8D0 JUMP JUMPDEST DUP2 EQ PUSH3 0x8F1 JUMPI PUSH1 0x0 DUP1 REVERT JUMPDEST POP JUMP JUMPDEST PUSH1 0x0 DUP2 CALLDATALOAD SWAP1 POP PUSH3 0x905 DUP2 PUSH3 0x8DA JUMP JUMPDEST SWAP3 SWAP2 POP POP JUMP JUMPDEST PUSH1 0x0 DUP1 PUSH1 0x40 DUP4 DUP6 SUB SLT ISZERO PUSH3 0x925 JUMPI PUSH3 0x924 PUSH3 0x861 JUMP JUMPDEST JUMPDEST PUSH1 0x0 PUSH3 0x935 DUP6 DUP3 DUP7 ADD PUSH3 0x8B9 JUMP JUMPDEST SWAP3 POP POP PUSH1 0x20 PUSH3 0x948 DUP6 DUP3 DUP7 ADD PUSH3 0x8F4 JUMP JUMPDEST SWAP2 POP POP SWAP3 POP SWAP3 SWAP1 POP JUMP JUMPDEST PUSH3 0x95D DUP2 PUSH3 0x88B JUMP JUMPDEST DUP3 MSTORE POP POP JUMP JUMPDEST PUSH1 0x0 PUSH1 0x20 DUP3 ADD SWAP1 POP PUSH3 0x97A PUSH1 0x0 DUP4 ADD DUP5 PUSH3 0x952 JUMP JUMPDEST SWAP3 SWAP2 POP POP JUMP JUMPDEST PUSH1 0x0 PUSH1 0x20 DUP3 DUP5 SUB SLT ISZERO PUSH3 0x999 JUMPI PUSH3 0x998 PUSH3 0x861 JUMP JUMPDEST JUMPDEST PUSH1 0x0 PUSH3 0x9A9 DUP5 DUP3 DUP6 ADD PUSH3 0x8B9 JUMP JUMPDEST SWAP2 POP POP SWAP3 SWAP2 POP POP JUMP JUMPDEST PUSH1 0x0 DUP2 MLOAD SWAP1 POP SWAP2 SWAP1 POP JUMP JUMPDEST PUSH1 0x0 DUP3 DUP3 MSTORE PUSH1 0x20 DUP3 ADD SWAP1 POP SWAP3 SWAP2 POP POP JUMP JUMPDEST PUSH1 0x0 DUP2 SWAP1 POP PUSH1 0x20 DUP3 ADD SWAP1 POP SWAP2 SWAP1 POP JUMP JUMPDEST PUSH3 0x9E9 DUP2 PUSH3 0x88B JUMP JUMPDEST DUP3 MSTORE POP POP JUMP JUMPDEST PUSH1 0x0 PUSH3 0x9FD DUP4 DUP4 PUSH3 0x9DE JUMP JUMPDEST PUSH1 0x20 DUP4 ADD SWAP1 POP SWAP3 SWAP2 POP POP JUMP JUMPDEST PUSH1 0x0 PUSH1 0x20 DUP3 ADD SWAP1 POP SWAP2 SWAP1 POP JUMP JUMPDEST PUSH1 0x0 PUSH3 0xA23 DUP3 PUSH3 0x9B2 JUMP JUMPDEST PUSH3 0xA2F DUP2 DUP6 PUSH3 0x9BD JUMP JUMPDEST SWAP4 POP PUSH3 0xA3C DUP4 PUSH3 0x9CE JUMP JUMPDEST DUP1 PUSH1 0x0 JUMPDEST DUP4 DUP2 LT ISZERO PUSH3 0xA73 JUMPI DUP2 MLOAD PUSH3 0xA57 DUP9 DUP3 PUSH3 0x9EF JUMP JUMPDEST SWAP8 POP PUSH3 0xA64 DUP4 PUSH3 0xA09 JUMP JUMPDEST SWAP3 POP POP PUSH1 0x1 DUP2 ADD SWAP1 POP PUSH3 0xA40 JUMP JUMPDEST POP DUP6 SWAP4 POP POP POP POP SWAP3 SWAP2 POP POP JUMP JUMPDEST PUSH1 0x0 PUSH1 0x20 DUP3 ADD SWAP1 POP DUP2 DUP2 SUB PUSH1 0x0 DUP4 ADD MSTORE PUSH3 0xA9C DUP2 DUP5 PUSH3 0xA16 JUMP JUMPDEST SWAP1 POP SWAP3 SWAP2 POP POP JUMP JUMPDEST PUSH1 0x0 DUP1 PUSH1 0x0 PUSH1 0x60 DUP5 DUP7 SUB SLT ISZERO PUSH3 0xAC0 JUMPI PUSH3 0xABF PUSH3 0x861 JUMP JUMPDEST JUMPDEST PUSH1 0x0 PUSH3 0xAD0 DUP7 DUP3 DUP8 ADD PUSH3 0x8B9 JUMP JUMPDEST SWAP4 POP POP PUSH1 0x20 PUSH3 0xAE3 DUP7 DUP3 DUP8 ADD PUSH3 0x8F4 JUMP JUMPDEST SWAP3 POP POP PUSH1 0x40 PUSH3 0xAF6 DUP7 DUP3 DUP8 ADD PUSH3 0x8F4 JUMP JUMPDEST SWAP2 POP POP SWAP3 POP SWAP3 POP SWAP3 JUMP JUMPDEST PUSH1 0x0 DUP1 REVERT JUMPDEST PUSH1 0x0 DUP1 REVERT JUMPDEST PUSH1 0x0 PUSH1 0x1F NOT PUSH1 0x1F DUP4 ADD AND SWAP1 POP SWAP2 SWAP1 POP JUMP JUMPDEST PUSH32 0x4E487B7100000000000000000000000000000000000000000000000000000000 PUSH1 0x0 MSTORE PUSH1 0x41 PUSH1 0x4 MSTORE PUSH1 0x24 PUSH1 0x0 REVERT JUMPDEST PUSH3 0xB55 DUP3 PUSH3 0xB0A JUMP JUMPDEST DUP2 ADD DUP2 DUP2 LT PUSH8 0xFFFFFFFFFFFFFFFF DUP3 GT OR ISZERO PUSH3 0xB77 JUMPI PUSH3 0xB76 PUSH3 0xB1B JUMP JUMPDEST JUMPDEST DUP1 PUSH1 0x40 MSTORE POP POP POP JUMP JUMPDEST PUSH1 0x0 PUSH3 0xB8C PUSH3 0x857 JUMP JUMPDEST SWAP1 POP PUSH3 0xB9A DUP3 DUP3 PUSH3 0xB4A JUMP JUMPDEST SWAP2 SWAP1 POP JUMP JUMPDEST PUSH1 0x0 PUSH8 0xFFFFFFFFFFFFFFFF DUP3 GT ISZERO PUSH3 0xBBD JUMPI PUSH3 0xBBC PUSH3 0xB1B JUMP JUMPDEST JUMPDEST PUSH3 0xBC8 DUP3 PUSH3 0xB0A JUMP JUMPDEST SWAP1 POP PUSH1 0x20 DUP2 ADD SWAP1 POP SWAP2 SWAP1 POP JUMP JUMPDEST DUP3 DUP2 DUP4 CALLDATACOPY PUSH1 0x0 DUP4 DUP4 ADD MSTORE POP POP POP JUMP JUMPDEST PUSH1 0x0 PUSH3 0xBFB PUSH3 0xBF5 DUP5 PUSH3 0xB9F JUMP JUMPDEST PUSH3 0xB80 JUMP JUMPDEST SWAP1 POP DUP3 DUP2 MSTORE PUSH1 0x20 DUP2 ADD DUP5 DUP5 DUP5 ADD GT ISZERO PUSH3 0xC1A JUMPI PUSH3 0xC19 PUSH3 0xB05 JUMP JUMPDEST JUMPDEST PUSH3 0xC27 DUP5 DUP3 DUP6 PUSH3 0xBD5 JUMP JUMPDEST POP SWAP4 SWAP3 POP POP POP JUMP JUMPDEST PUSH1 0x0 DUP3 PUSH1 0x1F DUP4 ADD SLT PUSH3 0xC47 JUMPI PUSH3 0xC46 PUSH3 0xB00 JUMP JUMPDEST JUMPDEST DUP2 CALLDATALOAD PUSH3 0xC59 DUP5 DUP3 PUSH1 0x20 DUP7 ADD PUSH3 0xBE4 JUMP JUMPDEST SWAP2 POP POP SWAP3 SWAP2 POP POP JUMP JUMPDEST PUSH1 0x0 DUP1 PUSH1 0x40 DUP4 DUP6 SUB SLT ISZERO PUSH3 0xC7C JUMPI PUSH3 0xC7B PUSH3 0x861 JUMP JUMPDEST JUMPDEST PUSH1 0x0 DUP4 ADD CALLDATALOAD PUSH8 0xFFFFFFFFFFFFFFFF DUP2 GT ISZERO PUSH3 0xC9D JUMPI PUSH3 0xC9C PUSH3 0x866 JUMP JUMPDEST JUMPDEST PUSH3 0xCAB DUP6 DUP3 DUP7 ADD PUSH3 0xC2F JUMP JUMPDEST SWAP3 POP POP PUSH1 0x20 PUSH3 0xCBE DUP6 DUP3 DUP7 ADD PUSH3 0x8F4 JUMP JUMPDEST SWAP2 POP POP SWAP3 POP SWAP3 SWAP1 POP JUMP JUMPDEST PUSH3 0xCD3 DUP2 PUSH3 0x8D0 JUMP JUMPDEST DUP3 MSTORE POP POP JUMP JUMPDEST PUSH1 0x0 PUSH1 0x20 DUP3 ADD SWAP1 POP PUSH3 0xCF0 PUSH1 0x0 DUP4 ADD DUP5 PUSH3 0xCC8 JUMP JUMPDEST SWAP3 SWAP2 POP POP JUMP JUMPDEST PUSH1 0x0 PUSH8 0xFFFFFFFFFFFFFFFF DUP3 GT ISZERO PUSH3 0xD14 JUMPI PUSH3 0xD13 PUSH3 0xB1B JUMP JUMPDEST JUMPDEST PUSH3 0xD1F DUP3 PUSH3 0xB0A JUMP JUMPDEST SWAP1 POP PUSH1 0x20 DUP2 ADD SWAP1 POP SWAP2 SWAP1 POP JUMP JUMPDEST PUSH1 0x0 PUSH3 0xD43 PUSH3 0xD3D DUP5 PUSH3 0xCF6 JUMP JUMPDEST PUSH3 0xB80 JUMP JUMPDEST SWAP1 POP DUP3 DUP2 MSTORE PUSH1 0x20 DUP2 ADD DUP5 DUP5 DUP5 ADD GT ISZERO PUSH3 0xD62 JUMPI PUSH3 0xD61 PUSH3 0xB05 JUMP JUMPDEST JUMPDEST PUSH3 0xD6F DUP5 DUP3 DUP6 PUSH3 0xBD5 JUMP JUMPDEST POP SWAP4 SWAP3 POP POP POP JUMP JUMPDEST PUSH1 0x0 DUP3 PUSH1 0x1F DUP4 ADD SLT PUSH3 0xD8F JUMPI PUSH3 0xD8E PUSH3 0xB00 JUMP JUMPDEST JUMPDEST DUP2 CALLDATALOAD PUSH3 0xDA1 DUP5 DUP3 PUSH1 0x20 DUP7 ADD PUSH3 0xD2C JUMP JUMPDEST SWAP2 POP POP SWAP3 SWAP2 POP POP JUMP JUMPDEST PUSH1 0x0 DUP1 PUSH1 0x40 DUP4 DUP6 SUB SLT ISZERO PUSH3 0xDC4 JUMPI PUSH3 0xDC3 PUSH3 0x861 JUMP JUMPDEST JUMPDEST PUSH1 0x0 DUP4 ADD CALLDATALOAD PUSH8 0xFFFFFFFFFFFFFFFF DUP2 GT ISZERO PUSH3 0xDE5 JUMPI PUSH3 0xDE4 PUSH3 0x866 JUMP JUMPDEST JUMPDEST PUSH3 0xDF3 DUP6 DUP3 DUP7 ADD PUSH3 0xD77 JUMP JUMPDEST SWAP3 POP POP PUSH1 0x20 DUP4 ADD CALLDATALOAD PUSH8 0xFFFFFFFFFFFFFFFF DUP2 GT ISZERO PUSH3 0xE17 JUMPI PUSH3 0xE16 PUSH3 0x866 JUMP JUMPDEST JUMPDEST PUSH3 0xE25 DUP6 DUP3 DUP7 ADD PUSH3 0xD77 JUMP JUMPDEST SWAP2 POP POP SWAP3 POP SWAP3 SWAP1 POP JUMP JUMPDEST PUSH1 0x0 DUP2 MLOAD SWAP1 POP SWAP2 SWAP1 POP JUMP JUMPDEST PUSH1 0x0 DUP3 DUP3 MSTORE PUSH1 0x20 DUP3 ADD SWAP1 POP SWAP3 SWAP2 POP POP JUMP JUMPDEST PUSH1 0x0 JUMPDEST DUP4 DUP2 LT ISZERO PUSH3 0xE6B JUMPI DUP1 DUP3 ADD MLOAD DUP2 DUP5 ADD MSTORE PUSH1 0x20 DUP2 ADD SWAP1 POP PUSH3 0xE4E JUMP JUMPDEST PUSH1 0x0 DUP5 DUP5 ADD MSTORE POP POP POP POP JUMP JUMPDEST PUSH1 0x0 PUSH3 0xE84 DUP3 PUSH3 0xE2F JUMP JUMPDEST PUSH3 0xE90 DUP2 DUP6 PUSH3 0xE3A JUMP JUMPDEST SWAP4 POP PUSH3 0xEA2 DUP2 DUP6 PUSH1 0x20 DUP7 ADD PUSH3 0xE4B JUMP JUMPDEST PUSH3 0xEAD DUP2 PUSH3 0xB0A JUMP JUMPDEST DUP5 ADD SWAP2 POP POP SWAP3 SWAP2 POP POP JUMP JUMPDEST PUSH1 0x0 PUSH1 0x20 DUP3 ADD SWAP1 POP DUP2 DUP2 SUB PUSH1 0x0 DUP4 ADD MSTORE PUSH3 0xED4 DUP2 DUP5 PUSH3 0xE77 JUMP JUMPDEST SWAP1 POP SWAP3 SWAP2 POP POP JUMP JUMPDEST PUSH1 0x0 DUP3 DUP3 MSTORE PUSH1 0x20 DUP3 ADD SWAP1 POP SWAP3 SWAP2 POP POP JUMP JUMPDEST PUSH32 0x4F6E6C792050756D706572546F6B656E2063616E2063616C6C20746869732066 PUSH1 0x0 DUP3 ADD MSTORE PUSH32 0x756E6374696F6E00000000000000000000000000000000000000000000000000 PUSH1 0x20 DUP3 ADD MSTORE POP JUMP JUMPDEST PUSH1 0x0 PUSH3 0xF4B PUSH1 0x27 DUP4 PUSH3 0xEDC JUMP JUMPDEST SWAP2 POP PUSH3 0xF58 DUP3 PUSH3 0xEED JUMP JUMPDEST PUSH1 0x40 DUP3 ADD SWAP1 POP SWAP2 SWAP1 POP JUMP JUMPDEST PUSH1 0x0 PUSH1 0x20 DUP3 ADD SWAP1 POP DUP2 DUP2 SUB PUSH1 0x0 DUP4 ADD MSTORE PUSH3 0xF7E DUP2 PUSH3 0xF3C JUMP JUMPDEST SWAP1 POP SWAP2 SWAP1 POP JUMP JUMPDEST PUSH1 0x0 PUSH1 0x40 DUP3 ADD SWAP1 POP PUSH3 0xF9C PUSH1 0x0 DUP4 ADD DUP6 PUSH3 0xCC8 JUMP JUMPDEST PUSH3 0xFAB PUSH1 0x20 DUP4 ADD DUP5 PUSH3 0xCC8 JUMP JUMPDEST SWAP4 SWAP3 POP POP POP JUMP JUMPDEST PUSH1 0x0 PUSH32 0xFF00000000000000000000000000000000000000000000000000000000000000 DUP3 AND SWAP1 POP SWAP2 SWAP1 POP JUMP JUMPDEST PUSH1 0x0 DUP2 SWAP1 POP SWAP2 SWAP1 POP JUMP JUMPDEST PUSH3 0xFFD PUSH3 0xFF7 DUP3 PUSH3 0xFB2 JUMP JUMPDEST PUSH3 0xFDE JUMP JUMPDEST DUP3 MSTORE POP POP JUMP JUMPDEST PUSH1 0x0 DUP2 PUSH1 0x60 SHL SWAP1 POP SWAP2 SWAP1 POP JUMP JUMPDEST PUSH1 0x0 PUSH3 0x101D DUP3 PUSH3 0x1003 JUMP JUMPDEST SWAP1 POP SWAP2 SWAP1 POP JUMP JUMPDEST PUSH1 0x0 PUSH3 0x1031 DUP3 PUSH3 0x1010 JUMP JUMPDEST SWAP1 POP SWAP2 SWAP1 POP JUMP JUMPDEST PUSH3 0x104D PUSH3 0x1047 DUP3 PUSH3 0x88B JUMP JUMPDEST PUSH3 0x1024 JUMP JUMPDEST DUP3 MSTORE POP POP JUMP JUMPDEST PUSH1 0x0 DUP2 SWAP1 POP SWAP2 SWAP1 POP JUMP JUMPDEST PUSH3 0x1072 PUSH3 0x106C DUP3 PUSH3 0x8D0 JUMP JUMPDEST PUSH3 0x1053 JUMP JUMPDEST DUP3 MSTORE POP POP JUMP JUMPDEST PUSH1 0x0 DUP2 SWAP1 POP SWAP2 SWAP1 POP JUMP JUMPDEST PUSH1 0x0 DUP2 SWAP1 POP SWAP2 SWAP1 POP JUMP JUMPDEST PUSH3 0x10A1 PUSH3 0x109B DUP3 PUSH3 0x1078 JUMP JUMPDEST PUSH3 0x1082 JUMP JUMPDEST DUP3 MSTORE POP POP JUMP JUMPDEST PUSH1 0x0 PUSH3 0x10B5 DUP3 DUP8 PUSH3 0xFE8 JUMP JUMPDEST PUSH1 0x1 DUP3 ADD SWAP2 POP PUSH3 0x10C7 DUP3 DUP7 PUSH3 0x1038 JUMP JUMPDEST PUSH1 0x14 DUP3 ADD SWAP2 POP PUSH3 0x10D9 DUP3 DUP6 PUSH3 0x105D JUMP JUMPDEST PUSH1 0x20 DUP3 ADD SWAP2 POP PUSH3 0x10EB DUP3 DUP5 PUSH3 0x108C JUMP JUMPDEST PUSH1 0x20 DUP3 ADD SWAP2 POP DUP2 SWAP1 POP SWAP6 SWAP5 POP POP POP POP POP JUMP JUMPDEST PUSH1 0x0 DUP2 MLOAD SWAP1 POP SWAP2 SWAP1 POP JUMP JUMPDEST PUSH1 0x0 PUSH3 0x1115 DUP3 PUSH3 0x10FD JUMP JUMPDEST PUSH3 0x1121 DUP2 DUP6 PUSH3 0xEDC JUMP JUMPDEST SWAP4 POP PUSH3 0x1133 DUP2 DUP6 PUSH1 0x20 DUP7 ADD PUSH3 0xE4B JUMP JUMPDEST PUSH3 0x113E DUP2 PUSH3 0xB0A JUMP JUMPDEST DUP5 ADD SWAP2 POP POP SWAP3 SWAP2 POP POP JUMP JUMPDEST PUSH1 0x0 PUSH1 0x60 DUP3 ADD SWAP1 POP DUP2 DUP2 SUB PUSH1 0x0 DUP4 ADD MSTORE PUSH3 0x1165 DUP2 DUP7 PUSH3 0x1108 JUMP JUMPDEST SWAP1 POP DUP2 DUP2 SUB PUSH1 0x20 DUP4 ADD MSTORE PUSH3 0x117B DUP2 DUP6 PUSH3 0x1108 JUMP JUMPDEST SWAP1 POP PUSH3 0x118C PUSH1 0x40 DUP4 ADD DUP5 PUSH3 0x952 JUMP JUMPDEST SWAP5 SWAP4 POP POP POP POP JUMP JUMPDEST PUSH1 0x0 DUP2 SWAP1 POP SWAP3 SWAP2 POP POP JUMP JUMPDEST PUSH1 0x0 PUSH3 0x11AC DUP3 PUSH3 0xE2F JUMP JUMPDEST PUSH3 0x11B8 DUP2 DUP6 PUSH3 0x1194 JUMP JUMPDEST SWAP4 POP PUSH3 0x11CA DUP2 DUP6 PUSH1 0x20 DUP7 ADD PUSH3 0xE4B JUMP JUMPDEST DUP1 DUP5 ADD SWAP2 POP POP SWAP3 SWAP2 POP POP JUMP JUMPDEST PUSH1 0x0 PUSH3 0x11E4 DUP3 DUP6 PUSH3 0x119F JUMP JUMPDEST SWAP2 POP PUSH3 0x11F2 DUP3 DUP5 PUSH3 0x119F JUMP JUMPDEST SWAP2 POP DUP2 SWAP1 POP SWAP4 SWAP3 POP POP POP JUMP INVALID PUSH1 0x80 PUSH1 0x40 MSTORE PUSH8 0x16345785D8A0000 PUSH1 0x7 SSTORE PUSH4 0x3B9ACA00 PUSH1 0x9 SSTORE PUSH20 0x1C9F7DEF9B509D0D64A2ADCE6F73F235147AB7F1 PUSH1 0xD PUSH1 0x0 PUSH2 0x100 EXP DUP2 SLOAD DUP2 PUSH20 0xFFFFFFFFFFFFFFFFFFFFFFFFFFFFFFFFFFFFFFFF MUL NOT AND SWAP1 DUP4 PUSH20 0xFFFFFFFFFFFFFFFFFFFFFFFFFFFFFFFFFFFFFFFF AND MUL OR SWAP1 SSTORE POP PUSH20 0xB97582DCB6F2866098CA210095A04DF3E11B76A6 PUSH1 0xE PUSH1 0x0 PUSH2 0x100 EXP DUP2 SLOAD DUP2 PUSH20 0xFFFFFFFFFFFFFFFFFFFFFFFFFFFFFFFFFFFFFFFF MUL NOT AND SWAP1 DUP4 PUSH20 0xFFFFFFFFFFFFFFFFFFFFFFFFFFFFFFFFFFFFFFFF AND MUL OR SWAP1 SSTORE POP CALLVALUE DUP1 ISZERO PUSH3 0xCF JUMPI PUSH1 0x0 DUP1 REVERT JUMPDEST POP PUSH1 0x40 MLOAD PUSH3 0x2B42 CODESIZE SUB DUP1 PUSH3 0x2B42 DUP4 CODECOPY DUP2 DUP2 ADD PUSH1 0x40 MSTORE DUP2 ADD SWAP1 PUSH3 0xF5 SWAP2 SWAP1 PUSH3 0x7A9 JUMP JUMPDEST CALLER DUP4 DUP4 DUP2 PUSH1 0x3 SWAP1 DUP2 PUSH3 0x109 SWAP2 SWAP1 PUSH3 0xA8E JUMP JUMPDEST POP DUP1 PUSH1 0x4 SWAP1 DUP2 PUSH3 0x11B SWAP2 SWAP1 PUSH3 0xA8E JUMP JUMPDEST POP POP POP PUSH1 0x0 PUSH20 0xFFFFFFFFFFFFFFFFFFFFFFFFFFFFFFFFFFFFFFFF AND DUP2 PUSH20 0xFFFFFFFFFFFFFFFFFFFFFFFFFFFFFFFFFFFFFFFF AND SUB PUSH3 0x193 JUMPI PUSH1 0x0 PUSH1 0x40 MLOAD PUSH32 0x1E4FBDF700000000000000000000000000000000000000000000000000000000 DUP2 MSTORE PUSH1 0x4 ADD PUSH3 0x18A SWAP2 SWAP1 PUSH3 0xB86 JUMP JUMPDEST PUSH1 0x40 MLOAD DUP1 SWAP2 SUB SWAP1 REVERT JUMPDEST PUSH3 0x1A4 DUP2 PUSH3 0x22E PUSH1 0x20 SHL PUSH1 0x20 SHR JUMP JUMPDEST POP PUSH12 0x33B2E3C9FD0803CE8000000 PUSH1 0x8 DUP2 SWAP1 SSTORE POP PUSH3 0x1CC ADDRESS PUSH1 0x8 SLOAD PUSH3 0x2F4 PUSH1 0x20 SHL PUSH1 0x20 SHR JUMP JUMPDEST PUSH1 0x9 SLOAD PUSH1 0x8 SLOAD PUSH3 0x1DE SWAP2 SWAP1 PUSH3 0xBD2 JUMP JUMPDEST PUSH1 0xA DUP2 SWAP1 SSTORE POP DUP1 PUSH1 0xC PUSH1 0x0 PUSH2 0x100 EXP DUP2 SLOAD DUP2 PUSH20 0xFFFFFFFFFFFFFFFFFFFFFFFFFFFFFFFFFFFFFFFF MUL NOT AND SWAP1 DUP4 PUSH20 0xFFFFFFFFFFFFFFFFFFFFFFFFFFFFFFFFFFFFFFFF AND MUL OR SWAP1 SSTORE POP POP POP POP PUSH3 0xCC3 JUMP JUMPDEST PUSH1 0x0 PUSH1 0x5 PUSH1 0x0 SWAP1 SLOAD SWAP1 PUSH2 0x100 EXP SWAP1 DIV PUSH20 0xFFFFFFFFFFFFFFFFFFFFFFFFFFFFFFFFFFFFFFFF AND SWAP1 POP DUP2 PUSH1 0x5 PUSH1 0x0 PUSH2 0x100 EXP DUP2 SLOAD DUP2 PUSH20 0xFFFFFFFFFFFFFFFFFFFFFFFFFFFFFFFFFFFFFFFF MUL NOT AND SWAP1 DUP4 PUSH20 0xFFFFFFFFFFFFFFFFFFFFFFFFFFFFFFFFFFFFFFFF AND MUL OR SWAP1 SSTORE POP DUP2 PUSH20 0xFFFFFFFFFFFFFFFFFFFFFFFFFFFFFFFFFFFFFFFF AND DUP2 PUSH20 0xFFFFFFFFFFFFFFFFFFFFFFFFFFFFFFFFFFFFFFFF AND PUSH32 0x8BE0079C531659141344CD1FD0A4F28419497F9722A3DAAFE3B4186F6B6457E0 PUSH1 0x40 MLOAD PUSH1 0x40 MLOAD DUP1 SWAP2 SUB SWAP1 LOG3 POP POP JUMP JUMPDEST PUSH1 0x0 PUSH20 0xFFFFFFFFFFFFFFFFFFFFFFFFFFFFFFFFFFFFFFFF AND DUP3 PUSH20 0xFFFFFFFFFFFFFFFFFFFFFFFFFFFFFFFFFFFFFFFF AND SUB PUSH3 0x369 JUMPI PUSH1 0x0 PUSH1 0x40 MLOAD PUSH32 0xEC442F0500000000000000000000000000000000000000000000000000000000 DUP2 MSTORE PUSH1 0x4 ADD PUSH3 0x360 SWAP2 SWAP1 PUSH3 0xB86 JUMP JUMPDEST PUSH1 0x40 MLOAD DUP1 SWAP2 SUB SWAP1 REVERT JUMPDEST PUSH3 0x37D PUSH1 0x0 DUP4 DUP4 PUSH3 0x381 PUSH1 0x20 SHL PUSH1 0x20 SHR JUMP JUMPDEST POP POP JUMP JUMPDEST PUSH1 0x0 PUSH20 0xFFFFFFFFFFFFFFFFFFFFFFFFFFFFFFFFFFFFFFFF AND DUP4 PUSH20 0xFFFFFFFFFFFFFFFFFFFFFFFFFFFFFFFFFFFFFFFF AND SUB PUSH3 0x3D7 JUMPI DUP1 PUSH1 0x2 PUSH1 0x0 DUP3 DUP3 SLOAD PUSH3 0x3CA SWAP2 SWAP1 PUSH3 0xC1D JUMP JUMPDEST SWAP3 POP POP DUP2 SWAP1 SSTORE POP PUSH3 0x4AD JUMP JUMPDEST PUSH1 0x0 DUP1 PUSH1 0x0 DUP6 PUSH20 0xFFFFFFFFFFFFFFFFFFFFFFFFFFFFFFFFFFFFFFFF AND PUSH20 0xFFFFFFFFFFFFFFFFFFFFFFFFFFFFFFFFFFFFFFFF AND DUP2 MSTORE PUSH1 0x20 ADD SWAP1 DUP2 MSTORE PUSH1 0x20 ADD PUSH1 0x0 KECCAK256 SLOAD SWAP1 POP DUP2 DUP2 LT ISZERO PUSH3 0x466 JUMPI DUP4 DUP2 DUP4 PUSH1 0x40 MLOAD PUSH32 0xE450D38C00000000000000000000000000000000000000000000000000000000 DUP2 MSTORE PUSH1 0x4 ADD PUSH3 0x45D SWAP4 SWAP3 SWAP2 SWAP1 PUSH3 0xC69 JUMP JUMPDEST PUSH1 0x40 MLOAD DUP1 SWAP2 SUB SWAP1 REVERT JUMPDEST DUP2 DUP2 SUB PUSH1 0x0 DUP1 DUP7 PUSH20 0xFFFFFFFFFFFFFFFFFFFFFFFFFFFFFFFFFFFFFFFF AND PUSH20 0xFFFFFFFFFFFFFFFFFFFFFFFFFFFFFFFFFFFFFFFF AND DUP2 MSTORE PUSH1 0x20 ADD SWAP1 DUP2 MSTORE PUSH1 0x20 ADD PUSH1 0x0 KECCAK256 DUP2 SWAP1 SSTORE POP POP JUMPDEST PUSH1 0x0 PUSH20 0xFFFFFFFFFFFFFFFFFFFFFFFFFFFFFFFFFFFFFFFF AND DUP3 PUSH20 0xFFFFFFFFFFFFFFFFFFFFFFFFFFFFFFFFFFFFFFFF AND SUB PUSH3 0x4F8 JUMPI DUP1 PUSH1 0x2 PUSH1 0x0 DUP3 DUP3 SLOAD SUB SWAP3 POP POP DUP2 SWAP1 SSTORE POP PUSH3 0x545 JUMP JUMPDEST DUP1 PUSH1 0x0 DUP1 DUP5 PUSH20 0xFFFFFFFFFFFFFFFFFFFFFFFFFFFFFFFFFFFFFFFF AND PUSH20 0xFFFFFFFFFFFFFFFFFFFFFFFFFFFFFFFFFFFFFFFF AND DUP2 MSTORE PUSH1 0x20 ADD SWAP1 DUP2 MSTORE PUSH1 0x20 ADD PUSH1 0x0 KECCAK256 PUSH1 0x0 DUP3 DUP3 SLOAD ADD SWAP3 POP POP DUP2 SWAP1 SSTORE POP JUMPDEST DUP2 PUSH20 0xFFFFFFFFFFFFFFFFFFFFFFFFFFFFFFFFFFFFFFFF AND DUP4 PUSH20 0xFFFFFFFFFFFFFFFFFFFFFFFFFFFFFFFFFFFFFFFF AND PUSH32 0xDDF252AD1BE2C89B69C2B068FC378DAA952BA7F163C4A11628F55A4DF523B3EF DUP4 PUSH1 0x40 MLOAD PUSH3 0x5A4 SWAP2 SWAP1 PUSH3 0xCA6 JUMP JUMPDEST PUSH1 0x40 MLOAD DUP1 SWAP2 SUB SWAP1 LOG3 POP POP POP JUMP JUMPDEST PUSH1 0x0 PUSH1 0x40 MLOAD SWAP1 POP SWAP1 JUMP JUMPDEST PUSH1 0x0 DUP1 REVERT JUMPDEST PUSH1 0x0 DUP1 REVERT JUMPDEST PUSH1 0x0 DUP1 REVERT JUMPDEST PUSH1 0x0 DUP1 REVERT JUMPDEST PUSH1 0x0 PUSH1 0x1F NOT PUSH1 0x1F DUP4 ADD AND SWAP1 POP SWAP2 SWAP1 POP JUMP JUMPDEST PUSH32 0x4E487B7100000000000000000000000000000000000000000000000000000000 PUSH1 0x0 MSTORE PUSH1 0x41 PUSH1 0x4 MSTORE PUSH1 0x24 PUSH1 0x0 REVERT JUMPDEST PUSH3 0x61A DUP3 PUSH3 0x5CF JUMP JUMPDEST DUP2 ADD DUP2 DUP2 LT PUSH8 0xFFFFFFFFFFFFFFFF DUP3 GT OR ISZERO PUSH3 0x63C JUMPI PUSH3 0x63B PUSH3 0x5E0 JUMP JUMPDEST JUMPDEST DUP1 PUSH1 0x40 MSTORE POP POP POP JUMP JUMPDEST PUSH1 0x0 PUSH3 0x651 PUSH3 0x5B1 JUMP JUMPDEST SWAP1 POP PUSH3 0x65F DUP3 DUP3 PUSH3 0x60F JUMP JUMPDEST SWAP2 SWAP1 POP JUMP JUMPDEST PUSH1 0x0 PUSH8 0xFFFFFFFFFFFFFFFF DUP3 GT ISZERO PUSH3 0x682 JUMPI PUSH3 0x681 PUSH3 0x5E0 JUMP JUMPDEST JUMPDEST PUSH3 0x68D DUP3 PUSH3 0x5CF JUMP JUMPDEST SWAP1 POP PUSH1 0x20 DUP2 ADD SWAP1 POP SWAP2 SWAP1 POP JUMP JUMPDEST PUSH1 0x0 JUMPDEST DUP4 DUP2 LT ISZERO PUSH3 0x6BA JUMPI DUP1 DUP3 ADD MLOAD DUP2 DUP5 ADD MSTORE PUSH1 0x20 DUP2 ADD SWAP1 POP PUSH3 0x69D JUMP JUMPDEST PUSH1 0x0 DUP5 DUP5 ADD MSTORE POP POP POP POP JUMP JUMPDEST PUSH1 0x0 PUSH3 0x6DD PUSH3 0x6D7 DUP5 PUSH3 0x664 JUMP JUMPDEST PUSH3 0x645 JUMP JUMPDEST SWAP1 POP DUP3 DUP2 MSTORE PUSH1 0x20 DUP2 ADD DUP5 DUP5 DUP5 ADD GT ISZERO PUSH3 0x6FC JUMPI PUSH3 0x6FB PUSH3 0x5CA JUMP JUMPDEST JUMPDEST PUSH3 0x709 DUP5 DUP3 DUP6 PUSH3 0x69A JUMP JUMPDEST POP SWAP4 SWAP3 POP POP POP JUMP JUMPDEST PUSH1 0x0 DUP3 PUSH1 0x1F DUP4 ADD SLT PUSH3 0x729 JUMPI PUSH3 0x728 PUSH3 0x5C5 JUMP JUMPDEST JUMPDEST DUP2 MLOAD PUSH3 0x73B DUP5 DUP3 PUSH1 0x20 DUP7 ADD PUSH3 0x6C6 JUMP JUMPDEST SWAP2 POP POP SWAP3 SWAP2 POP POP JUMP JUMPDEST PUSH1 0x0 PUSH20 0xFFFFFFFFFFFFFFFFFFFFFFFFFFFFFFFFFFFFFFFF DUP3 AND SWAP1 POP SWAP2 SWAP1 POP JUMP JUMPDEST PUSH1 0x0 PUSH3 0x771 DUP3 PUSH3 0x744 JUMP JUMPDEST SWAP1 POP SWAP2 SWAP1 POP JUMP JUMPDEST PUSH3 0x783 DUP2 PUSH3 0x764 JUMP JUMPDEST DUP2 EQ PUSH3 0x78F JUMPI PUSH1 0x0 DUP1 REVERT JUMPDEST POP JUMP JUMPDEST PUSH1 0x0 DUP2 MLOAD SWAP1 POP PUSH3 0x7A3 DUP2 PUSH3 0x778 JUMP JUMPDEST SWAP3 SWAP2 POP POP JUMP JUMPDEST PUSH1 0x0 DUP1 PUSH1 0x0 PUSH1 0x60 DUP5 DUP7 SUB SLT ISZERO PUSH3 0x7C5 JUMPI PUSH3 0x7C4 PUSH3 0x5BB JUMP JUMPDEST JUMPDEST PUSH1 0x0 DUP5 ADD MLOAD PUSH8 0xFFFFFFFFFFFFFFFF DUP2 GT ISZERO PUSH3 0x7E6 JUMPI PUSH3 0x7E5 PUSH3 0x5C0 JUMP JUMPDEST JUMPDEST PUSH3 0x7F4 DUP7 DUP3 DUP8 ADD PUSH3 0x711 JUMP JUMPDEST SWAP4 POP POP PUSH1 0x20 DUP5 ADD MLOAD PUSH8 0xFFFFFFFFFFFFFFFF DUP2 GT ISZERO PUSH3 0x818 JUMPI PUSH3 0x817 PUSH3 0x5C0 JUMP JUMPDEST JUMPDEST PUSH3 0x826 DUP7 DUP3 DUP8 ADD PUSH3 0x711 JUMP JUMPDEST SWAP3 POP POP PUSH1 0x40 PUSH3 0x839 DUP7 DUP3 DUP8 ADD PUSH3 0x792 JUMP JUMPDEST SWAP2 POP POP SWAP3 POP SWAP3 POP SWAP3 JUMP JUMPDEST PUSH1 0x0 DUP2 MLOAD SWAP1 POP SWAP2 SWAP1 POP JUMP JUMPDEST PUSH32 0x4E487B7100000000000000000000000000000000000000000000000000000000 PUSH1 0x0 MSTORE PUSH1 0x22 PUSH1 0x4 MSTORE PUSH1 0x24 PUSH1 0x0 REVERT JUMPDEST PUSH1 0x0 PUSH1 0x2 DUP3 DIV SWAP1 POP PUSH1 0x1 DUP3 AND DUP1 PUSH3 0x896 JUMPI PUSH1 0x7F DUP3 AND SWAP2 POP JUMPDEST PUSH1 0x20 DUP3 LT DUP2 SUB PUSH3 0x8AC JUMPI PUSH3 0x8AB PUSH3 0x84E JUMP JUMPDEST JUMPDEST POP SWAP2 SWAP1 POP JUMP JUMPDEST PUSH1 0x0 DUP2 SWAP1 POP DUP2 PUSH1 0x0 MSTORE PUSH1 0x20 PUSH1 0x0 KECCAK256 SWAP1 POP SWAP2 SWAP1 POP JUMP JUMPDEST PUSH1 0x0 PUSH1 0x20 PUSH1 0x1F DUP4 ADD DIV SWAP1 POP SWAP2 SWAP1 POP JUMP JUMPDEST PUSH1 0x0 DUP3 DUP3 SHL SWAP1 POP SWAP3 SWAP2 POP POP JUMP JUMPDEST PUSH1 0x0 PUSH1 0x8 DUP4 MUL PUSH3 0x916 PUSH32 0xFFFFFFFFFFFFFFFFFFFFFFFFFFFFFFFFFFFFFFFFFFFFFFFFFFFFFFFFFFFFFFFF DUP3 PUSH3 0x8D7 JUMP JUMPDEST PUSH3 0x922 DUP7 DUP4 PUSH3 0x8D7 JUMP JUMPDEST SWAP6 POP DUP1 NOT DUP5 AND SWAP4 POP DUP1 DUP7 AND DUP5 OR SWAP3 POP POP POP SWAP4 SWAP3 POP POP POP JUMP JUMPDEST PUSH1 0x0 DUP2 SWAP1 POP SWAP2 SWAP1 POP JUMP JUMPDEST PUSH1 0x0 DUP2 SWAP1 POP SWAP2 SWAP1 POP JUMP JUMPDEST PUSH1 0x0 PUSH3 0x96F PUSH3 0x969 PUSH3 0x963 DUP5 PUSH3 0x93A JUMP JUMPDEST PUSH3 0x944 JUMP JUMPDEST PUSH3 0x93A JUMP JUMPDEST SWAP1 POP SWAP2 SWAP1 POP JUMP JUMPDEST PUSH1 0x0 DUP2 SWAP1 POP SWAP2 SWAP1 POP JUMP JUMPDEST PUSH3 0x98B DUP4 PUSH3 0x94E JUMP JUMPDEST PUSH3 0x9A3 PUSH3 0x99A DUP3 PUSH3 0x976 JUMP JUMPDEST DUP5 DUP5 SLOAD PUSH3 0x8E4 JUMP JUMPDEST DUP3 SSTORE POP POP POP POP JUMP JUMPDEST PUSH1 0x0 SWAP1 JUMP JUMPDEST PUSH3 0x9BA PUSH3 0x9AB JUMP JUMPDEST PUSH3 0x9C7 DUP2 DUP5 DUP5 PUSH3 0x980 JUMP JUMPDEST POP POP POP JUMP JUMPDEST JUMPDEST DUP2 DUP2 LT ISZERO PUSH3 0x9EF JUMPI PUSH3 0x9E3 PUSH1 0x0 DUP3 PUSH3 0x9B0 JUMP JUMPDEST PUSH1 0x1 DUP2 ADD SWAP1 POP PUSH3 0x9CD JUMP JUMPDEST POP POP JUMP JUMPDEST PUSH1 0x1F DUP3 GT ISZERO PUSH3 0xA3E JUMPI PUSH3 0xA08 DUP2 PUSH3 0x8B2 JUMP JUMPDEST PUSH3 0xA13 DUP5 PUSH3 0x8C7 JUMP JUMPDEST DUP2 ADD PUSH1 0x20 DUP6 LT ISZERO PUSH3 0xA23 JUMPI DUP2 SWAP1 POP JUMPDEST PUSH3 0xA3B PUSH3 0xA32 DUP6 PUSH3 0x8C7 JUMP JUMPDEST DUP4 ADD DUP3 PUSH3 0x9CC JUMP JUMPDEST POP POP JUMPDEST POP POP POP JUMP JUMPDEST PUSH1 0x0 DUP3 DUP3 SHR SWAP1 POP SWAP3 SWAP2 POP POP JUMP JUMPDEST PUSH1 0x0 PUSH3 0xA63 PUSH1 0x0 NOT DUP5 PUSH1 0x8 MUL PUSH3 0xA43 JUMP JUMPDEST NOT DUP1 DUP4 AND SWAP2 POP POP SWAP3 SWAP2 POP POP JUMP JUMPDEST PUSH1 0x0 PUSH3 0xA7E DUP4 DUP4 PUSH3 0xA50 JUMP JUMPDEST SWAP2 POP DUP3 PUSH1 0x2 MUL DUP3 OR SWAP1 POP SWAP3 SWAP2 POP POP JUMP JUMPDEST PUSH3 0xA99 DUP3 PUSH3 0x843 JUMP JUMPDEST PUSH8 0xFFFFFFFFFFFFFFFF DUP2 GT ISZERO PUSH3 0xAB5 JUMPI PUSH3 0xAB4 PUSH3 0x5E0 JUMP JUMPDEST JUMPDEST PUSH3 0xAC1 DUP3 SLOAD PUSH3 0x87D JUMP JUMPDEST PUSH3 0xACE DUP3 DUP3 DUP6 PUSH3 0x9F3 JUMP JUMPDEST PUSH1 0x0 PUSH1 0x20 SWAP1 POP PUSH1 0x1F DUP4 GT PUSH1 0x1 DUP2 EQ PUSH3 0xB06 JUMPI PUSH1 0x0 DUP5 ISZERO PUSH3 0xAF1 JUMPI DUP3 DUP8 ADD MLOAD SWAP1 POP JUMPDEST PUSH3 0xAFD DUP6 DUP3 PUSH3 0xA70 JUMP JUMPDEST DUP7 SSTORE POP PUSH3 0xB6D JUMP JUMPDEST PUSH1 0x1F NOT DUP5 AND PUSH3 0xB16 DUP7 PUSH3 0x8B2 JUMP JUMPDEST PUSH1 0x0 JUMPDEST DUP3 DUP2 LT ISZERO PUSH3 0xB40 JUMPI DUP5 DUP10 ADD MLOAD DUP3 SSTORE PUSH1 0x1 DUP3 ADD SWAP2 POP PUSH1 0x20 DUP6 ADD SWAP5 POP PUSH1 0x20 DUP2 ADD SWAP1 POP PUSH3 0xB19 JUMP JUMPDEST DUP7 DUP4 LT ISZERO PUSH3 0xB60 JUMPI DUP5 DUP10 ADD MLOAD PUSH3 0xB5C PUSH1 0x1F DUP10 AND DUP3 PUSH3 0xA50 JUMP JUMPDEST DUP4 SSTORE POP JUMPDEST PUSH1 0x1 PUSH1 0x2 DUP9 MUL ADD DUP9 SSTORE POP POP POP JUMPDEST POP POP POP POP POP POP JUMP JUMPDEST PUSH3 0xB80 DUP2 PUSH3 0x764 JUMP JUMPDEST DUP3 MSTORE POP POP JUMP JUMPDEST PUSH1 0x0 PUSH1 0x20 DUP3 ADD SWAP1 POP PUSH3 0xB9D PUSH1 0x0 DUP4 ADD DUP5 PUSH3 0xB75 JUMP JUMPDEST SWAP3 SWAP2 POP POP JUMP JUMPDEST PUSH32 0x4E487B7100000000000000000000000000000000000000000000000000000000 PUSH1 0x0 MSTORE PUSH1 0x11 PUSH1 0x4 MSTORE PUSH1 0x24 PUSH1 0x0 REVERT JUMPDEST PUSH1 0x0 PUSH3 0xBDF DUP3 PUSH3 0x93A JUMP JUMPDEST SWAP2 POP PUSH3 0xBEC DUP4 PUSH3 0x93A JUMP JUMPDEST SWAP3 POP DUP3 DUP3 MUL PUSH3 0xBFC DUP2 PUSH3 0x93A JUMP JUMPDEST SWAP2 POP DUP3 DUP3 DIV DUP5 EQ DUP4 ISZERO OR PUSH3 0xC16 JUMPI PUSH3 0xC15 PUSH3 0xBA3 JUMP JUMPDEST JUMPDEST POP SWAP3 SWAP2 POP POP JUMP JUMPDEST PUSH1 0x0 PUSH3 0xC2A DUP3 PUSH3 0x93A JUMP JUMPDEST SWAP2 POP PUSH3 0xC37 DUP4 PUSH3 0x93A JUMP JUMPDEST SWAP3 POP DUP3 DUP3 ADD SWAP1 POP DUP1 DUP3 GT ISZERO PUSH3 0xC52 JUMPI PUSH3 0xC51 PUSH3 0xBA3 JUMP JUMPDEST JUMPDEST SWAP3 SWAP2 POP POP JUMP JUMPDEST PUSH3 0xC63 DUP2 PUSH3 0x93A JUMP JUMPDEST DUP3 MSTORE POP POP JUMP JUMPDEST PUSH1 0x0 PUSH1 0x60 DUP3 ADD SWAP1 POP PUSH3 0xC80 PUSH1 0x0 DUP4 ADD DUP7 PUSH3 0xB75 JUMP JUMPDEST PUSH3 0xC8F PUSH1 0x20 DUP4 ADD DUP6 PUSH3 0xC58 JUMP JUMPDEST PUSH3 0xC9E PUSH1 0x40 DUP4 ADD DUP5 PUSH3 0xC58 JUMP JUMPDEST SWAP5 SWAP4 POP POP POP POP JUMP JUMPDEST PUSH1 0x0 PUSH1 0x20 DUP3 ADD SWAP1 POP PUSH3 0xCBD PUSH1 0x0 DUP4 ADD DUP5 PUSH3 0xC58 JUMP JUMPDEST SWAP3 SWAP2 POP POP JUMP JUMPDEST PUSH2 0x1E6F DUP1 PUSH3 0xCD3 PUSH1 0x0 CODECOPY PUSH1 0x0 RETURN INVALID PUSH1 0x80 PUSH1 0x40 MSTORE PUSH1 0x4 CALLDATASIZE LT PUSH2 0x14B JUMPI PUSH1 0x0 CALLDATALOAD PUSH1 0xE0 SHR DUP1 PUSH4 0x715018A6 GT PUSH2 0xB6 JUMPI DUP1 PUSH4 0xA9059CBB GT PUSH2 0x6F JUMPI DUP1 PUSH4 0xA9059CBB EQ PUSH2 0x4A8 JUMPI DUP1 PUSH4 0xB0DB0E41 EQ PUSH2 0x4E5 JUMPI DUP1 PUSH4 0xB4F40C61 EQ PUSH2 0x4EF JUMPI DUP1 PUSH4 0xBB24FE8A EQ PUSH2 0x51A JUMPI DUP1 PUSH4 0xDD62ED3E EQ PUSH2 0x545 JUMPI DUP1 PUSH4 0xF2FDE38B EQ PUSH2 0x582 JUMPI PUSH2 0x14B JUMP JUMPDEST DUP1 PUSH4 0x715018A6 EQ PUSH2 0x3AA JUMPI DUP1 PUSH4 0x79CC6790 EQ PUSH2 0x3C1 JUMPI DUP1 PUSH4 0x8DA5CB5B EQ PUSH2 0x3EA JUMPI DUP1 PUSH4 0x92A88FA2 EQ PUSH2 0x415 JUMPI DUP1 PUSH4 0x95D89B41 EQ PUSH2 0x452 JUMPI DUP1 PUSH4 0xA56DFE4A EQ PUSH2 0x47D JUMPI PUSH2 0x14B JUMP JUMPDEST DUP1 PUSH4 0x23B872DD GT PUSH2 0x108 JUMPI DUP1 PUSH4 0x23B872DD EQ PUSH2 0x276 JUMPI DUP1 PUSH4 0x313CE567 EQ PUSH2 0x2B3 JUMPI DUP1 PUSH4 0x42966C68 EQ PUSH2 0x2DE JUMPI DUP1 PUSH4 0x43601EDA EQ PUSH2 0x307 JUMPI DUP1 PUSH4 0x48768B98 EQ PUSH2 0x330 JUMPI DUP1 PUSH4 0x70A08231 EQ PUSH2 0x36D JUMPI PUSH2 0x14B JUMP JUMPDEST DUP1 PUSH4 0x6FDDE03 EQ PUSH2 0x150 JUMPI DUP1 PUSH4 0x95EA7B3 EQ PUSH2 0x17B JUMPI DUP1 PUSH4 0xC55699C EQ PUSH2 0x1B8 JUMPI DUP1 PUSH4 0x12D697B6 EQ PUSH2 0x1E3 JUMPI DUP1 PUSH4 0x14E5F592 EQ PUSH2 0x20E JUMPI DUP1 PUSH4 0x18160DDD EQ PUSH2 0x24B JUMPI JUMPDEST PUSH1 0x0 DUP1 REVERT JUMPDEST CALLVALUE DUP1 ISZERO PUSH2 0x15C JUMPI PUSH1 0x0 DUP1 REVERT JUMPDEST POP PUSH2 0x165 PUSH2 0x5AB JUMP JUMPDEST PUSH1 0x40 MLOAD PUSH2 0x172 SWAP2 SWAP1 PUSH2 0x178B JUMP JUMPDEST PUSH1 0x40 MLOAD DUP1 SWAP2 SUB SWAP1 RETURN JUMPDEST CALLVALUE DUP1 ISZERO PUSH2 0x187 JUMPI PUSH1 0x0 DUP1 REVERT JUMPDEST POP PUSH2 0x1A2 PUSH1 0x4 DUP1 CALLDATASIZE SUB DUP2 ADD SWAP1 PUSH2 0x19D SWAP2 SWAP1 PUSH2 0x1846 JUMP JUMPDEST PUSH2 0x63D JUMP JUMPDEST PUSH1 0x40 MLOAD PUSH2 0x1AF SWAP2 SWAP1 PUSH2 0x18A1 JUMP JUMPDEST PUSH1 0x40 MLOAD DUP1 SWAP2 SUB SWAP1 RETURN JUMPDEST CALLVALUE DUP1 ISZERO PUSH2 0x1C4 JUMPI PUSH1 0x0 DUP1 REVERT JUMPDEST POP PUSH2 0x1CD PUSH2 0x660 JUMP JUMPDEST PUSH1 0x40 MLOAD PUSH2 0x1DA SWAP2 SWAP1 PUSH2 0x18CB JUMP JUMPDEST PUSH1 0x40 MLOAD DUP1 SWAP2 SUB SWAP1 RETURN JUMPDEST CALLVALUE DUP1 ISZERO PUSH2 0x1EF JUMPI PUSH1 0x0 DUP1 REVERT JUMPDEST POP PUSH2 0x1F8 PUSH2 0x666 JUMP JUMPDEST PUSH1 0x40 MLOAD PUSH2 0x205 SWAP2 SWAP1 PUSH2 0x18CB JUMP JUMPDEST PUSH1 0x40 MLOAD DUP1 SWAP2 SUB SWAP1 RETURN JUMPDEST CALLVALUE DUP1 ISZERO PUSH2 0x21A JUMPI PUSH1 0x0 DUP1 REVERT JUMPDEST POP PUSH2 0x235 PUSH1 0x4 DUP1 CALLDATASIZE SUB DUP2 ADD SWAP1 PUSH2 0x230 SWAP2 SWAP1 PUSH2 0x18E6 JUMP JUMPDEST PUSH2 0x66C JUMP JUMPDEST PUSH1 0x40 MLOAD PUSH2 0x242 SWAP2 SWAP1 PUSH2 0x18CB JUMP JUMPDEST PUSH1 0x40 MLOAD DUP1 SWAP2 SUB SWAP1 RETURN JUMPDEST CALLVALUE DUP1 ISZERO PUSH2 0x257 JUMPI PUSH1 0x0 DUP1 REVERT JUMPDEST POP PUSH2 0x260 PUSH2 0x67E JUMP JUMPDEST PUSH1 0x40 MLOAD PUSH2 0x26D SWAP2 SWAP1 PUSH2 0x18CB JUMP JUMPDEST PUSH1 0x40 MLOAD DUP1 SWAP2 SUB SWAP1 RETURN JUMPDEST CALLVALUE DUP1 ISZERO PUSH2 0x282 JUMPI PUSH1 0x0 DUP1 REVERT JUMPDEST POP PUSH2 0x29D PUSH1 0x4 DUP1 CALLDATASIZE SUB DUP2 ADD SWAP1 PUSH2 0x298 SWAP2 SWAP1 PUSH2 0x1913 JUMP JUMPDEST PUSH2 0x688 JUMP JUMPDEST PUSH1 0x40 MLOAD PUSH2 0x2AA SWAP2 SWAP1 PUSH2 0x18A1 JUMP JUMPDEST PUSH1 0x40 MLOAD DUP1 SWAP2 SUB SWAP1 RETURN JUMPDEST CALLVALUE DUP1 ISZERO PUSH2 0x2BF JUMPI PUSH1 0x0 DUP1 REVERT JUMPDEST POP PUSH2 0x2C8 PUSH2 0x6B7 JUMP JUMPDEST PUSH1 0x40 MLOAD PUSH2 0x2D5 SWAP2 SWAP1 PUSH2 0x1982 JUMP JUMPDEST PUSH1 0x40 MLOAD DUP1 SWAP2 SUB SWAP1 RETURN JUMPDEST CALLVALUE DUP1 ISZERO PUSH2 0x2EA JUMPI PUSH1 0x0 DUP1 REVERT JUMPDEST POP PUSH2 0x305 PUSH1 0x4 DUP1 CALLDATASIZE SUB DUP2 ADD SWAP1 PUSH2 0x300 SWAP2 SWAP1 PUSH2 0x18E6 JUMP JUMPDEST PUSH2 0x6C0 JUMP JUMPDEST STOP JUMPDEST CALLVALUE DUP1 ISZERO PUSH2 0x313 JUMPI PUSH1 0x0 DUP1 REVERT JUMPDEST POP PUSH2 0x32E PUSH1 0x4 DUP1 CALLDATASIZE SUB DUP2 ADD SWAP1 PUSH2 0x329 SWAP2 SWAP1 PUSH2 0x18E6 JUMP JUMPDEST PUSH2 0x6D4 JUMP JUMPDEST STOP JUMPDEST CALLVALUE DUP1 ISZERO PUSH2 0x33C JUMPI PUSH1 0x0 DUP1 REVERT JUMPDEST POP PUSH2 0x357 PUSH1 0x4 DUP1 CALLDATASIZE SUB DUP2 ADD SWAP1 PUSH2 0x352 SWAP2 SWAP1 PUSH2 0x18E6 JUMP JUMPDEST PUSH2 0x87F JUMP JUMPDEST PUSH1 0x40 MLOAD PUSH2 0x364 SWAP2 SWAP1 PUSH2 0x18CB JUMP JUMPDEST PUSH1 0x40 MLOAD DUP1 SWAP2 SUB SWAP1 RETURN JUMPDEST CALLVALUE DUP1 ISZERO PUSH2 0x379 JUMPI PUSH1 0x0 DUP1 REVERT JUMPDEST POP PUSH2 0x394 PUSH1 0x4 DUP1 CALLDATASIZE SUB DUP2 ADD SWAP1 PUSH2 0x38F SWAP2 SWAP1 PUSH2 0x199D JUMP JUMPDEST PUSH2 0x891 JUMP JUMPDEST PUSH1 0x40 MLOAD PUSH2 0x3A1 SWAP2 SWAP1 PUSH2 0x18CB JUMP JUMPDEST PUSH1 0x40 MLOAD DUP1 SWAP2 SUB SWAP1 RETURN JUMPDEST CALLVALUE DUP1 ISZERO PUSH2 0x3B6 JUMPI PUSH1 0x0 DUP1 REVERT JUMPDEST POP PUSH2 0x3BF PUSH2 0x8D9 JUMP JUMPDEST STOP JUMPDEST CALLVALUE DUP1 ISZERO PUSH2 0x3CD JUMPI PUSH1 0x0 DUP1 REVERT JUMPDEST POP PUSH2 0x3E8 PUSH1 0x4 DUP1 CALLDATASIZE SUB DUP2 ADD SWAP1 PUSH2 0x3E3 SWAP2 SWAP1 PUSH2 0x1846 JUMP JUMPDEST PUSH2 0x8ED JUMP JUMPDEST STOP JUMPDEST CALLVALUE DUP1 ISZERO PUSH2 0x3F6 JUMPI PUSH1 0x0 DUP1 REVERT JUMPDEST POP PUSH2 0x3FF PUSH2 0x90D JUMP JUMPDEST PUSH1 0x40 MLOAD PUSH2 0x40C SWAP2 SWAP1 PUSH2 0x19D9 JUMP JUMPDEST PUSH1 0x40 MLOAD DUP1 SWAP2 SUB SWAP1 RETURN JUMPDEST CALLVALUE DUP1 ISZERO PUSH2 0x421 JUMPI PUSH1 0x0 DUP1 REVERT JUMPDEST POP PUSH2 0x43C PUSH1 0x4 DUP1 CALLDATASIZE SUB DUP2 ADD SWAP1 PUSH2 0x437 SWAP2 SWAP1 PUSH2 0x199D JUMP JUMPDEST PUSH2 0x937 JUMP JUMPDEST PUSH1 0x40 MLOAD PUSH2 0x449 SWAP2 SWAP1 PUSH2 0x18A1 JUMP JUMPDEST PUSH1 0x40 MLOAD DUP1 SWAP2 SUB SWAP1 RETURN JUMPDEST CALLVALUE DUP1 ISZERO PUSH2 0x45E JUMPI PUSH1 0x0 DUP1 REVERT JUMPDEST POP PUSH2 0x467 PUSH2 0x957 JUMP JUMPDEST PUSH1 0x40 MLOAD PUSH2 0x474 SWAP2 SWAP1 PUSH2 0x178B JUMP JUMPDEST PUSH1 0x40 MLOAD DUP1 SWAP2 SUB SWAP1 RETURN JUMPDEST CALLVALUE DUP1 ISZERO PUSH2 0x489 JUMPI PUSH1 0x0 DUP1 REVERT JUMPDEST POP PUSH2 0x492 PUSH2 0x9E9 JUMP JUMPDEST PUSH1 0x40 MLOAD PUSH2 0x49F SWAP2 SWAP1 PUSH2 0x18CB JUMP JUMPDEST PUSH1 0x40 MLOAD DUP1 SWAP2 SUB SWAP1 RETURN JUMPDEST CALLVALUE DUP1 ISZERO PUSH2 0x4B4 JUMPI PUSH1 0x0 DUP1 REVERT JUMPDEST POP PUSH2 0x4CF PUSH1 0x4 DUP1 CALLDATASIZE SUB DUP2 ADD SWAP1 PUSH2 0x4CA SWAP2 SWAP1 PUSH2 0x1846 JUMP JUMPDEST PUSH2 0x9EF JUMP JUMPDEST PUSH1 0x40 MLOAD PUSH2 0x4DC SWAP2 SWAP1 PUSH2 0x18A1 JUMP JUMPDEST PUSH1 0x40 MLOAD DUP1 SWAP2 SUB SWAP1 RETURN JUMPDEST PUSH2 0x4ED PUSH2 0xA12 JUMP JUMPDEST STOP JUMPDEST CALLVALUE DUP1 ISZERO PUSH2 0x4FB JUMPI PUSH1 0x0 DUP1 REVERT JUMPDEST POP PUSH2 0x504 PUSH2 0xB3D JUMP JUMPDEST PUSH1 0x40 MLOAD PUSH2 0x511 SWAP2 SWAP1 PUSH2 0x18CB JUMP JUMPDEST PUSH1 0x40 MLOAD DUP1 SWAP2 SUB SWAP1 RETURN JUMPDEST CALLVALUE DUP1 ISZERO PUSH2 0x526 JUMPI PUSH1 0x0 DUP1 REVERT JUMPDEST POP PUSH2 0x52F PUSH2 0xB43 JUMP JUMPDEST PUSH1 0x40 MLOAD PUSH2 0x53C SWAP2 SWAP1 PUSH2 0x178B JUMP JUMPDEST PUSH1 0x40 MLOAD DUP1 SWAP2 SUB SWAP1 RETURN JUMPDEST CALLVALUE DUP1 ISZERO PUSH2 0x551 JUMPI PUSH1 0x0 DUP1 REVERT JUMPDEST POP PUSH2 0x56C PUSH1 0x4 DUP1 CALLDATASIZE SUB DUP2 ADD SWAP1 PUSH2 0x567 SWAP2 SWAP1 PUSH2 0x19F4 JUMP JUMPDEST PUSH2 0xB7C JUMP JUMPDEST PUSH1 0x40 MLOAD PUSH2 0x579 SWAP2 SWAP1 PUSH2 0x18CB JUMP JUMPDEST PUSH1 0x40 MLOAD DUP1 SWAP2 SUB SWAP1 RETURN JUMPDEST CALLVALUE DUP1 ISZERO PUSH2 0x58E JUMPI PUSH1 0x0 DUP1 REVERT JUMPDEST POP PUSH2 0x5A9 PUSH1 0x4 DUP1 CALLDATASIZE SUB DUP2 ADD SWAP1 PUSH2 0x5A4 SWAP2 SWAP1 PUSH2 0x199D JUMP JUMPDEST PUSH2 0xC03 JUMP JUMPDEST STOP JUMPDEST PUSH1 0x60 PUSH1 0x3 DUP1 SLOAD PUSH2 0x5BA SWAP1 PUSH2 0x1A63 JUMP JUMPDEST DUP1 PUSH1 0x1F ADD PUSH1 0x20 DUP1 SWAP2 DIV MUL PUSH1 0x20 ADD PUSH1 0x40 MLOAD SWAP1 DUP2 ADD PUSH1 0x40 MSTORE DUP1 SWAP3 SWAP2 SWAP1 DUP2 DUP2 MSTORE PUSH1 0x20 ADD DUP3 DUP1 SLOAD PUSH2 0x5E6 SWAP1 PUSH2 0x1A63 JUMP JUMPDEST DUP1 ISZERO PUSH2 0x633 JUMPI DUP1 PUSH1 0x1F LT PUSH2 0x608 JUMPI PUSH2 0x100 DUP1 DUP4 SLOAD DIV MUL DUP4 MSTORE SWAP2 PUSH1 0x20 ADD SWAP2 PUSH2 0x633 JUMP JUMPDEST DUP3 ADD SWAP2 SWAP1 PUSH1 0x0 MSTORE PUSH1 0x20 PUSH1 0x0 KECCAK256 SWAP1 JUMPDEST DUP2 SLOAD DUP2 MSTORE SWAP1 PUSH1 0x1 ADD SWAP1 PUSH1 0x20 ADD DUP1 DUP4 GT PUSH2 0x616 JUMPI DUP3 SWAP1 SUB PUSH1 0x1F AND DUP3 ADD SWAP2 JUMPDEST POP POP POP POP POP SWAP1 POP SWAP1 JUMP JUMPDEST PUSH1 0x0 DUP1 PUSH2 0x648 PUSH2 0xC89 JUMP JUMPDEST SWAP1 POP PUSH2 0x655 DUP2 DUP6 DUP6 PUSH2 0xC91 JUMP JUMPDEST PUSH1 0x1 SWAP2 POP POP SWAP3 SWAP2 POP POP JUMP JUMPDEST PUSH1 0x8 SLOAD DUP2 JUMP JUMPDEST PUSH1 0x7 SLOAD DUP2 JUMP JUMPDEST PUSH1 0x0 PUSH2 0x677 DUP3 PUSH2 0xCA3 JUMP JUMPDEST SWAP1 POP SWAP2 SWAP1 POP JUMP JUMPDEST PUSH1 0x0 PUSH1 0x2 SLOAD SWAP1 POP SWAP1 JUMP JUMPDEST PUSH1 0x0 DUP1 PUSH2 0x693 PUSH2 0xC89 JUMP JUMPDEST SWAP1 POP PUSH2 0x6A0 DUP6 DUP3 DUP6 PUSH2 0xCC3 JUMP JUMPDEST PUSH2 0x6AB DUP6 DUP6 DUP6 PUSH2 0xD57 JUMP JUMPDEST PUSH1 0x1 SWAP2 POP POP SWAP4 SWAP3 POP POP POP JUMP JUMPDEST PUSH1 0x0 PUSH1 0x12 SWAP1 POP SWAP1 JUMP JUMPDEST PUSH2 0x6D1 PUSH2 0x6CB PUSH2 0xC89 JUMP JUMPDEST DUP3 PUSH2 0xE4B JUMP JUMPDEST POP JUMP JUMPDEST PUSH1 0x0 DUP2 GT PUSH2 0x717 JUMPI PUSH1 0x40 MLOAD PUSH32 0x8C379A000000000000000000000000000000000000000000000000000000000 DUP2 MSTORE PUSH1 0x4 ADD PUSH2 0x70E SWAP1 PUSH2 0x1AE0 JUMP JUMPDEST PUSH1 0x40 MLOAD DUP1 SWAP2 SUB SWAP1 REVERT JUMPDEST PUSH1 0x0 PUSH2 0x722 DUP3 PUSH2 0xCA3 JUMP JUMPDEST SWAP1 POP DUP2 PUSH2 0x72E CALLER PUSH2 0x891 JUMP JUMPDEST LT ISZERO PUSH2 0x76F JUMPI PUSH1 0x40 MLOAD PUSH32 0x8C379A000000000000000000000000000000000000000000000000000000000 DUP2 MSTORE PUSH1 0x4 ADD PUSH2 0x766 SWAP1 PUSH2 0x1B4C JUMP JUMPDEST PUSH1 0x40 MLOAD DUP1 SWAP2 SUB SWAP1 REVERT JUMPDEST PUSH2 0x77A CALLER ADDRESS DUP5 PUSH2 0x688 JUMP JUMPDEST POP DUP1 PUSH1 0x8 SLOAD PUSH2 0x789 SWAP2 SWAP1 PUSH2 0x1B9B JUMP JUMPDEST PUSH1 0x8 DUP2 SWAP1 SSTORE POP DUP2 PUSH1 0x9 SLOAD PUSH2 0x79D SWAP2 SWAP1 PUSH2 0x1BCF JUMP JUMPDEST PUSH1 0x9 DUP2 SWAP1 SSTORE POP CALLER PUSH20 0xFFFFFFFFFFFFFFFFFFFFFFFFFFFFFFFFFFFFFFFF AND PUSH2 0x8FC DUP3 SWAP1 DUP2 ISZERO MUL SWAP1 PUSH1 0x40 MLOAD PUSH1 0x0 PUSH1 0x40 MLOAD DUP1 DUP4 SUB DUP2 DUP6 DUP9 DUP9 CALL SWAP4 POP POP POP POP ISZERO DUP1 ISZERO PUSH2 0x7E9 JUMPI RETURNDATASIZE PUSH1 0x0 DUP1 RETURNDATACOPY RETURNDATASIZE PUSH1 0x0 REVERT JUMPDEST POP PUSH1 0xC PUSH1 0x0 SWAP1 SLOAD SWAP1 PUSH2 0x100 EXP SWAP1 DIV PUSH20 0xFFFFFFFFFFFFFFFFFFFFFFFFFFFFFFFFFFFFFFFF AND PUSH20 0xFFFFFFFFFFFFFFFFFFFFFFFFFFFFFFFFFFFFFFFF AND PUSH4 0x88AE3C6B CALLER DUP5 DUP5 PUSH1 0x40 MLOAD DUP5 PUSH4 0xFFFFFFFF AND PUSH1 0xE0 SHL DUP2 MSTORE PUSH1 0x4 ADD PUSH2 0x849 SWAP4 SWAP3 SWAP2 SWAP1 PUSH2 0x1C03 JUMP JUMPDEST PUSH1 0x0 PUSH1 0x40 MLOAD DUP1 DUP4 SUB DUP2 PUSH1 0x0 DUP8 DUP1 EXTCODESIZE ISZERO DUP1 ISZERO PUSH2 0x863 JUMPI PUSH1 0x0 DUP1 REVERT JUMPDEST POP GAS CALL ISZERO DUP1 ISZERO PUSH2 0x877 JUMPI RETURNDATASIZE PUSH1 0x0 DUP1 RETURNDATACOPY RETURNDATASIZE PUSH1 0x0 REVERT JUMPDEST POP POP POP POP POP POP JUMP JUMPDEST PUSH1 0x0 PUSH2 0x88A DUP3 PUSH2 0xECD JUMP JUMPDEST SWAP1 POP SWAP2 SWAP1 POP JUMP JUMPDEST PUSH1 0x0 DUP1 PUSH1 0x0 DUP4 PUSH20 0xFFFFFFFFFFFFFFFFFFFFFFFFFFFFFFFFFFFFFFFF AND PUSH20 0xFFFFFFFFFFFFFFFFFFFFFFFFFFFFFFFFFFFFFFFF AND DUP2 MSTORE PUSH1 0x20 ADD SWAP1 DUP2 MSTORE PUSH1 0x20 ADD PUSH1 0x0 KECCAK256 SLOAD SWAP1 POP SWAP2 SWAP1 POP JUMP JUMPDEST PUSH2 0x8E1 PUSH2 0xEED JUMP JUMPDEST PUSH2 0x8EB PUSH1 0x0 PUSH2 0xF74 JUMP JUMPDEST JUMP JUMPDEST PUSH2 0x8FF DUP3 PUSH2 0x8F9 PUSH2 0xC89 JUMP JUMPDEST DUP4 PUSH2 0xCC3 JUMP JUMPDEST PUSH2 0x909 DUP3 DUP3 PUSH2 0xE4B JUMP JUMPDEST POP POP JUMP JUMPDEST PUSH1 0x0 PUSH1 0x5 PUSH1 0x0 SWAP1 SLOAD SWAP1 PUSH2 0x100 EXP SWAP1 DIV PUSH20 0xFFFFFFFFFFFFFFFFFFFFFFFFFFFFFFFFFFFFFFFF AND SWAP1 POP SWAP1 JUMP JUMPDEST PUSH1 0x6 PUSH1 0x20 MSTORE DUP1 PUSH1 0x0 MSTORE PUSH1 0x40 PUSH1 0x0 KECCAK256 PUSH1 0x0 SWAP2 POP SLOAD SWAP1 PUSH2 0x100 EXP SWAP1 DIV PUSH1 0xFF AND DUP2 JUMP JUMPDEST PUSH1 0x60 PUSH1 0x4 DUP1 SLOAD PUSH2 0x966 SWAP1 PUSH2 0x1A63 JUMP JUMPDEST DUP1 PUSH1 0x1F ADD PUSH1 0x20 DUP1 SWAP2 DIV MUL PUSH1 0x20 ADD PUSH1 0x40 MLOAD SWAP1 DUP2 ADD PUSH1 0x40 MSTORE DUP1 SWAP3 SWAP2 SWAP1 DUP2 DUP2 MSTORE PUSH1 0x20 ADD DUP3 DUP1 SLOAD PUSH2 0x992 SWAP1 PUSH2 0x1A63 JUMP JUMPDEST DUP1 ISZERO PUSH2 0x9DF JUMPI DUP1 PUSH1 0x1F LT PUSH2 0x9B4 JUMPI PUSH2 0x100 DUP1 DUP4 SLOAD DIV MUL DUP4 MSTORE SWAP2 PUSH1 0x20 ADD SWAP2 PUSH2 0x9DF JUMP JUMPDEST DUP3 ADD SWAP2 SWAP1 PUSH1 0x0 MSTORE PUSH1 0x20 PUSH1 0x0 KECCAK256 SWAP1 JUMPDEST DUP2 SLOAD DUP2 MSTORE SWAP1 PUSH1 0x1 ADD SWAP1 PUSH1 0x20 ADD DUP1 DUP4 GT PUSH2 0x9C2 JUMPI DUP3 SWAP1 SUB PUSH1 0x1F AND DUP3 ADD SWAP2 JUMPDEST POP POP POP POP POP SWAP1 POP SWAP1 JUMP JUMPDEST PUSH1 0x9 SLOAD DUP2 JUMP JUMPDEST PUSH1 0x0 DUP1 PUSH2 0x9FA PUSH2 0xC89 JUMP JUMPDEST SWAP1 POP PUSH2 0xA07 DUP2 DUP6 DUP6 PUSH2 0xD57 JUMP JUMPDEST PUSH1 0x1 SWAP2 POP POP SWAP3 SWAP2 POP POP JUMP JUMPDEST PUSH1 0x0 CALLVALUE GT PUSH2 0xA55 JUMPI PUSH1 0x40 MLOAD PUSH32 0x8C379A000000000000000000000000000000000000000000000000000000000 DUP2 MSTORE PUSH1 0x4 ADD PUSH2 0xA4C SWAP1 PUSH2 0x1AE0 JUMP JUMPDEST PUSH1 0x40 MLOAD DUP1 SWAP2 SUB SWAP1 REVERT JUMPDEST PUSH1 0x0 PUSH2 0xA60 CALLVALUE PUSH2 0xECD JUMP JUMPDEST SWAP1 POP PUSH2 0xA6C CALLER DUP3 PUSH2 0x9EF JUMP JUMPDEST POP DUP1 PUSH1 0x8 SLOAD PUSH2 0xA7B SWAP2 SWAP1 PUSH2 0x1BCF JUMP JUMPDEST PUSH1 0x8 DUP2 SWAP1 SSTORE POP CALLVALUE PUSH1 0x9 SLOAD PUSH2 0xA8F SWAP2 SWAP1 PUSH2 0x1B9B JUMP JUMPDEST PUSH1 0x9 DUP2 SWAP1 SSTORE POP PUSH1 0x7 SLOAD PUSH1 0x9 SLOAD LT PUSH2 0xAA9 JUMPI PUSH2 0xAA8 PUSH2 0x103A JUMP JUMPDEST JUMPDEST PUSH1 0xC PUSH1 0x0 SWAP1 SLOAD SWAP1 PUSH2 0x100 EXP SWAP1 DIV PUSH20 0xFFFFFFFFFFFFFFFFFFFFFFFFFFFFFFFFFFFFFFFF AND PUSH20 0xFFFFFFFFFFFFFFFFFFFFFFFFFFFFFFFFFFFFFFFF AND PUSH4 0x4E3F0A01 CALLER DUP4 CALLVALUE PUSH1 0x40 MLOAD DUP5 PUSH4 0xFFFFFFFF AND PUSH1 0xE0 SHL DUP2 MSTORE PUSH1 0x4 ADD PUSH2 0xB08 SWAP4 SWAP3 SWAP2 SWAP1 PUSH2 0x1C03 JUMP JUMPDEST PUSH1 0x0 PUSH1 0x40 MLOAD DUP1 DUP4 SUB DUP2 PUSH1 0x0 DUP8 DUP1 EXTCODESIZE ISZERO DUP1 ISZERO PUSH2 0xB22 JUMPI PUSH1 0x0 DUP1 REVERT JUMPDEST POP GAS CALL ISZERO DUP1 ISZERO PUSH2 0xB36 JUMPI RETURNDATASIZE PUSH1 0x0 DUP1 RETURNDATACOPY RETURNDATASIZE PUSH1 0x0 REVERT JUMPDEST POP POP POP POP POP JUMP JUMPDEST PUSH1 0xA SLOAD DUP2 JUMP JUMPDEST PUSH1 0x40 MLOAD DUP1 PUSH1 0x40 ADD PUSH1 0x40 MSTORE DUP1 PUSH1 0xB DUP2 MSTORE PUSH1 0x20 ADD PUSH32 0x50756D706572546F6B656E000000000000000000000000000000000000000000 DUP2 MSTORE POP DUP2 JUMP JUMPDEST PUSH1 0x0 PUSH1 0x1 PUSH1 0x0 DUP5 PUSH20 0xFFFFFFFFFFFFFFFFFFFFFFFFFFFFFFFFFFFFFFFF AND PUSH20 0xFFFFFFFFFFFFFFFFFFFFFFFFFFFFFFFFFFFFFFFF AND DUP2 MSTORE PUSH1 0x20 ADD SWAP1 DUP2 MSTORE PUSH1 0x20 ADD PUSH1 0x0 KECCAK256 PUSH1 0x0 DUP4 PUSH20 0xFFFFFFFFFFFFFFFFFFFFFFFFFFFFFFFFFFFFFFFF AND PUSH20 0xFFFFFFFFFFFFFFFFFFFFFFFFFFFFFFFFFFFFFFFF AND DUP2 MSTORE PUSH1 0x20 ADD SWAP1 DUP2 MSTORE PUSH1 0x20 ADD PUSH1 0x0 KECCAK256 SLOAD SWAP1 POP SWAP3 SWAP2 POP POP JUMP JUMPDEST PUSH2 0xC0B PUSH2 0xEED JUMP JUMPDEST PUSH1 0x0 PUSH20 0xFFFFFFFFFFFFFFFFFFFFFFFFFFFFFFFFFFFFFFFF AND DUP2 PUSH20 0xFFFFFFFFFFFFFFFFFFFFFFFFFFFFFFFFFFFFFFFF AND SUB PUSH2 0xC7D JUMPI PUSH1 0x0 PUSH1 0x40 MLOAD PUSH32 0x1E4FBDF700000000000000000000000000000000000000000000000000000000 DUP2 MSTORE PUSH1 0x4 ADD PUSH2 0xC74 SWAP2 SWAP1 PUSH2 0x19D9 JUMP JUMPDEST PUSH1 0x40 MLOAD DUP1 SWAP2 SUB SWAP1 REVERT JUMPDEST PUSH2 0xC86 DUP2 PUSH2 0xF74 JUMP JUMPDEST POP JUMP JUMPDEST PUSH1 0x0 CALLER SWAP1 POP SWAP1 JUMP JUMPDEST PUSH2 0xC9E DUP4 DUP4 DUP4 PUSH1 0x1 PUSH2 0x12DC JUMP JUMPDEST POP POP POP JUMP JUMPDEST PUSH1 0x0 DUP2 PUSH1 0x8 SLOAD PUSH1 0xA SLOAD DUP2 PUSH2 0xCBA JUMPI PUSH2 0xCB9 PUSH2 0x1C3A JUMP JUMPDEST JUMPDEST DIV MUL SWAP1 POP SWAP2 SWAP1 POP JUMP JUMPDEST PUSH1 0x0 PUSH2 0xCCF DUP5 DUP5 PUSH2 0xB7C JUMP JUMPDEST SWAP1 POP PUSH32 0xFFFFFFFFFFFFFFFFFFFFFFFFFFFFFFFFFFFFFFFFFFFFFFFFFFFFFFFFFFFFFFFF DUP2 EQ PUSH2 0xD51 JUMPI DUP2 DUP2 LT ISZERO PUSH2 0xD41 JUMPI DUP3 DUP2 DUP4 PUSH1 0x40 MLOAD PUSH32 0xFB8F41B200000000000000000000000000000000000000000000000000000000 DUP2 MSTORE PUSH1 0x4 ADD PUSH2 0xD38 SWAP4 SWAP3 SWAP2 SWAP1 PUSH2 0x1C03 JUMP JUMPDEST PUSH1 0x40 MLOAD DUP1 SWAP2 SUB SWAP1 REVERT JUMPDEST PUSH2 0xD50 DUP5 DUP5 DUP5 DUP5 SUB PUSH1 0x0 PUSH2 0x12DC JUMP JUMPDEST JUMPDEST POP POP POP POP JUMP JUMPDEST PUSH1 0x0 PUSH20 0xFFFFFFFFFFFFFFFFFFFFFFFFFFFFFFFFFFFFFFFF AND DUP4 PUSH20 0xFFFFFFFFFFFFFFFFFFFFFFFFFFFFFFFFFFFFFFFF AND SUB PUSH2 0xDC9 JUMPI PUSH1 0x0 PUSH1 0x40 MLOAD PUSH32 0x96C6FD1E00000000000000000000000000000000000000000000000000000000 DUP2 MSTORE PUSH1 0x4 ADD PUSH2 0xDC0 SWAP2 SWAP1 PUSH2 0x19D9 JUMP JUMPDEST PUSH1 0x40 MLOAD DUP1 SWAP2 SUB SWAP1 REVERT JUMPDEST PUSH1 0x0 PUSH20 0xFFFFFFFFFFFFFFFFFFFFFFFFFFFFFFFFFFFFFFFF AND DUP3 PUSH20 0xFFFFFFFFFFFFFFFFFFFFFFFFFFFFFFFFFFFFFFFF AND SUB PUSH2 0xE3B JUMPI PUSH1 0x0 PUSH1 0x40 MLOAD PUSH32 0xEC442F0500000000000000000000000000000000000000000000000000000000 DUP2 MSTORE PUSH1 0x4 ADD PUSH2 0xE32 SWAP2 SWAP1 PUSH2 0x19D9 JUMP JUMPDEST PUSH1 0x40 MLOAD DUP1 SWAP2 SUB SWAP1 REVERT JUMPDEST PUSH2 0xE46 DUP4 DUP4 DUP4 PUSH2 0x14B3 JUMP JUMPDEST POP POP POP JUMP JUMPDEST PUSH1 0x0 PUSH20 0xFFFFFFFFFFFFFFFFFFFFFFFFFFFFFFFFFFFFFFFF AND DUP3 PUSH20 0xFFFFFFFFFFFFFFFFFFFFFFFFFFFFFFFFFFFFFFFF AND SUB PUSH2 0xEBD JUMPI PUSH1 0x0 PUSH1 0x40 MLOAD PUSH32 0x96C6FD1E00000000000000000000000000000000000000000000000000000000 DUP2 MSTORE PUSH1 0x4 ADD PUSH2 0xEB4 SWAP2 SWAP1 PUSH2 0x19D9 JUMP JUMPDEST PUSH1 0x40 MLOAD DUP1 SWAP2 SUB SWAP1 REVERT JUMPDEST PUSH2 0xEC9 DUP3 PUSH1 0x0 DUP4 PUSH2 0x14B3 JUMP JUMPDEST POP POP JUMP JUMPDEST PUSH1 0x0 DUP2 PUSH1 0x9 SLOAD PUSH1 0xA SLOAD DUP2 PUSH2 0xEE4 JUMPI PUSH2 0xEE3 PUSH2 0x1C3A JUMP JUMPDEST JUMPDEST DIV MUL SWAP1 POP SWAP2 SWAP1 POP JUMP JUMPDEST PUSH2 0xEF5 PUSH2 0xC89 JUMP JUMPDEST PUSH20 0xFFFFFFFFFFFFFFFFFFFFFFFFFFFFFFFFFFFFFFFF AND PUSH2 0xF13 PUSH2 0x90D JUMP JUMPDEST PUSH20 0xFFFFFFFFFFFFFFFFFFFFFFFFFFFFFFFFFFFFFFFF AND EQ PUSH2 0xF72 JUMPI PUSH2 0xF36 PUSH2 0xC89 JUMP JUMPDEST PUSH1 0x40 MLOAD PUSH32 0x118CDAA700000000000000000000000000000000000000000000000000000000 DUP2 MSTORE PUSH1 0x4 ADD PUSH2 0xF69 SWAP2 SWAP1 PUSH2 0x19D9 JUMP JUMPDEST PUSH1 0x40 MLOAD DUP1 SWAP2 SUB SWAP1 REVERT JUMPDEST JUMP JUMPDEST PUSH1 0x0 PUSH1 0x5 PUSH1 0x0 SWAP1 SLOAD SWAP1 PUSH2 0x100 EXP SWAP1 DIV PUSH20 0xFFFFFFFFFFFFFFFFFFFFFFFFFFFFFFFFFFFFFFFF AND SWAP1 POP DUP2 PUSH1 0x5 PUSH1 0x0 PUSH2 0x100 EXP DUP2 SLOAD DUP2 PUSH20 0xFFFFFFFFFFFFFFFFFFFFFFFFFFFFFFFFFFFFFFFF MUL NOT AND SWAP1 DUP4 PUSH20 0xFFFFFFFFFFFFFFFFFFFFFFFFFFFFFFFFFFFFFFFF AND MUL OR SWAP1 SSTORE POP DUP2 PUSH20 0xFFFFFFFFFFFFFFFFFFFFFFFFFFFFFFFFFFFFFFFF AND DUP2 PUSH20 0xFFFFFFFFFFFFFFFFFFFFFFFFFFFFFFFFFFFFFFFF AND PUSH32 0x8BE0079C531659141344CD1FD0A4F28419497F9722A3DAAFE3B4186F6B6457E0 PUSH1 0x40 MLOAD PUSH1 0x40 MLOAD DUP1 SWAP2 SUB SWAP1 LOG3 POP POP JUMP JUMPDEST PUSH1 0xD PUSH1 0x0 SWAP1 SLOAD SWAP1 PUSH2 0x100 EXP SWAP1 DIV PUSH20 0xFFFFFFFFFFFFFFFFFFFFFFFFFFFFFFFFFFFFFFFF AND PUSH20 0xFFFFFFFFFFFFFFFFFFFFFFFFFFFFFFFFFFFFFFFF AND PUSH4 0x171223DD PUSH20 0xFFFFFFFFFFFFFFFFFFFFFFFFFFFFFFFFFFFFFFFF PUSH1 0x0 SHL PUSH32 0xEEEEEEEEEEEEEEEEEEEEEEEEEEEEEEEEEEEEEEEEEEEEEEEEEEEEEEEEEEEEEEEE PUSH1 0x0 SHL AND PUSH2 0x10BE ADDRESS PUSH2 0x16D8 JUMP JUMPDEST PUSH1 0x40 MLOAD DUP4 PUSH4 0xFFFFFFFF AND PUSH1 0xE0 SHL DUP2 MSTORE PUSH1 0x4 ADD PUSH2 0x10DB SWAP3 SWAP2 SWAP1 PUSH2 0x1C94 JUMP JUMPDEST PUSH1 0x20 PUSH1 0x40 MLOAD DUP1 DUP4 SUB DUP2 PUSH1 0x0 DUP8 GAS CALL ISZERO DUP1 ISZERO PUSH2 0x10FA JUMPI RETURNDATASIZE PUSH1 0x0 DUP1 RETURNDATACOPY RETURNDATASIZE PUSH1 0x0 REVERT JUMPDEST POP POP POP POP PUSH1 0x40 MLOAD RETURNDATASIZE PUSH1 0x1F NOT PUSH1 0x1F DUP3 ADD AND DUP3 ADD DUP1 PUSH1 0x40 MSTORE POP DUP2 ADD SWAP1 PUSH2 0x111E SWAP2 SWAP1 PUSH2 0x1CD2 JUMP JUMPDEST POP PUSH2 0x116C ADDRESS PUSH1 0xE PUSH1 0x0 SWAP1 SLOAD SWAP1 PUSH2 0x100 EXP SWAP1 DIV PUSH20 0xFFFFFFFFFFFFFFFFFFFFFFFFFFFFFFFFFFFFFFFF AND PUSH32 0xFFFFFFFFFFFFFFFFFFFFFFFFFFFFFFFFFFFFFFFFFFFFFFFFFFFFFFFFFFFFFFFF PUSH2 0xC91 JUMP JUMPDEST PUSH1 0xE PUSH1 0x0 SWAP1 SLOAD SWAP1 PUSH2 0x100 EXP SWAP1 DIV PUSH20 0xFFFFFFFFFFFFFFFFFFFFFFFFFFFFFFFFFFFFFFFF AND PUSH20 0xFFFFFFFFFFFFFFFFFFFFFFFFFFFFFFFFFFFFFFFF AND PUSH4 0x5A47DDC3 PUSH1 0x9 SLOAD PUSH1 0x0 ADDRESS PUSH1 0x0 SELFBALANCE PUSH1 0x8 SLOAD PUSH1 0x0 DUP1 ADDRESS PUSH32 0xFFFFFFFFFFFFFFFFFFFFFFFFFFFFFFFFFFFFFFFFFFFFFFFFFFFFFFFFFFFFFFFF PUSH1 0x40 MLOAD DUP12 PUSH4 0xFFFFFFFF AND PUSH1 0xE0 SHL DUP2 MSTORE PUSH1 0x4 ADD PUSH2 0x11FF SWAP10 SWAP9 SWAP8 SWAP7 SWAP6 SWAP5 SWAP4 SWAP3 SWAP2 SWAP1 PUSH2 0x1D44 JUMP JUMPDEST PUSH1 0x60 PUSH1 0x40 MLOAD DUP1 DUP4 SUB DUP2 DUP6 DUP9 GAS CALL ISZERO DUP1 ISZERO PUSH2 0x121D JUMPI RETURNDATASIZE PUSH1 0x0 DUP1 RETURNDATACOPY RETURNDATASIZE PUSH1 0x0 REVERT JUMPDEST POP POP POP POP POP PUSH1 0x40 MLOAD RETURNDATASIZE PUSH1 0x1F NOT PUSH1 0x1F DUP3 ADD AND DUP3 ADD DUP1 PUSH1 0x40 MSTORE POP DUP2 ADD SWAP1 PUSH2 0x1242 SWAP2 SWAP1 PUSH2 0x1DE6 JUMP JUMPDEST POP POP POP PUSH1 0xC PUSH1 0x0 SWAP1 SLOAD SWAP1 PUSH2 0x100 EXP SWAP1 DIV PUSH20 0xFFFFFFFFFFFFFFFFFFFFFFFFFFFFFFFFFFFFFFFF AND PUSH20 0xFFFFFFFFFFFFFFFFFFFFFFFFFFFFFFFFFFFFFFFF AND PUSH4 0x4A7C974B ADDRESS PUSH1 0x8 SLOAD PUSH1 0x9 SLOAD PUSH1 0x40 MLOAD DUP5 PUSH4 0xFFFFFFFF AND PUSH1 0xE0 SHL DUP2 MSTORE PUSH1 0x4 ADD PUSH2 0x12A8 SWAP4 SWAP3 SWAP2 SWAP1 PUSH2 0x1C03 JUMP JUMPDEST PUSH1 0x0 PUSH1 0x40 MLOAD DUP1 DUP4 SUB DUP2 PUSH1 0x0 DUP8 DUP1 EXTCODESIZE ISZERO DUP1 ISZERO PUSH2 0x12C2 JUMPI PUSH1 0x0 DUP1 REVERT JUMPDEST POP GAS CALL ISZERO DUP1 ISZERO PUSH2 0x12D6 JUMPI RETURNDATASIZE PUSH1 0x0 DUP1 RETURNDATACOPY RETURNDATASIZE PUSH1 0x0 REVERT JUMPDEST POP POP POP POP JUMP JUMPDEST PUSH1 0x0 PUSH20 0xFFFFFFFFFFFFFFFFFFFFFFFFFFFFFFFFFFFFFFFF AND DUP5 PUSH20 0xFFFFFFFFFFFFFFFFFFFFFFFFFFFFFFFFFFFFFFFF AND SUB PUSH2 0x134E JUMPI PUSH1 0x0 PUSH1 0x40 MLOAD PUSH32 0xE602DF0500000000000000000000000000000000000000000000000000000000 DUP2 MSTORE PUSH1 0x4 ADD PUSH2 0x1345 SWAP2 SWAP1 PUSH2 0x19D9 JUMP JUMPDEST PUSH1 0x40 MLOAD DUP1 SWAP2 SUB SWAP1 REVERT JUMPDEST PUSH1 0x0 PUSH20 0xFFFFFFFFFFFFFFFFFFFFFFFFFFFFFFFFFFFFFFFF AND DUP4 PUSH20 0xFFFFFFFFFFFFFFFFFFFFFFFFFFFFFFFFFFFFFFFF AND SUB PUSH2 0x13C0 JUMPI PUSH1 0x0 PUSH1 0x40 MLOAD PUSH32 0x94280D6200000000000000000000000000000000000000000000000000000000 DUP2 MSTORE PUSH1 0x4 ADD PUSH2 0x13B7 SWAP2 SWAP1 PUSH2 0x19D9 JUMP JUMPDEST PUSH1 0x40 MLOAD DUP1 SWAP2 SUB SWAP1 REVERT JUMPDEST DUP2 PUSH1 0x1 PUSH1 0x0 DUP7 PUSH20 0xFFFFFFFFFFFFFFFFFFFFFFFFFFFFFFFFFFFFFFFF AND PUSH20 0xFFFFFFFFFFFFFFFFFFFFFFFFFFFFFFFFFFFFFFFF AND DUP2 MSTORE PUSH1 0x20 ADD SWAP1 DUP2 MSTORE PUSH1 0x20 ADD PUSH1 0x0 KECCAK256 PUSH1 0x0 DUP6 PUSH20 0xFFFFFFFFFFFFFFFFFFFFFFFFFFFFFFFFFFFFFFFF AND PUSH20 0xFFFFFFFFFFFFFFFFFFFFFFFFFFFFFFFFFFFFFFFF AND DUP2 MSTORE PUSH1 0x20 ADD SWAP1 DUP2 MSTORE PUSH1 0x20 ADD PUSH1 0x0 KECCAK256 DUP2 SWAP1 SSTORE POP DUP1 ISZERO PUSH2 0x14AD JUMPI DUP3 PUSH20 0xFFFFFFFFFFFFFFFFFFFFFFFFFFFFFFFFFFFFFFFF AND DUP5 PUSH20 0xFFFFFFFFFFFFFFFFFFFFFFFFFFFFFFFFFFFFFFFF AND PUSH32 0x8C5BE1E5EBEC7D5BD14F71427D1E84F3DD0314C0F7B2291E5B200AC8C7C3B925 DUP5 PUSH1 0x40 MLOAD PUSH2 0x14A4 SWAP2 SWAP1 PUSH2 0x18CB JUMP JUMPDEST PUSH1 0x40 MLOAD DUP1 SWAP2 SUB SWAP1 LOG3 JUMPDEST POP POP POP POP JUMP JUMPDEST PUSH1 0x0 PUSH20 0xFFFFFFFFFFFFFFFFFFFFFFFFFFFFFFFFFFFFFFFF AND DUP4 PUSH20 0xFFFFFFFFFFFFFFFFFFFFFFFFFFFFFFFFFFFFFFFF AND SUB PUSH2 0x1505 JUMPI DUP1 PUSH1 0x2 PUSH1 0x0 DUP3 DUP3 SLOAD PUSH2 0x14F9 SWAP2 SWAP1 PUSH2 0x1B9B JUMP JUMPDEST SWAP3 POP POP DUP2 SWAP1 SSTORE POP PUSH2 0x15D8 JUMP JUMPDEST PUSH1 0x0 DUP1 PUSH1 0x0 DUP6 PUSH20 0xFFFFFFFFFFFFFFFFFFFFFFFFFFFFFFFFFFFFFFFF AND PUSH20 0xFFFFFFFFFFFFFFFFFFFFFFFFFFFFFFFFFFFFFFFF AND DUP2 MSTORE PUSH1 0x20 ADD SWAP1 DUP2 MSTORE PUSH1 0x20 ADD PUSH1 0x0 KECCAK256 SLOAD SWAP1 POP DUP2 DUP2 LT ISZERO PUSH2 0x1591 JUMPI DUP4 DUP2 DUP4 PUSH1 0x40 MLOAD PUSH32 0xE450D38C00000000000000000000000000000000000000000000000000000000 DUP2 MSTORE PUSH1 0x4 ADD PUSH2 0x1588 SWAP4 SWAP3 SWAP2 SWAP1 PUSH2 0x1C03 JUMP JUMPDEST PUSH1 0x40 MLOAD DUP1 SWAP2 SUB SWAP1 REVERT JUMPDEST DUP2 DUP2 SUB PUSH1 0x0 DUP1 DUP7 PUSH20 0xFFFFFFFFFFFFFFFFFFFFFFFFFFFFFFFFFFFFFFFF AND PUSH20 0xFFFFFFFFFFFFFFFFFFFFFFFFFFFFFFFFFFFFFFFF AND DUP2 MSTORE PUSH1 0x20 ADD SWAP1 DUP2 MSTORE PUSH1 0x20 ADD PUSH1 0x0 KECCAK256 DUP2 SWAP1 SSTORE POP POP JUMPDEST PUSH1 0x0 PUSH20 0xFFFFFFFFFFFFFFFFFFFFFFFFFFFFFFFFFFFFFFFF AND DUP3 PUSH20 0xFFFFFFFFFFFFFFFFFFFFFFFFFFFFFFFFFFFFFFFF AND SUB PUSH2 0x1621 JUMPI DUP1 PUSH1 0x2 PUSH1 0x0 DUP3 DUP3 SLOAD SUB SWAP3 POP POP DUP2 SWAP1 SSTORE POP PUSH2 0x166E JUMP JUMPDEST DUP1 PUSH1 0x0 DUP1 DUP5 PUSH20 0xFFFFFFFFFFFFFFFFFFFFFFFFFFFFFFFFFFFFFFFF AND PUSH20 0xFFFFFFFFFFFFFFFFFFFFFFFFFFFFFFFFFFFFFFFF AND DUP2 MSTORE PUSH1 0x20 ADD SWAP1 DUP2 MSTORE PUSH1 0x20 ADD PUSH1 0x0 KECCAK256 PUSH1 0x0 DUP3 DUP3 SLOAD ADD SWAP3 POP POP DUP2 SWAP1 SSTORE POP JUMPDEST DUP2 PUSH20 0xFFFFFFFFFFFFFFFFFFFFFFFFFFFFFFFFFFFFFFFF AND DUP4 PUSH20 0xFFFFFFFFFFFFFFFFFFFFFFFFFFFFFFFFFFFFFFFF AND PUSH32 0xDDF252AD1BE2C89B69C2B068FC378DAA952BA7F163C4A11628F55A4DF523B3EF DUP4 PUSH1 0x40 MLOAD PUSH2 0x16CB SWAP2 SWAP1 PUSH2 0x18CB JUMP JUMPDEST PUSH1 0x40 MLOAD DUP1 SWAP2 SUB SWAP1 LOG3 POP POP POP JUMP JUMPDEST PUSH1 0x0 DUP2 PUSH20 0xFFFFFFFFFFFFFFFFFFFFFFFFFFFFFFFFFFFFFFFF AND PUSH1 0x0 SHL SWAP1 POP SWAP2 SWAP1 POP JUMP JUMPDEST PUSH1 0x0 DUP2 MLOAD SWAP1 POP SWAP2 SWAP1 POP JUMP JUMPDEST PUSH1 0x0 DUP3 DUP3 MSTORE PUSH1 0x20 DUP3 ADD SWAP1 POP SWAP3 SWAP2 POP POP JUMP JUMPDEST PUSH1 0x0 JUMPDEST DUP4 DUP2 LT ISZERO PUSH2 0x1735 JUMPI DUP1 DUP3 ADD MLOAD DUP2 DUP5 ADD MSTORE PUSH1 0x20 DUP2 ADD SWAP1 POP PUSH2 0x171A JUMP JUMPDEST PUSH1 0x0 DUP5 DUP5 ADD MSTORE POP POP POP POP JUMP JUMPDEST PUSH1 0x0 PUSH1 0x1F NOT PUSH1 0x1F DUP4 ADD AND SWAP1 POP SWAP2 SWAP1 POP JUMP JUMPDEST PUSH1 0x0 PUSH2 0x175D DUP3 PUSH2 0x16FB JUMP JUMPDEST PUSH2 0x1767 DUP2 DUP6 PUSH2 0x1706 JUMP JUMPDEST SWAP4 POP PUSH2 0x1777 DUP2 DUP6 PUSH1 0x20 DUP7 ADD PUSH2 0x1717 JUMP JUMPDEST PUSH2 0x1780 DUP2 PUSH2 0x1741 JUMP JUMPDEST DUP5 ADD SWAP2 POP POP SWAP3 SWAP2 POP POP JUMP JUMPDEST PUSH1 0x0 PUSH1 0x20 DUP3 ADD SWAP1 POP DUP2 DUP2 SUB PUSH1 0x0 DUP4 ADD MSTORE PUSH2 0x17A5 DUP2 DUP5 PUSH2 0x1752 JUMP JUMPDEST SWAP1 POP SWAP3 SWAP2 POP POP JUMP JUMPDEST PUSH1 0x0 DUP1 REVERT JUMPDEST PUSH1 0x0 PUSH20 0xFFFFFFFFFFFFFFFFFFFFFFFFFFFFFFFFFFFFFFFF DUP3 AND SWAP1 POP SWAP2 SWAP1 POP JUMP JUMPDEST PUSH1 0x0 PUSH2 0x17DD DUP3 PUSH2 0x17B2 JUMP JUMPDEST SWAP1 POP SWAP2 SWAP1 POP JUMP JUMPDEST PUSH2 0x17ED DUP2 PUSH2 0x17D2 JUMP JUMPDEST DUP2 EQ PUSH2 0x17F8 JUMPI PUSH1 0x0 DUP1 REVERT JUMPDEST POP JUMP JUMPDEST PUSH1 0x0 DUP2 CALLDATALOAD SWAP1 POP PUSH2 0x180A DUP2 PUSH2 0x17E4 JUMP JUMPDEST SWAP3 SWAP2 POP POP JUMP JUMPDEST PUSH1 0x0 DUP2 SWAP1 POP SWAP2 SWAP1 POP JUMP JUMPDEST PUSH2 0x1823 DUP2 PUSH2 0x1810 JUMP JUMPDEST DUP2 EQ PUSH2 0x182E JUMPI PUSH1 0x0 DUP1 REVERT JUMPDEST POP JUMP JUMPDEST PUSH1 0x0 DUP2 CALLDATALOAD SWAP1 POP PUSH2 0x1840 DUP2 PUSH2 0x181A JUMP JUMPDEST SWAP3 SWAP2 POP POP JUMP JUMPDEST PUSH1 0x0 DUP1 PUSH1 0x40 DUP4 DUP6 SUB SLT ISZERO PUSH2 0x185D JUMPI PUSH2 0x185C PUSH2 0x17AD JUMP JUMPDEST JUMPDEST PUSH1 0x0 PUSH2 0x186B DUP6 DUP3 DUP7 ADD PUSH2 0x17FB JUMP JUMPDEST SWAP3 POP POP PUSH1 0x20 PUSH2 0x187C DUP6 DUP3 DUP7 ADD PUSH2 0x1831 JUMP JUMPDEST SWAP2 POP POP SWAP3 POP SWAP3 SWAP1 POP JUMP JUMPDEST PUSH1 0x0 DUP2 ISZERO ISZERO SWAP1 POP SWAP2 SWAP1 POP JUMP JUMPDEST PUSH2 0x189B DUP2 PUSH2 0x1886 JUMP JUMPDEST DUP3 MSTORE POP POP JUMP JUMPDEST PUSH1 0x0 PUSH1 0x20 DUP3 ADD SWAP1 POP PUSH2 0x18B6 PUSH1 0x0 DUP4 ADD DUP5 PUSH2 0x1892 JUMP JUMPDEST SWAP3 SWAP2 POP POP JUMP JUMPDEST PUSH2 0x18C5 DUP2 PUSH2 0x1810 JUMP JUMPDEST DUP3 MSTORE POP POP JUMP JUMPDEST PUSH1 0x0 PUSH1 0x20 DUP3 ADD SWAP1 POP PUSH2 0x18E0 PUSH1 0x0 DUP4 ADD DUP5 PUSH2 0x18BC JUMP JUMPDEST SWAP3 SWAP2 POP POP JUMP JUMPDEST PUSH1 0x0 PUSH1 0x20 DUP3 DUP5 SUB SLT ISZERO PUSH2 0x18FC JUMPI PUSH2 0x18FB PUSH2 0x17AD JUMP JUMPDEST JUMPDEST PUSH1 0x0 PUSH2 0x190A DUP5 DUP3 DUP6 ADD PUSH2 0x1831 JUMP JUMPDEST SWAP2 POP POP SWAP3 SWAP2 POP POP JUMP JUMPDEST PUSH1 0x0 DUP1 PUSH1 0x0 PUSH1 0x60 DUP5 DUP7 SUB SLT ISZERO PUSH2 0x192C JUMPI PUSH2 0x192B PUSH2 0x17AD JUMP JUMPDEST JUMPDEST PUSH1 0x0 PUSH2 0x193A DUP7 DUP3 DUP8 ADD PUSH2 0x17FB JUMP JUMPDEST SWAP4 POP POP PUSH1 0x20 PUSH2 0x194B DUP7 DUP3 DUP8 ADD PUSH2 0x17FB JUMP JUMPDEST SWAP3 POP POP PUSH1 0x40 PUSH2 0x195C DUP7 DUP3 DUP8 ADD PUSH2 0x1831 JUMP JUMPDEST SWAP2 POP POP SWAP3 POP SWAP3 POP SWAP3 JUMP JUMPDEST PUSH1 0x0 PUSH1 0xFF DUP3 AND SWAP1 POP SWAP2 SWAP1 POP JUMP JUMPDEST PUSH2 0x197C DUP2 PUSH2 0x1966 JUMP JUMPDEST DUP3 MSTORE POP POP JUMP JUMPDEST PUSH1 0x0 PUSH1 0x20 DUP3 ADD SWAP1 POP PUSH2 0x1997 PUSH1 0x0 DUP4 ADD DUP5 PUSH2 0x1973 JUMP JUMPDEST SWAP3 SWAP2 POP POP JUMP JUMPDEST PUSH1 0x0 PUSH1 0x20 DUP3 DUP5 SUB SLT ISZERO PUSH2 0x19B3 JUMPI PUSH2 0x19B2 PUSH2 0x17AD JUMP JUMPDEST JUMPDEST PUSH1 0x0 PUSH2 0x19C1 DUP5 DUP3 DUP6 ADD PUSH2 0x17FB JUMP JUMPDEST SWAP2 POP POP SWAP3 SWAP2 POP POP JUMP JUMPDEST PUSH2 0x19D3 DUP2 PUSH2 0x17D2 JUMP JUMPDEST DUP3 MSTORE POP POP JUMP JUMPDEST PUSH1 0x0 PUSH1 0x20 DUP3 ADD SWAP1 POP PUSH2 0x19EE PUSH1 0x0 DUP4 ADD DUP5 PUSH2 0x19CA JUMP JUMPDEST SWAP3 SWAP2 POP POP JUMP JUMPDEST PUSH1 0x0 DUP1 PUSH1 0x40 DUP4 DUP6 SUB SLT ISZERO PUSH2 0x1A0B JUMPI PUSH2 0x1A0A PUSH2 0x17AD JUMP JUMPDEST JUMPDEST PUSH1 0x0 PUSH2 0x1A19 DUP6 DUP3 DUP7 ADD PUSH2 0x17FB JUMP JUMPDEST SWAP3 POP POP PUSH1 0x20 PUSH2 0x1A2A DUP6 DUP3 DUP7 ADD PUSH2 0x17FB JUMP JUMPDEST SWAP2 POP POP SWAP3 POP SWAP3 SWAP1 POP JUMP JUMPDEST PUSH32 0x4E487B7100000000000000000000000000000000000000000000000000000000 PUSH1 0x0 MSTORE PUSH1 0x22 PUSH1 0x4 MSTORE PUSH1 0x24 PUSH1 0x0 REVERT JUMPDEST PUSH1 0x0 PUSH1 0x2 DUP3 DIV SWAP1 POP PUSH1 0x1 DUP3 AND DUP1 PUSH2 0x1A7B JUMPI PUSH1 0x7F DUP3 AND SWAP2 POP JUMPDEST PUSH1 0x20 DUP3 LT DUP2 SUB PUSH2 0x1A8E JUMPI PUSH2 0x1A8D PUSH2 0x1A34 JUMP JUMPDEST JUMPDEST POP SWAP2 SWAP1 POP JUMP JUMPDEST PUSH32 0x496E76616C696420616D6F756E74000000000000000000000000000000000000 PUSH1 0x0 DUP3 ADD MSTORE POP JUMP JUMPDEST PUSH1 0x0 PUSH2 0x1ACA PUSH1 0xE DUP4 PUSH2 0x1706 JUMP JUMPDEST SWAP2 POP PUSH2 0x1AD5 DUP3 PUSH2 0x1A94 JUMP JUMPDEST PUSH1 0x20 DUP3 ADD SWAP1 POP SWAP2 SWAP1 POP JUMP JUMPDEST PUSH1 0x0 PUSH1 0x20 DUP3 ADD SWAP1 POP DUP2 DUP2 SUB PUSH1 0x0 DUP4 ADD MSTORE PUSH2 0x1AF9 DUP2 PUSH2 0x1ABD JUMP JUMPDEST SWAP1 POP SWAP2 SWAP1 POP JUMP JUMPDEST PUSH32 0x496E73756666696369656E742062616C616E6365000000000000000000000000 PUSH1 0x0 DUP3 ADD MSTORE POP JUMP JUMPDEST PUSH1 0x0 PUSH2 0x1B36 PUSH1 0x14 DUP4 PUSH2 0x1706 JUMP JUMPDEST SWAP2 POP PUSH2 0x1B41 DUP3 PUSH2 0x1B00 JUMP JUMPDEST PUSH1 0x20 DUP3 ADD SWAP1 POP SWAP2 SWAP1 POP JUMP JUMPDEST PUSH1 0x0 PUSH1 0x20 DUP3 ADD SWAP1 POP DUP2 DUP2 SUB PUSH1 0x0 DUP4 ADD MSTORE PUSH2 0x1B65 DUP2 PUSH2 0x1B29 JUMP JUMPDEST SWAP1 POP SWAP2 SWAP1 POP JUMP JUMPDEST PUSH32 0x4E487B7100000000000000000000000000000000000000000000000000000000 PUSH1 0x0 MSTORE PUSH1 0x11 PUSH1 0x4 MSTORE PUSH1 0x24 PUSH1 0x0 REVERT JUMPDEST PUSH1 0x0 PUSH2 0x1BA6 DUP3 PUSH2 0x1810 JUMP JUMPDEST SWAP2 POP PUSH2 0x1BB1 DUP4 PUSH2 0x1810 JUMP JUMPDEST SWAP3 POP DUP3 DUP3 ADD SWAP1 POP DUP1 DUP3 GT ISZERO PUSH2 0x1BC9 JUMPI PUSH2 0x1BC8 PUSH2 0x1B6C JUMP JUMPDEST JUMPDEST SWAP3 SWAP2 POP POP JUMP JUMPDEST PUSH1 0x0 PUSH2 0x1BDA DUP3 PUSH2 0x1810 JUMP JUMPDEST SWAP2 POP PUSH2 0x1BE5 DUP4 PUSH2 0x1810 JUMP JUMPDEST SWAP3 POP DUP3 DUP3 SUB SWAP1 POP DUP2 DUP2 GT ISZERO PUSH2 0x1BFD JUMPI PUSH2 0x1BFC PUSH2 0x1B6C JUMP JUMPDEST JUMPDEST SWAP3 SWAP2 POP POP JUMP JUMPDEST PUSH1 0x0 PUSH1 0x60 DUP3 ADD SWAP1 POP PUSH2 0x1C18 PUSH1 0x0 DUP4 ADD DUP7 PUSH2 0x19CA JUMP JUMPDEST PUSH2 0x1C25 PUSH1 0x20 DUP4 ADD DUP6 PUSH2 0x18BC JUMP JUMPDEST PUSH2 0x1C32 PUSH1 0x40 DUP4 ADD DUP5 PUSH2 0x18BC JUMP JUMPDEST SWAP5 SWAP4 POP POP POP POP JUMP JUMPDEST PUSH32 0x4E487B7100000000000000000000000000000000000000000000000000000000 PUSH1 0x0 MSTORE PUSH1 0x12 PUSH1 0x4 MSTORE PUSH1 0x24 PUSH1 0x0 REVERT JUMPDEST PUSH1 0x0 DUP2 SWAP1 POP SWAP2 SWAP1 POP JUMP JUMPDEST PUSH1 0x0 PUSH2 0x1C7E DUP3 PUSH2 0x1C69 JUMP JUMPDEST SWAP1 POP SWAP2 SWAP1 POP JUMP JUMPDEST PUSH2 0x1C8E DUP2 PUSH2 0x1C73 JUMP JUMPDEST DUP3 MSTORE POP POP JUMP JUMPDEST PUSH1 0x0 PUSH1 0x40 DUP3 ADD SWAP1 POP PUSH2 0x1CA9 PUSH1 0x0 DUP4 ADD DUP6 PUSH2 0x1C85 JUMP JUMPDEST PUSH2 0x1CB6 PUSH1 0x20 DUP4 ADD DUP5 PUSH2 0x1C85 JUMP JUMPDEST SWAP4 SWAP3 POP POP POP JUMP JUMPDEST PUSH1 0x0 DUP2 MLOAD SWAP1 POP PUSH2 0x1CCC DUP2 PUSH2 0x17E4 JUMP JUMPDEST SWAP3 SWAP2 POP POP JUMP JUMPDEST PUSH1 0x0 PUSH1 0x20 DUP3 DUP5 SUB SLT ISZERO PUSH2 0x1CE8 JUMPI PUSH2 0x1CE7 PUSH2 0x17AD JUMP JUMPDEST JUMPDEST PUSH1 0x0 PUSH2 0x1CF6 DUP5 DUP3 DUP6 ADD PUSH2 0x1CBD JUMP JUMPDEST SWAP2 POP POP SWAP3 SWAP2 POP POP JUMP JUMPDEST PUSH1 0x0 DUP2 SWAP1 POP SWAP2 SWAP1 POP JUMP JUMPDEST PUSH1 0x0 DUP2 SWAP1 POP SWAP2 SWAP1 POP JUMP JUMPDEST PUSH1 0x0 PUSH2 0x1D2E PUSH2 0x1D29 PUSH2 0x1D24 DUP5 PUSH2 0x1CFF JUMP JUMPDEST PUSH2 0x1D09 JUMP JUMPDEST PUSH2 0x1810 JUMP JUMPDEST SWAP1 POP SWAP2 SWAP1 POP JUMP JUMPDEST PUSH2 0x1D3E DUP2 PUSH2 0x1D13 JUMP JUMPDEST DUP3 MSTORE POP POP JUMP JUMPDEST PUSH1 0x0 PUSH2 0x120 DUP3 ADD SWAP1 POP PUSH2 0x1D5A PUSH1 0x0 DUP4 ADD DUP13 PUSH2 0x19CA JUMP JUMPDEST PUSH2 0x1D67 PUSH1 0x20 DUP4 ADD DUP12 PUSH2 0x19CA JUMP JUMPDEST PUSH2 0x1D74 PUSH1 0x40 DUP4 ADD DUP11 PUSH2 0x1892 JUMP JUMPDEST PUSH2 0x1D81 PUSH1 0x60 DUP4 ADD DUP10 PUSH2 0x18BC JUMP JUMPDEST PUSH2 0x1D8E PUSH1 0x80 DUP4 ADD DUP9 PUSH2 0x18BC JUMP JUMPDEST PUSH2 0x1D9B PUSH1 0xA0 DUP4 ADD DUP8 PUSH2 0x1D35 JUMP JUMPDEST PUSH2 0x1DA8 PUSH1 0xC0 DUP4 ADD DUP7 PUSH2 0x1D35 JUMP JUMPDEST PUSH2 0x1DB5 PUSH1 0xE0 DUP4 ADD DUP6 PUSH2 0x19CA JUMP JUMPDEST PUSH2 0x1DC3 PUSH2 0x100 DUP4 ADD DUP5 PUSH2 0x18BC JUMP JUMPDEST SWAP11 SWAP10 POP POP POP POP POP POP POP POP POP POP JUMP JUMPDEST PUSH1 0x0 DUP2 MLOAD SWAP1 POP PUSH2 0x1DE0 DUP2 PUSH2 0x181A JUMP JUMPDEST SWAP3 SWAP2 POP POP JUMP JUMPDEST PUSH1 0x0 DUP1 PUSH1 0x0 PUSH1 0x60 DUP5 DUP7 SUB SLT ISZERO PUSH2 0x1DFF JUMPI PUSH2 0x1DFE PUSH2 0x17AD JUMP JUMPDEST JUMPDEST PUSH1 0x0 PUSH2 0x1E0D DUP7 DUP3 DUP8 ADD PUSH2 0x1DD1 JUMP JUMPDEST SWAP4 POP POP PUSH1 0x20 PUSH2 0x1E1E DUP7 DUP3 DUP8 ADD PUSH2 0x1DD1 JUMP JUMPDEST SWAP3 POP POP PUSH1 0x40 PUSH2 0x1E2F DUP7 DUP3 DUP8 ADD PUSH2 0x1DD1 JUMP JUMPDEST SWAP2 POP POP SWAP3 POP SWAP3 POP SWAP3 JUMP INVALID LOG2 PUSH5 0x6970667358 0x22 SLT KECCAK256 TSTORE 0xF7 0xDA 0xE9 0xDC 0xA6 DUP4 PUSH11 0x662635B92DF65C45FE187F BLOBBASEFEE RETURNDATASIZE SWAP10 PUSH8 0xB1E8D1BC88BF23D0 0xB2 PUSH5 0x736F6C6343 STOP ADDMOD XOR STOP CALLER LOG2 PUSH5 0x6970667358 0x22 SLT KECCAK256 0x28 NOT LOG0 0x22 PUSH16 0x8C168B3A51057F3064855652B1BF2839 0xDC 0xD4 0x24 LOG4 0xEA DUP6 NOT PUSH25 0x5D407464736F6C634300081800330000000000000000000000 "},"methodIdentifiers":{"createPumpToken(string,string)":"a286cb1e","deployedPumpTokens(address,uint256)":"1b007699","emitBuy(address,uint256,uint256)":"4e3f0a01","emitLiquidtyDeployed(address,uint256,uint256)":"4a7c974b","emitSell(address,uint256,uint256)":"88ae3c6b","getAddressBeforeDeployment(bytes,uint256)":"6ffc7436","getBytecode(string,string)":"d0d579ab","getDeployedPumpTokens(address)":"37a98946","getDeployedPumpTokensLen(address)":"7814e750"}}}}}