{
  "_format": "hh-sol-artifact-1",
  "contractName": "PumperToken",
  "sourceName": "contracts/PumperToken.sol",
  "abi": [
    {
      "inputs": [
        {
          "internalType": "string",
          "name": "name",
          "type": "string"
        },
        {
          "internalType": "string",
          "name": "symbol",
          "type": "string"
        },
        {
          "internalType": "address",
          "name": "_pumperFactory",
          "type": "address"
        }
      ],
      "stateMutability": "nonpayable",
      "type": "constructor"
    },
    {
      "inputs": [
        {
          "internalType": "address",
          "name": "spender",
          "type": "address"
        },
        {
          "internalType": "uint256",
          "name": "allowance",
          "type": "uint256"
        },
        {
          "internalType": "uint256",
          "name": "needed",
          "type": "uint256"
        }
      ],
      "name": "ERC20InsufficientAllowance",
      "type": "error"
    },
    {
      "inputs": [
        {
          "internalType": "address",
          "name": "sender",
          "type": "address"
        },
        {
          "internalType": "uint256",
          "name": "balance",
          "type": "uint256"
        },
        {
          "internalType": "uint256",
          "name": "needed",
          "type": "uint256"
        }
      ],
      "name": "ERC20InsufficientBalance",
      "type": "error"
    },
    {
      "inputs": [
        {
          "internalType": "address",
          "name": "approver",
          "type": "address"
        }
      ],
      "name": "ERC20InvalidApprover",
      "type": "error"
    },
    {
      "inputs": [
        {
          "internalType": "address",
          "name": "receiver",
          "type": "address"
        }
      ],
      "name": "ERC20InvalidReceiver",
      "type": "error"
    },
    {
      "inputs": [
        {
          "internalType": "address",
          "name": "sender",
          "type": "address"
        }
      ],
      "name": "ERC20InvalidSender",
      "type": "error"
    },
    {
      "inputs": [
        {
          "internalType": "address",
          "name": "spender",
          "type": "address"
        }
      ],
      "name": "ERC20InvalidSpender",
      "type": "error"
    },
    {
      "inputs": [
        {
          "internalType": "address",
          "name": "owner",
          "type": "address"
        }
      ],
      "name": "OwnableInvalidOwner",
      "type": "error"
    },
    {
      "inputs": [
        {
          "internalType": "address",
          "name": "account",
          "type": "address"
        }
      ],
      "name": "OwnableUnauthorizedAccount",
      "type": "error"
    },
    {
      "anonymous": false,
      "inputs": [
        {
          "indexed": true,
          "internalType": "address",
          "name": "owner",
          "type": "address"
        },
        {
          "indexed": true,
          "internalType": "address",
          "name": "spender",
          "type": "address"
        },
        {
          "indexed": false,
          "internalType": "uint256",
          "name": "value",
          "type": "uint256"
        }
      ],
      "name": "Approval",
      "type": "event"
    },
    {
      "anonymous": false,
      "inputs": [
        {
          "indexed": true,
          "internalType": "address",
          "name": "previousOwner",
          "type": "address"
        },
        {
          "indexed": true,
          "internalType": "address",
          "name": "newOwner",
          "type": "address"
        }
      ],
      "name": "OwnershipTransferred",
      "type": "event"
    },
    {
      "anonymous": false,
      "inputs": [
        {
          "indexed": true,
          "internalType": "address",
          "name": "from",
          "type": "address"
        },
        {
          "indexed": true,
          "internalType": "address",
          "name": "to",
          "type": "address"
        },
        {
          "indexed": false,
          "internalType": "uint256",
          "name": "value",
          "type": "uint256"
        }
      ],
      "name": "Transfer",
      "type": "event"
    },
    {
      "inputs": [],
      "name": "TYPE",
      "outputs": [
        {
          "internalType": "string",
          "name": "",
          "type": "string"
        }
      ],
      "stateMutability": "view",
      "type": "function"
    },
    {
      "inputs": [
        {
          "internalType": "address",
          "name": "owner",
          "type": "address"
        },
        {
          "internalType": "address",
          "name": "spender",
          "type": "address"
        }
      ],
      "name": "allowance",
      "outputs": [
        {
          "internalType": "uint256",
          "name": "",
          "type": "uint256"
        }
      ],
      "stateMutability": "view",
      "type": "function"
    },
    {
      "inputs": [
        {
          "internalType": "address",
          "name": "spender",
          "type": "address"
        },
        {
          "internalType": "uint256",
          "name": "value",
          "type": "uint256"
        }
      ],
      "name": "approve",
      "outputs": [
        {
          "internalType": "bool",
          "name": "",
          "type": "bool"
        }
      ],
      "stateMutability": "nonpayable",
      "type": "function"
    },
    {
      "inputs": [
        {
          "internalType": "address",
          "name": "account",
          "type": "address"
        }
      ],
      "name": "balanceOf",
      "outputs": [
        {
          "internalType": "uint256",
          "name": "",
          "type": "uint256"
        }
      ],
      "stateMutability": "view",
      "type": "function"
    },
    {
      "inputs": [
        {
          "internalType": "uint256",
          "name": "value",
          "type": "uint256"
        }
      ],
      "name": "burn",
      "outputs": [],
      "stateMutability": "nonpayable",
      "type": "function"
    },
    {
      "inputs": [
        {
          "internalType": "address",
          "name": "account",
          "type": "address"
        },
        {
          "internalType": "uint256",
          "name": "value",
          "type": "uint256"
        }
      ],
      "name": "burnFrom",
      "outputs": [],
      "stateMutability": "nonpayable",
      "type": "function"
    },
    {
      "inputs": [],
      "name": "buyX",
      "outputs": [],
      "stateMutability": "payable",
      "type": "function"
    },
    {
      "inputs": [],
      "name": "decimals",
      "outputs": [
        {
          "internalType": "uint8",
          "name": "",
          "type": "uint8"
        }
      ],
      "stateMutability": "view",
      "type": "function"
    },
    {
      "inputs": [
        {
          "internalType": "uint256",
          "name": "amount",
          "type": "uint256"
        }
      ],
      "name": "getTokenPriceX",
      "outputs": [
        {
          "internalType": "uint256",
          "name": "",
          "type": "uint256"
        }
      ],
      "stateMutability": "view",
      "type": "function"
    },
    {
      "inputs": [
        {
          "internalType": "uint256",
          "name": "amount",
          "type": "uint256"
        }
      ],
      "name": "getTokenPriceY",
      "outputs": [
        {
          "internalType": "uint256",
          "name": "",
          "type": "uint256"
        }
      ],
      "stateMutability": "view",
      "type": "function"
    },
    {
      "inputs": [],
      "name": "k",
      "outputs": [
        {
          "internalType": "uint256",
          "name": "",
          "type": "uint256"
        }
      ],
      "stateMutability": "view",
      "type": "function"
    },
    {
      "inputs": [],
      "name": "liqCap",
      "outputs": [
        {
          "internalType": "uint256",
          "name": "",
          "type": "uint256"
        }
      ],
      "stateMutability": "view",
      "type": "function"
    },
    {
      "inputs": [],
      "name": "name",
      "outputs": [
        {
          "internalType": "string",
          "name": "",
          "type": "string"
        }
      ],
      "stateMutability": "view",
      "type": "function"
    },
    {
      "inputs": [],
      "name": "owner",
      "outputs": [
        {
          "internalType": "address",
          "name": "",
          "type": "address"
        }
      ],
      "stateMutability": "view",
      "type": "function"
    },
    {
      "inputs": [],
      "name": "renounceOwnership",
      "outputs": [],
      "stateMutability": "nonpayable",
      "type": "function"
    },
    {
      "inputs": [
        {
          "internalType": "uint256",
          "name": "amount",
          "type": "uint256"
        }
      ],
      "name": "sellY",
      "outputs": [],
      "stateMutability": "nonpayable",
      "type": "function"
    },
    {
      "inputs": [],
      "name": "symbol",
      "outputs": [
        {
          "internalType": "string",
          "name": "",
          "type": "string"
        }
      ],
      "stateMutability": "view",
      "type": "function"
    },
    {
      "inputs": [],
      "name": "totalSupply",
      "outputs": [
        {
          "internalType": "uint256",
          "name": "",
          "type": "uint256"
        }
      ],
      "stateMutability": "view",
      "type": "function"
    },
    {
      "inputs": [
        {
          "internalType": "address",
          "name": "",
          "type": "address"
        }
      ],
      "name": "traders",
      "outputs": [
        {
          "internalType": "bool",
          "name": "",
          "type": "bool"
        }
      ],
      "stateMutability": "view",
      "type": "function"
    },
    {
      "inputs": [
        {
          "internalType": "address",
          "name": "to",
          "type": "address"
        },
        {
          "internalType": "uint256",
          "name": "value",
          "type": "uint256"
        }
      ],
      "name": "transfer",
      "outputs": [
        {
          "internalType": "bool",
          "name": "",
          "type": "bool"
        }
      ],
      "stateMutability": "nonpayable",
      "type": "function"
    },
    {
      "inputs": [
        {
          "internalType": "address",
          "name": "from",
          "type": "address"
        },
        {
          "internalType": "address",
          "name": "to",
          "type": "address"
        },
        {
          "internalType": "uint256",
          "name": "value",
          "type": "uint256"
        }
      ],
      "name": "transferFrom",
      "outputs": [
        {
          "internalType": "bool",
          "name": "",
          "type": "bool"
        }
      ],
      "stateMutability": "nonpayable",
      "type": "function"
    },
    {
      "inputs": [
        {
          "internalType": "address",
          "name": "newOwner",
          "type": "address"
        }
      ],
      "name": "transferOwnership",
      "outputs": [],
      "stateMutability": "nonpayable",
      "type": "function"
    },
    {
      "inputs": [],
      "name": "x",
      "outputs": [
        {
          "internalType": "uint256",
          "name": "",
          "type": "uint256"
        }
      ],
      "stateMutability": "view",
      "type": "function"
    },
    {
      "inputs": [],
      "name": "y",
      "outputs": [
        {
          "internalType": "uint256",
          "name": "",
          "type": "uint256"
        }
      ],
      "stateMutability": "view",
      "type": "function"
    }
  ],
  "bytecode": "0x608060405267016345785d8a0000600755633b9aca00600955731c9f7def9b509d0d64a2adce6f73f235147ab7f1600d60006101000a81548173ffffffffffffffffffffffffffffffffffffffff021916908373ffffffffffffffffffffffffffffffffffffffff16021790555073b97582dcb6f2866098ca210095a04df3e11b76a6600e60006101000a81548173ffffffffffffffffffffffffffffffffffffffff021916908373ffffffffffffffffffffffffffffffffffffffff160217905550348015620000cf57600080fd5b5060405162002b4238038062002b428339818101604052810190620000f59190620007a9565b338383816003908162000109919062000a8e565b5080600490816200011b919062000a8e565b505050600073ffffffffffffffffffffffffffffffffffffffff168173ffffffffffffffffffffffffffffffffffffffff1603620001935760006040517f1e4fbdf70000000000000000000000000000000000000000000000000000000081526004016200018a919062000b86565b60405180910390fd5b620001a4816200022e60201b60201c565b506b033b2e3c9fd0803ce8000000600881905550620001cc30600854620002f460201b60201c565b600954600854620001de919062000bd2565b600a8190555080600c60006101000a81548173ffffffffffffffffffffffffffffffffffffffff021916908373ffffffffffffffffffffffffffffffffffffffff16021790555050505062000cc3565b6000600560009054906101000a900473ffffffffffffffffffffffffffffffffffffffff16905081600560006101000a81548173ffffffffffffffffffffffffffffffffffffffff021916908373ffffffffffffffffffffffffffffffffffffffff1602179055508173ffffffffffffffffffffffffffffffffffffffff168173ffffffffffffffffffffffffffffffffffffffff167f8be0079c531659141344cd1fd0a4f28419497f9722a3daafe3b4186f6b6457e060405160405180910390a35050565b600073ffffffffffffffffffffffffffffffffffffffff168273ffffffffffffffffffffffffffffffffffffffff1603620003695760006040517fec442f0500000000000000000000000000000000000000000000000000000000815260040162000360919062000b86565b60405180910390fd5b6200037d600083836200038160201b60201c565b5050565b600073ffffffffffffffffffffffffffffffffffffffff168373ffffffffffffffffffffffffffffffffffffffff1603620003d7578060026000828254620003ca919062000c1d565b92505081905550620004ad565b60008060008573ffffffffffffffffffffffffffffffffffffffff1673ffffffffffffffffffffffffffffffffffffffff1681526020019081526020016000205490508181101562000466578381836040517fe450d38c0000000000000000000000000000000000000000000000000000000081526004016200045d9392919062000c69565b60405180910390fd5b8181036000808673ffffffffffffffffffffffffffffffffffffffff1673ffffffffffffffffffffffffffffffffffffffff16815260200190815260200160002081905550505b600073ffffffffffffffffffffffffffffffffffffffff168273ffffffffffffffffffffffffffffffffffffffff1603620004f8578060026000828254039250508190555062000545565b806000808473ffffffffffffffffffffffffffffffffffffffff1673ffffffffffffffffffffffffffffffffffffffff168152602001908152602001600020600082825401925050819055505b8173ffffffffffffffffffffffffffffffffffffffff168373ffffffffffffffffffffffffffffffffffffffff167fddf252ad1be2c89b69c2b068fc378daa952ba7f163c4a11628f55a4df523b3ef83604051620005a4919062000ca6565b60405180910390a3505050565b6000604051905090565b600080fd5b600080fd5b600080fd5b600080fd5b6000601f19601f8301169050919050565b7f4e487b7100000000000000000000000000000000000000000000000000000000600052604160045260246000fd5b6200061a82620005cf565b810181811067ffffffffffffffff821117156200063c576200063b620005e0565b5b80604052505050565b600062000651620005b1565b90506200065f82826200060f565b919050565b600067ffffffffffffffff821115620006825762000681620005e0565b5b6200068d82620005cf565b9050602081019050919050565b60005b83811015620006ba5780820151818401526020810190506200069d565b60008484015250505050565b6000620006dd620006d78462000664565b62000645565b905082815260208101848484011115620006fc57620006fb620005ca565b5b620007098482856200069a565b509392505050565b600082601f830112620007295762000728620005c5565b5b81516200073b848260208601620006c6565b91505092915050565b600073ffffffffffffffffffffffffffffffffffffffff82169050919050565b6000620007718262000744565b9050919050565b620007838162000764565b81146200078f57600080fd5b50565b600081519050620007a38162000778565b92915050565b600080600060608486031215620007c557620007c4620005bb565b5b600084015167ffffffffffffffff811115620007e657620007e5620005c0565b5b620007f48682870162000711565b935050602084015167ffffffffffffffff811115620008185762000817620005c0565b5b620008268682870162000711565b9250506040620008398682870162000792565b9150509250925092565b600081519050919050565b7f4e487b7100000000000000000000000000000000000000000000000000000000600052602260045260246000fd5b600060028204905060018216806200089657607f821691505b602082108103620008ac57620008ab6200084e565b5b50919050565b60008190508160005260206000209050919050565b60006020601f8301049050919050565b600082821b905092915050565b600060088302620009167fffffffffffffffffffffffffffffffffffffffffffffffffffffffffffffffff82620008d7565b620009228683620008d7565b95508019841693508086168417925050509392505050565b6000819050919050565b6000819050919050565b60006200096f6200096962000963846200093a565b62000944565b6200093a565b9050919050565b6000819050919050565b6200098b836200094e565b620009a36200099a8262000976565b848454620008e4565b825550505050565b600090565b620009ba620009ab565b620009c781848462000980565b505050565b5b81811015620009ef57620009e3600082620009b0565b600181019050620009cd565b5050565b601f82111562000a3e5762000a0881620008b2565b62000a1384620008c7565b8101602085101562000a23578190505b62000a3b62000a3285620008c7565b830182620009cc565b50505b505050565b600082821c905092915050565b600062000a636000198460080262000a43565b1980831691505092915050565b600062000a7e838362000a50565b9150826002028217905092915050565b62000a998262000843565b67ffffffffffffffff81111562000ab55762000ab4620005e0565b5b62000ac182546200087d565b62000ace828285620009f3565b600060209050601f83116001811462000b06576000841562000af1578287015190505b62000afd858262000a70565b86555062000b6d565b601f19841662000b1686620008b2565b60005b8281101562000b405784890151825560018201915060208501945060208101905062000b19565b8683101562000b60578489015162000b5c601f89168262000a50565b8355505b6001600288020188555050505b505050505050565b62000b808162000764565b82525050565b600060208201905062000b9d600083018462000b75565b92915050565b7f4e487b7100000000000000000000000000000000000000000000000000000000600052601160045260246000fd5b600062000bdf826200093a565b915062000bec836200093a565b925082820262000bfc816200093a565b9150828204841483151762000c165762000c1562000ba3565b5b5092915050565b600062000c2a826200093a565b915062000c37836200093a565b925082820190508082111562000c525762000c5162000ba3565b5b92915050565b62000c63816200093a565b82525050565b600060608201905062000c80600083018662000b75565b62000c8f602083018562000c58565b62000c9e604083018462000c58565b949350505050565b600060208201905062000cbd600083018462000c58565b92915050565b611e6f8062000cd36000396000f3fe60806040526004361061014b5760003560e01c8063715018a6116100b6578063a9059cbb1161006f578063a9059cbb146104a8578063b0db0e41146104e5578063b4f40c61146104ef578063bb24fe8a1461051a578063dd62ed3e14610545578063f2fde38b146105825761014b565b8063715018a6146103aa57806379cc6790146103c15780638da5cb5b146103ea57806392a88fa21461041557806395d89b4114610452578063a56dfe4a1461047d5761014b565b806323b872dd1161010857806323b872dd14610276578063313ce567146102b357806342966c68146102de57806343601eda1461030757806348768b981461033057806370a082311461036d5761014b565b806306fdde0314610150578063095ea7b31461017b5780630c55699c146101b857806312d697b6146101e357806314e5f5921461020e57806318160ddd1461024b575b600080fd5b34801561015c57600080fd5b506101656105ab565b604051610172919061178b565b60405180910390f35b34801561018757600080fd5b506101a2600480360381019061019d9190611846565b61063d565b6040516101af91906118a1565b60405180910390f35b3480156101c457600080fd5b506101cd610660565b6040516101da91906118cb565b60405180910390f35b3480156101ef57600080fd5b506101f8610666565b60405161020591906118cb565b60405180910390f35b34801561021a57600080fd5b50610235600480360381019061023091906118e6565b61066c565b60405161024291906118cb565b60405180910390f35b34801561025757600080fd5b5061026061067e565b60405161026d91906118cb565b60405180910390f35b34801561028257600080fd5b5061029d60048036038101906102989190611913565b610688565b6040516102aa91906118a1565b60405180910390f35b3480156102bf57600080fd5b506102c86106b7565b6040516102d59190611982565b60405180910390f35b3480156102ea57600080fd5b50610305600480360381019061030091906118e6565b6106c0565b005b34801561031357600080fd5b5061032e600480360381019061032991906118e6565b6106d4565b005b34801561033c57600080fd5b50610357600480360381019061035291906118e6565b61087f565b60405161036491906118cb565b60405180910390f35b34801561037957600080fd5b50610394600480360381019061038f919061199d565b610891565b6040516103a191906118cb565b60405180910390f35b3480156103b657600080fd5b506103bf6108d9565b005b3480156103cd57600080fd5b506103e860048036038101906103e39190611846565b6108ed565b005b3480156103f657600080fd5b506103ff61090d565b60405161040c91906119d9565b60405180910390f35b34801561042157600080fd5b5061043c6004803603810190610437919061199d565b610937565b60405161044991906118a1565b60405180910390f35b34801561045e57600080fd5b50610467610957565b604051610474919061178b565b60405180910390f35b34801561048957600080fd5b506104926109e9565b60405161049f91906118cb565b60405180910390f35b3480156104b457600080fd5b506104cf60048036038101906104ca9190611846565b6109ef565b6040516104dc91906118a1565b60405180910390f35b6104ed610a12565b005b3480156104fb57600080fd5b50610504610b3d565b60405161051191906118cb565b60405180910390f35b34801561052657600080fd5b5061052f610b43565b60405161053c919061178b565b60405180910390f35b34801561055157600080fd5b5061056c600480360381019061056791906119f4565b610b7c565b60405161057991906118cb565b60405180910390f35b34801561058e57600080fd5b506105a960048036038101906105a4919061199d565b610c03565b005b6060600380546105ba90611a63565b80601f01602080910402602001604051908101604052809291908181526020018280546105e690611a63565b80156106335780601f1061060857610100808354040283529160200191610633565b820191906000526020600020905b81548152906001019060200180831161061657829003601f168201915b5050505050905090565b600080610648610c89565b9050610655818585610c91565b600191505092915050565b60085481565b60075481565b600061067782610ca3565b9050919050565b6000600254905090565b600080610693610c89565b90506106a0858285610cc3565b6106ab858585610d57565b60019150509392505050565b60006012905090565b6106d16106cb610c89565b82610e4b565b50565b60008111610717576040517f08c379a000000000000000000000000000000000000000000000000000000000815260040161070e90611ae0565b60405180910390fd5b600061072282610ca3565b90508161072e33610891565b101561076f576040517f08c379a000000000000000000000000000000000000000000000000000000000815260040161076690611b4c565b60405180910390fd5b61077a333084610688565b50806008546107899190611b9b565b6008819055508160095461079d9190611bcf565b6009819055503373ffffffffffffffffffffffffffffffffffffffff166108fc829081150290604051600060405180830381858888f193505050501580156107e9573d6000803e3d6000fd5b50600c60009054906101000a900473ffffffffffffffffffffffffffffffffffffffff1673ffffffffffffffffffffffffffffffffffffffff166388ae3c6b3384846040518463ffffffff1660e01b815260040161084993929190611c03565b600060405180830381600087803b15801561086357600080fd5b505af1158015610877573d6000803e3d6000fd5b505050505050565b600061088a82610ecd565b9050919050565b60008060008373ffffffffffffffffffffffffffffffffffffffff1673ffffffffffffffffffffffffffffffffffffffff168152602001908152602001600020549050919050565b6108e1610eed565b6108eb6000610f74565b565b6108ff826108f9610c89565b83610cc3565b6109098282610e4b565b5050565b6000600560009054906101000a900473ffffffffffffffffffffffffffffffffffffffff16905090565b60066020528060005260406000206000915054906101000a900460ff1681565b60606004805461096690611a63565b80601f016020809104026020016040519081016040528092919081815260200182805461099290611a63565b80156109df5780601f106109b4576101008083540402835291602001916109df565b820191906000526020600020905b8154815290600101906020018083116109c257829003601f168201915b5050505050905090565b60095481565b6000806109fa610c89565b9050610a07818585610d57565b600191505092915050565b60003411610a55576040517f08c379a0000000000000000000000000000000000000000000000000000000008152600401610a4c90611ae0565b60405180910390fd5b6000610a6034610ecd565b9050610a6c33826109ef565b5080600854610a7b9190611bcf565b60088190555034600954610a8f9190611b9b565b60098190555060075460095410610aa957610aa861103a565b5b600c60009054906101000a900473ffffffffffffffffffffffffffffffffffffffff1673ffffffffffffffffffffffffffffffffffffffff16634e3f0a013383346040518463ffffffff1660e01b8152600401610b0893929190611c03565b600060405180830381600087803b158015610b2257600080fd5b505af1158015610b36573d6000803e3d6000fd5b5050505050565b600a5481565b6040518060400160405280600b81526020017f50756d706572546f6b656e00000000000000000000000000000000000000000081525081565b6000600160008473ffffffffffffffffffffffffffffffffffffffff1673ffffffffffffffffffffffffffffffffffffffff16815260200190815260200160002060008373ffffffffffffffffffffffffffffffffffffffff1673ffffffffffffffffffffffffffffffffffffffff16815260200190815260200160002054905092915050565b610c0b610eed565b600073ffffffffffffffffffffffffffffffffffffffff168173ffffffffffffffffffffffffffffffffffffffff1603610c7d5760006040517f1e4fbdf7000000000000000000000000000000000000000000000000000000008152600401610c7491906119d9565b60405180910390fd5b610c8681610f74565b50565b600033905090565b610c9e83838360016112dc565b505050565b600081600854600a5481610cba57610cb9611c3a565b5b04029050919050565b6000610ccf8484610b7c565b90507fffffffffffffffffffffffffffffffffffffffffffffffffffffffffffffffff8114610d515781811015610d41578281836040517ffb8f41b2000000000000000000000000000000000000000000000000000000008152600401610d3893929190611c03565b60405180910390fd5b610d50848484840360006112dc565b5b50505050565b600073ffffffffffffffffffffffffffffffffffffffff168373ffffffffffffffffffffffffffffffffffffffff1603610dc95760006040517f96c6fd1e000000000000000000000000000000000000000000000000000000008152600401610dc091906119d9565b60405180910390fd5b600073ffffffffffffffffffffffffffffffffffffffff168273ffffffffffffffffffffffffffffffffffffffff1603610e3b5760006040517fec442f05000000000000000000000000000000000000000000000000000000008152600401610e3291906119d9565b60405180910390fd5b610e468383836114b3565b505050565b600073ffffffffffffffffffffffffffffffffffffffff168273ffffffffffffffffffffffffffffffffffffffff1603610ebd5760006040517f96c6fd1e000000000000000000000000000000000000000000000000000000008152600401610eb491906119d9565b60405180910390fd5b610ec9826000836114b3565b5050565b600081600954600a5481610ee457610ee3611c3a565b5b04029050919050565b610ef5610c89565b73ffffffffffffffffffffffffffffffffffffffff16610f1361090d565b73ffffffffffffffffffffffffffffffffffffffff1614610f7257610f36610c89565b6040517f118cdaa7000000000000000000000000000000000000000000000000000000008152600401610f6991906119d9565b60405180910390fd5b565b6000600560009054906101000a900473ffffffffffffffffffffffffffffffffffffffff16905081600560006101000a81548173ffffffffffffffffffffffffffffffffffffffff021916908373ffffffffffffffffffffffffffffffffffffffff1602179055508173ffffffffffffffffffffffffffffffffffffffff168173ffffffffffffffffffffffffffffffffffffffff167f8be0079c531659141344cd1fd0a4f28419497f9722a3daafe3b4186f6b6457e060405160405180910390a35050565b600d60009054906101000a900473ffffffffffffffffffffffffffffffffffffffff1673ffffffffffffffffffffffffffffffffffffffff1663171223dd73ffffffffffffffffffffffffffffffffffffffff60001b7feeeeeeeeeeeeeeeeeeeeeeeeeeeeeeeeeeeeeeeeeeeeeeeeeeeeeeeeeeeeeeee60001b166110be306116d8565b6040518363ffffffff1660e01b81526004016110db929190611c94565b6020604051808303816000875af11580156110fa573d6000803e3d6000fd5b505050506040513d601f19601f8201168201806040525081019061111e9190611cd2565b5061116c30600e60009054906101000a900473ffffffffffffffffffffffffffffffffffffffff167fffffffffffffffffffffffffffffffffffffffffffffffffffffffffffffffff610c91565b600e60009054906101000a900473ffffffffffffffffffffffffffffffffffffffff1673ffffffffffffffffffffffffffffffffffffffff16635a47ddc3600954600030600047600854600080307fffffffffffffffffffffffffffffffffffffffffffffffffffffffffffffffff6040518b63ffffffff1660e01b81526004016111ff99989796959493929190611d44565b60606040518083038185885af115801561121d573d6000803e3d6000fd5b50505050506040513d601f19601f820116820180604052508101906112429190611de6565b505050600c60009054906101000a900473ffffffffffffffffffffffffffffffffffffffff1673ffffffffffffffffffffffffffffffffffffffff16634a7c974b306008546009546040518463ffffffff1660e01b81526004016112a893929190611c03565b600060405180830381600087803b1580156112c257600080fd5b505af11580156112d6573d6000803e3d6000fd5b50505050565b600073ffffffffffffffffffffffffffffffffffffffff168473ffffffffffffffffffffffffffffffffffffffff160361134e5760006040517fe602df0500000000000000000000000000000000000000000000000000000000815260040161134591906119d9565b60405180910390fd5b600073ffffffffffffffffffffffffffffffffffffffff168373ffffffffffffffffffffffffffffffffffffffff16036113c05760006040517f94280d620000000000000000000000000000000000000000000000000000000081526004016113b791906119d9565b60405180910390fd5b81600160008673ffffffffffffffffffffffffffffffffffffffff1673ffffffffffffffffffffffffffffffffffffffff16815260200190815260200160002060008573ffffffffffffffffffffffffffffffffffffffff1673ffffffffffffffffffffffffffffffffffffffff1681526020019081526020016000208190555080156114ad578273ffffffffffffffffffffffffffffffffffffffff168473ffffffffffffffffffffffffffffffffffffffff167f8c5be1e5ebec7d5bd14f71427d1e84f3dd0314c0f7b2291e5b200ac8c7c3b925846040516114a491906118cb565b60405180910390a35b50505050565b600073ffffffffffffffffffffffffffffffffffffffff168373ffffffffffffffffffffffffffffffffffffffff16036115055780600260008282546114f99190611b9b565b925050819055506115d8565b60008060008573ffffffffffffffffffffffffffffffffffffffff1673ffffffffffffffffffffffffffffffffffffffff16815260200190815260200160002054905081811015611591578381836040517fe450d38c00000000000000000000000000000000000000000000000000000000815260040161158893929190611c03565b60405180910390fd5b8181036000808673ffffffffffffffffffffffffffffffffffffffff1673ffffffffffffffffffffffffffffffffffffffff16815260200190815260200160002081905550505b600073ffffffffffffffffffffffffffffffffffffffff168273ffffffffffffffffffffffffffffffffffffffff1603611621578060026000828254039250508190555061166e565b806000808473ffffffffffffffffffffffffffffffffffffffff1673ffffffffffffffffffffffffffffffffffffffff168152602001908152602001600020600082825401925050819055505b8173ffffffffffffffffffffffffffffffffffffffff168373ffffffffffffffffffffffffffffffffffffffff167fddf252ad1be2c89b69c2b068fc378daa952ba7f163c4a11628f55a4df523b3ef836040516116cb91906118cb565b60405180910390a3505050565b60008173ffffffffffffffffffffffffffffffffffffffff1660001b9050919050565b600081519050919050565b600082825260208201905092915050565b60005b8381101561173557808201518184015260208101905061171a565b60008484015250505050565b6000601f19601f8301169050919050565b600061175d826116fb565b6117678185611706565b9350611777818560208601611717565b61178081611741565b840191505092915050565b600060208201905081810360008301526117a58184611752565b905092915050565b600080fd5b600073ffffffffffffffffffffffffffffffffffffffff82169050919050565b60006117dd826117b2565b9050919050565b6117ed816117d2565b81146117f857600080fd5b50565b60008135905061180a816117e4565b92915050565b6000819050919050565b61182381611810565b811461182e57600080fd5b50565b6000813590506118408161181a565b92915050565b6000806040838503121561185d5761185c6117ad565b5b600061186b858286016117fb565b925050602061187c85828601611831565b9150509250929050565b60008115159050919050565b61189b81611886565b82525050565b60006020820190506118b66000830184611892565b92915050565b6118c581611810565b82525050565b60006020820190506118e060008301846118bc565b92915050565b6000602082840312156118fc576118fb6117ad565b5b600061190a84828501611831565b91505092915050565b60008060006060848603121561192c5761192b6117ad565b5b600061193a868287016117fb565b935050602061194b868287016117fb565b925050604061195c86828701611831565b9150509250925092565b600060ff82169050919050565b61197c81611966565b82525050565b60006020820190506119976000830184611973565b92915050565b6000602082840312156119b3576119b26117ad565b5b60006119c1848285016117fb565b91505092915050565b6119d3816117d2565b82525050565b60006020820190506119ee60008301846119ca565b92915050565b60008060408385031215611a0b57611a0a6117ad565b5b6000611a19858286016117fb565b9250506020611a2a858286016117fb565b9150509250929050565b7f4e487b7100000000000000000000000000000000000000000000000000000000600052602260045260246000fd5b60006002820490506001821680611a7b57607f821691505b602082108103611a8e57611a8d611a34565b5b50919050565b7f496e76616c696420616d6f756e74000000000000000000000000000000000000600082015250565b6000611aca600e83611706565b9150611ad582611a94565b602082019050919050565b60006020820190508181036000830152611af981611abd565b9050919050565b7f496e73756666696369656e742062616c616e6365000000000000000000000000600082015250565b6000611b36601483611706565b9150611b4182611b00565b602082019050919050565b60006020820190508181036000830152611b6581611b29565b9050919050565b7f4e487b7100000000000000000000000000000000000000000000000000000000600052601160045260246000fd5b6000611ba682611810565b9150611bb183611810565b9250828201905080821115611bc957611bc8611b6c565b5b92915050565b6000611bda82611810565b9150611be583611810565b9250828203905081811115611bfd57611bfc611b6c565b5b92915050565b6000606082019050611c1860008301866119ca565b611c2560208301856118bc565b611c3260408301846118bc565b949350505050565b7f4e487b7100000000000000000000000000000000000000000000000000000000600052601260045260246000fd5b6000819050919050565b6000611c7e82611c69565b9050919050565b611c8e81611c73565b82525050565b6000604082019050611ca96000830185611c85565b611cb66020830184611c85565b9392505050565b600081519050611ccc816117e4565b92915050565b600060208284031215611ce857611ce76117ad565b5b6000611cf684828501611cbd565b91505092915050565b6000819050919050565b6000819050919050565b6000611d2e611d29611d2484611cff565b611d09565b611810565b9050919050565b611d3e81611d13565b82525050565b600061012082019050611d5a600083018c6119ca565b611d67602083018b6119ca565b611d74604083018a611892565b611d8160608301896118bc565b611d8e60808301886118bc565b611d9b60a0830187611d35565b611da860c0830186611d35565b611db560e08301856119ca565b611dc36101008301846118bc565b9a9950505050505050505050565b600081519050611de08161181a565b92915050565b600080600060608486031215611dff57611dfe6117ad565b5b6000611e0d86828701611dd1565b9350506020611e1e86828701611dd1565b9250506040611e2f86828701611dd1565b915050925092509256fea26469706673582212205df7dae9dca6836a662635b92df65c45fe187f4a3d9967b1e8d1bc88bf23d0b264736f6c63430008180033",
  "linkReferences": {},
  "deployedLinkReferences": {}
}